:10400000000003202DA4010029A4010029A401001F
:1040100029A4010029A4010029A401000000000036
:1040200000000000000000000000000029A40100C2
:1040300029A401000000000029A40100ADA4010092
:1040400029A4010029A4010029A4010029A4010038
:1040500029A4010029A4010029A4010029A4010028
:1040600029A4010029A4010029A4010029A4010018
:1040700029A4010029A4010029A4010029A4010008
:1040800029A4010029A4010029A4010029A40100F8
:1040900029A4010029A4010029A4010029A40100E8
:1040A00029A4010029A4010029A4010029A40100D8
:1040B00029A4010029A4010029A40100A1430100B1
:1040C000A1430100A1430100A1430100A14301005C
:1040D00029A4010029A4010029A4010029A40100A8
:1040E00029A4010029A4010029A4010029A4010098
:1040F0000000000029A4010029A4010029A4010056
:1041000029A4010029A4010029A4010029A4010077
:1041100029A4010029A4010029A4010029A4010067
:1041200029A4010029A4010029A4010029A4010057
:1041300029A4010029A4010029A4010029A4010047
:1041400029A4010029A40100F1980100FD980100B3
:10415000019901000599010029A4010029A4010089
:1041600029A4010029A4010029A4010029A4010017
:1041700029A4010029A4010029A4010029A4010007
:1041800051660100576601005B6601005F66010031
:1041900029A4010029A4010029A4010029A40100E7
:1041A00029A4010029A4010029A4010029A40100D7
:1041B00029A4010029A4010029A4010029A40100C7
:1041C00029A4010029A4010029A4010029A40100B7
:1041D00029A4010029A4010029A4010029A40100A7
:1041E00029A4010029A4010029A4010029A4010097
:1041F00029A401000000000029A4010029A4010055
:1042000029A4010029A4010029A4010029A4010076
:1042100029A4010029A4010029A4010029A4010066
:1042200029A4010029A4010029A4010029A4010056
:1042300029A4010029A4010029A4010029A4010046
:1042400029A4010029A4010029A4010029A4010036
:1042500029A4010029A4010029A4010029A4010026
:1042600029A4010010B5054C237833B9044B13B1D0
:104270000448AFF300800123237010BD40020020EA
:1042800000000000B03B020008B5034B1BB103491E
:104290000348AFF3008008BD000000004402002086
:1042A000B03B02000020704702380023F0B5C2B2D4
:1042B00048F205061846DCB2944217D2CF5C0825B6
:1042C000012427424FEAD03C18BF4FF0010E4FEABD
:1042D000400008BF4FF0000EE64580B218BF7040A6
:1042E0006400013DE4B2ECD10133E4E7F0BD037CAE
:1042F00013F008031EBFC36A406A1B1A002BACBF31
:1043000018466FF000407047103010F019BA07B52A
:1043100001220DF10701103010F011F901280CBF36
:104320009DF807004FF0FF3003B05DF804FB10303C
:1043300010F03CBB103010F05FBC07B501228DF8C7
:10434000071010300DF1070110F056FC03B05DF8B6
:1043500004FB012115F082BA08B5174B1B784BB34B
:1043600001380A2822D8DFE800F0062121210B219C
:10437000211021161800BDE8084010480BF05CBC65
:10438000BDE808400D480CF0BBBB0821BDE8084063
:104390000A480CF0F1BC0A21F8E7094805F09AFB3D
:1043A00048B9BDE8084001200CF0B6BE05490648F2
:1043B00015F014FB012008BD6002002063020020FC
:1043C0005C48002022F00100E44D002037B50023B6
:1043D000ADF8043002F07CF9044600283AD11E48BA
:1043E000602115F00BFA0225012201A91A488DF867
:1043F000045015F011F81848FFF7ABFF284616F0E7
:10440000ADF8164B164A1B781348172101FB0323FE
:10441000D978490815F0F2F9012201A90E488DF862
:10442000045014F0F9FF0C48FFF793FF284616F0EC
:1044300095F80948214615F0E1F9012201A906483D
:104440008DF8044014F0E8FF0348FFF782FF3320A3
:1044500016F084F803B030BD7C42002060020020DA
:104460006A0102002DE9F84307468846144602F027
:104470002FF9054610B10120BDE8F883DFF8589008
:104480007F081548394615F0B9F93F2C26464FF0FC
:10449000030128BF3F26104814F0ACFF0E483246F7
:1044A00008EB050114F0B8FF864207D00B490C4811
:1044B00015F094FA0848FFF74CFFDCE73544A41BDD
:1044C0004846EDB2E4B2FFF744FF0028D3D1002CF8
:1044D000D7D12046D0E700BF7C42002010E9010080
:1044E000E44D00202DE9F04F85B007460D460192BE
:1044F00002F0EEF858B97F08012335481A463946CC
:1045000015F0BDF928B93349334815F067FA00248E
:104510003DE02F4814F06AFF0028F4D02C48DFF863
:10452000B0A014F08AFFC4B2661E2C70F6B24FF031
:104530000108002E3AD0202EB34628BF4FF0200BA2
:1045400001235A463946504615F099F94FF00009B3
:104550000290029B5FFA89F1721A8B42D2B21AD989
:104560005046039214F042FF039A78B1019B08EB86
:104570000902934201DC1949C6E75046039214F040
:104580005CFF039A09F10109A854E2E7A41A204646
:1045900005B0BDE8F08F8B4502D0019B9C1AF6E771
:1045A00008F120085FFA88F81646C2E72946204637
:1045B000FFF77AFE2544C3B215F8022C9A4205D1C2
:1045C00015F8013CC0F307208342E0D004499BE783
:1045D0007C42002023E90100E44D002045E9010070
:1045E0005EE901002DE9F04F08298DB04FEAC101C5
:1045F000CBB2064617460CBF4FF4D0794FF04809AE
:104600000193002440F2072A4FF0820B019B8DF8A2
:104610000B30621102A907208DF80C20ADF808A01C
:104620008DF80AB0FFF740FE8DF80D00000A8DF8F6
:104630000E00072202A93046FFF714FFA9EB040879
:10464000054640B11549164815F0C8F90125284618
:104650000DB0BDE8F08F3E2015F080FF232202A9A7
:104660003046FFF73FFF23280FD1B8F1200F07EBAB
:1046700004012A46A8BF4FF02008904507DD01320B
:1046800002AB985C01F8010BF7E70649DBE7203441
:10469000A9EB0402002AB9DCD9E700BF70E90100E8
:1046A000E44D002091E901002DE9F347644E337891
:1046B00005460C461BB9012002B0BDE8F08702F0A8
:1046C00033F8DFF8C091F5B95E495F485E4D15F0EB
:1046D00076F933785C48172202FB0393D3F80E1067
:1046E00015F06DF95949584815F078F9284611F038
:1046F000BDFB0028FAD0544811F0D8FB00F0DF00D1
:104700005928D8D1524D53484FF0000843468022D3
:104710004146CDF8008014F043FE4E4814F0BAFD37
:10472000FFF754FE4C49484815F049F933784FF0EB
:10473000170A0AFB03932A46D8780821FFF752FF8D
:104740000746A0B14549404815F039F90A223E48CC
:10475000394615F0ADF9CDF80080802342463D483A
:10476000114614F01DFE3B4814F094FDA3E73C49AC
:10477000354815F033F93B49334815F020F93378C3
:104780000AFB039305F5D072D8780D21FFF72AFFB5
:10479000804660B134492C4815F011F90A2241468F
:1047A000294815F085F9009780233A46D7E72C4928
:1047B000254815F013F92D49234815F000F93378F1
:1047C0000AFB039305F5F472D8780E21FFF70AFF70
:1047D000074608B12649B6E721491B4815F0FEF8FF
:1047E0002449194815F0EBF833780AFB039905F5CD
:1047F0000C7299F803000F21FFF7F4FE054630B163
:104800001D49114815F0DBF80A222946C8E714496A
:104810000D4815F0E3F819490B4815F0DFF8184B6F
:104820001D705CB10B48009580232A46294614F080
:10483000B7FD084814F02EFD28463DE720463BE72B
:1048400060020020B2E90100E44D0020B8E9010057
:10485000630200204C430020D6E90100EBE901008F
:104860007F130200FCE9010012EA010024EA0100C2
:104870003AEA01004CEA010062EA010074EA010030
:10488000040000206A0102002DE9F041594E3378FE
:10489000ADF5207D002B32D0002401F045FF2346EA
:1048A000802221465448009414F07AFD5248534F18
:1048B00014F0F0FCFFF78AFD5149524815F07FF8DB
:1048C00033784FF0170808FB037302AAD878082141
:1048D000FFF788FE0546B0B14B494A4815F06FF81E
:1048E0000A224848294615F0E3F80094802322461E
:1048F0004148114614F054FD3F4814F0CBFC0DF52F
:10490000207DBDE8F08141493E4815F067F84049F7
:104910003C4815F054F8337808FB03736AAAD8783A
:104920000D21FFF75FFE044660B13A49354815F0A6
:1049300046F80A223348214615F0BAF8009580233C
:104940002A46D5E731492F4815F048F832492D4815
:1049500015F035F8337808FB03737CAAD8780E215C
:10496000FFF740FE054608B12C49B6E72749254820
:1049700015F034F82A49234815F021F8337808FB5C
:1049800003778EAAF8780F21FFF72CFE044608B1B2
:104990002449CBE71D491B4815F020F82249194846
:1049A00015F00DF8214A02AB13F8010B12F8011BA8
:1049B00088420CD01E49134815F001F80A2211480C
:1049C000214615F075F800220092802390E701340B
:1049D000B4F51E7FE8D100221146009280230648DC
:1049E00014F0DEFC044814F055FC0849054814F0A6
:1049F000E6FF84E7600200204C4300206A010200C9
:104A0000D6E90100E44D0020EBE9010039F0010096
:104A1000FCE9010012EA010024EA01003AEA01007F
:104A20004CEA010062EA01007DEA01006302002015
:104A300088EA01002DE9F04F08298DB04FEAC10145
:104A4000CBB2074690460CBF4FF4D0794FF04809DF
:104A5000019302F12004002641F2272A4FF0820B35
:104A60007211019B8DF80C20ADF808A08DF80AB0EA
:104A70008DF80B3008EB06020DF10D0112F8010B59
:104A800001F8010BA242F9D102A92720FFF70CFC83
:104A90008DF82D00000A8DF82E00272202A9384635
:104AA000FFF7E0FC054640B11049114814F096FFAD
:104AB000012528460DB0BDE8F08F1E2015F04EFDF3
:104AC000042202A93846FFF70DFD042801D0094948
:104AD000EBE79DF809200AB10749E6E72036A9EB84
:104AE0000602002A04F12004BADCE2E793EA01009E
:104AF000E44D0020B5EA0100D7EA0100F7B5504CBB
:104B0000504D2378002818BF0546002B48D04E4E44
:104B100031BB00231946009380224C4814F040FC1E
:104B20004A4814F0B7FBFFF751FC4949494814F0D3
:104B300046FF2378172707FB03632A46D878082106
:104B4000FFF778FF70B3002240480092802311469F
:104B500014F026FC3D4803B0BDE8F04014F09ABBC9
:104B600001F0E2FD3C493B483A4F14F028FF23781E
:104B70003848172202FB0363D3F80E1014F01FFF0E
:104B80003649344814F02AFF384611F06FF90028EE
:104B9000FAD0304811F08AF900F0DF005928B8D077
:104BA00003B0F0BD2E492B4814F018FF2D492948B9
:104BB00014F005FF237807FB036305F5D072D8785E
:104BC0000D21FFF737FF0028BDD12549214814F0FA
:104BD00005FF25491F4814F0F2FE237807FB036305
:104BE00005F5F472D8780E21FFF724FF0028AAD12A
:104BF0001B49184814F0F2FE1C49164814F0DFFE59
:104C0000237807FB036605F50C72F0780F21FFF798
:104C100011FF0246002896D18023014600900B48E0
:104C200014F0BEFB094814F035FB0D49094814F097
:104C3000D5FE0F49074803B0BDE8F04014F0CEBEE2
:104C400060020020630200206A0102004C43002041
:104C5000EBEA0100E44D002000EB0100610C0200D2
:104C600039F001000BEB010021EB010037EB0100F3
:104C70004DEB010030B5164D2B78ADF5804D85B06C
:104C8000044673B101216846FFF70EFD48B92B7841
:104C90000D2B0AD80B2B16D80A3B012B0BD901F090
:104CA00031FB0DF5804D05B030BD0E2BF7D16846B8
:104CB0000AF0CCFE02E069460AF09EFE21466846F4
:104CC000FFF71CFFEDE768460AF0E6FEF6E700BFD7
:104CD0006002002030B501288BB0044606D91D497A
:104CE0001D4814F07BFE00200BB030BDFFF76EFBBB
:104CF00040F20723ADF8003069468223E400002526
:104D000007208DF802308DF803408DF80450FFF72E
:104D1000CBFA8DF80500000A8DF8060007226946D7
:104D2000C020FFF79FFB08B10C49D9E73E2015F0E2
:104D300015FC23226946C020FFF7D4FB232801D0AD
:104D40000749CDE79DF802309DF8010040EA0320B5
:104D5000CAE700BF5CEB0100E44D002070E90100F0
:104D600091E9010010B50020FFF7B4FF114C20803D
:104D700008B9012010BD0120FFF7ACFF0E4B1880D1
:104D80000028F6D022880D4CA2F164039BB240F2B9
:104D90006B718B4206D90A480A4914F033FE012090
:104DA0002070E7E7B2F57A7F4FF00000F8D30123D7
:104DB0002370DFE75E0200205C020020D4000020A8
:104DC000E44D002076EB01002DE9F043274FDFF89A
:104DD000AC808BB00646002540F20723ADF80030CA
:104DE00080238DF80230EB008DF8033069460023F4
:104DF00007208DF80430FFF757FA030A8DF80630C4
:104E000098F800308DF805004FF0170909FB03737F
:104E10000722D8786946FFF725FB044640B11449BC
:104E2000144814F0DBFD012420460BB0BDE8F083EC
:104E30003E2015F093FB98F8003009FB0373232202
:104E4000D8786946FFF74EFB232801D00A49E7E7E7
:104E500006EB451223460133202B1DF8031002F800
:104E6000011BF8D10135042DB6D1DDE76A0102003E
:104E700087EB0100E44D0020AAEB01006002002056
:104E800010B5A2B000248022234621461348009486
:104E900014F086FA114814F0FDF9FFF797FA02A80A
:104EA000FFF792FF024658B10C4800948023224637
:104EB000214614F075FA094814F0ECF922B010BD3F
:104EC000014600908023054814F06AFA034814F064
:104ED000E1F902A9802001F055FEEFE74C430020E4
:104EE00010B5A2B000248022234621461348009426
:104EF00014F056FA114814F0CDF9FFF767FA02A83A
:104F0000FFF762FF024658B10C4800948023224606
:104F1000214614F045FA094814F0BCF922B010BD3E
:104F2000014600908023054814F03AFA034814F033
:104F3000B1F902A9802002F037F8EFE74C430020D6
:104F400030B58BB041F60733009369460023054620
:104F500007208DF80430FFF7A7F98DF80500000A47
:104F60008DF8060007226946C020FFF77BFA044649
:104F700038B10F490F4814F031FD012420460BB021
:104F800030BD1E2015F0EAFA23226946C020FFF743
:104F9000A9FA232801D00849ECE76B1E0DF10102A4
:104FA0001F3512F8011B03F8011FAB42F9D1E5E7E9
:104FB000C5EB0100E44D0020E3EB010030B593B0F8
:104FC0001B4B009300238DF8043005464B1E0DF15A
:104FD00005021F3113F8010F02F8010B8B42F9D1C2
:104FE00069462720FFF760F92722030A8DF825007C
:104FF000694628468DF82630FFF734FA044668B92A
:105000003C2015F0ABFA042269462846FFF76AFAFD
:10501000042807D00749084814F0E0FC0124204682
:1050200013B030BD9DF80130002BF8D00349F2E7F2
:105030002716030001EC0100E44D00201EEC0100E6
:1050400070B592B006461546FFF7B8FF08BB184B7F
:105050008DF80400694607200093FFF725F9072221
:10506000030A8DF80500694630468DF80630FFF7D3
:10507000F9F9044668B93C2015F070FA43226946F4
:105080003046FFF72FFA432805D00A490A4814F0A2
:10509000A5FC012409E06B1E0DF101023F3512F859
:1050A000011B03F8011FAB42F9D1204612B070BDBD
:1050B0000741800035EC0100E44D002010B5A4B09C
:1050C000214B019300238DF808300DF10902431E96
:1050D0003F3013F8014F02F8014B8342F9D14B1EC8
:1050E0000DF149023F3113F8010F02F8010B8B4219
:1050F000F9D101A98720FFF7D7F88DF88900000AB8
:105100008DF88A00872201A9C020FFF7ABF9044679
:1051100038B10E490E4814F061FC0124204624B039
:1051200010BD3C2015F01AFA04220DEB0201C0203C
:10513000FFF7D8F9042801D00649EBE79DF80530C0
:10514000002BEBD00449E5E78745020451EC010050
:10515000E44D00206FEC01008DEC01002DE9F04FD3
:10516000ADF51F7D0023009380221946BF4814F03F
:1051700017F916ADBD4814F08DF8FFF727F928464A
:10518000FFF722FE18B100220092802362E1B848A6
:10519000DFF8E482B64F14F019FCB649B44814F0B5
:1051A0000EFC2E46042416F8012B41463846013CDD
:1051B00014F028FC14F0FF04F5D1AF4FAC4E0824D6
:1051C0002A5D39463046013414F01CFC0D2CF7D111
:1051D000A748A94FA64E14F0F9FBA849A44814F01B
:1051E000EEFB04242A5D39463046013414F00AFCF3
:1051F000082CF7D1A24C9E48A24F14F0E7FBFFF712
:10520000E5F8A1499A4814F0DAFB2378172202FB4B
:1052100003730B21D87836AAFFF7E4F9A0460028DB
:10522000B1D136AE924DDFF888A2B14604462107CF
:1052300002D1284614F0CAFB19F8012B5146284622
:10524000013414F0DFFB482CF1D1894814F0BEFB87
:1052500098F80030172202FB03730C21D87836AA85
:10526000FFF7C0F9044600288DD188498048804D59
:10527000DFF83CA214F0A3FB0DF1D809220702D1FC
:10528000284614F0A3FB19F8012B51462846013497
:1052900014F0B8FB482CF1D1754814F097FB98F83E
:1052A0000030172202FB03730921D87836AAFFF7D2
:1052B00099F9044600287FF466AF75496C486C4D37
:1052C000DFF8ECA114F07BFB0DF1D809230702D124
:1052D000284614F07BFB19F8012B5146284601346F
:1052E00014F090FB482CF1D1614814F06FFB98F852
:1052F0000030172202FB037302AC93F8039044F2D0
:105300000A050023C4E9005321460A20FEF7CCFF1A
:105310000A2220814846FFF7A5F8054620B15D49DD
:10532000534814F05BFB2EE7822015F017F9432257
:1053300021464846FFF7D6F808B95749F0E72378E1
:10534000042B09D155494A4814F039FB6178484883
:105350000A2214F0C6FB16E736AB0135402D625D1C
:1053600003F8012BF9D14E494148DFF80491DFF8E9
:1053700040B114F024FB0DF1D80A0025280702D112
:10538000484614F023FB1AF8012B594648460135CC
:1053900014F038FB402DF1D1354814F017FB98F884
:1053A0000030172202FB03730A21D87836AAFFF7D0
:1053B00019F9054600287FF4E6AE3A492C48DFF893
:1053C000B090DFF8ECB014F0FAFA0DF1D80A290722
:1053D00002D1484614F0FAFA1AF8012B5946484609
:1053E000013514F00FFB482DF1D12148DFF88090F2
:1053F000DFF8BCB014F0EAFA2046FFF7A1FD2A4915
:105400001B4814F0DCFAA24600252A0702D14846C0
:1054100014F0DCFA1AF8012B59464846013514F00D
:10542000F1FA202DF1D1124814F0D0FA98F800309A
:10543000172202FB03772146F87836AAFFF700FE11
:1054400000250446B0B31949094814F0C7FA00957D
:1054500080232A461146054813F0A2FF034813F0A3
:1054600019FF0DF51F7DBDE8F08F00BF4C430020F4
:10547000E44D002096EC01009EEC0100431A02006E
:10548000600200206A010200A4EC0100BEEC0100F1
:10549000C9EC0100D8EC0100F6EC010014ED0100AC
:1054A0001CED010039ED010045ED01004BED01005F
:1054B000B6EC01000B490C480B4D0C4F14F07FFA71
:1054C000230702D1284614F081FA16F8012B394639
:1054D0002846013414F096FA402CF1D1024814F019
:1054E00075FA50E657ED0100E44D0020B6EC0100DE
:1054F00010B592B044F20773009369460023044646
:1055000007208DF80430FEF7CFFE8DF80500000A65
:105510008DF8060007226946C020FEF7A3FF38B1C8
:105520003449354814F05AFA0124204612B010BD0F
:105530003C2015F013F804226946C020FEF7D2FF84
:10554000042801D02D49ECE79DF801300BB12C491E
:10555000E7E72C4A00928DF804300DF10502631E36
:105560003F3413F8011F02F8011BA342F9D1694629
:105570004720FEF799FE8DF84500000A8DF8460099
:1055800047226946C020FEF76DFF08B11E49C8E7F3
:105590003C2014F0E3FF04226946C020FEF7A2FF7E
:1055A000042801D01949BCE79DF801300BB1184916
:1055B000B7E7184A0092694607208DF80430FEF7D5
:1055C00073FE8DF80500000A8DF806000722694673
:1055D000C020FEF747FF04460028A5D13C2014F068
:1055E000BDFF23226946C020FEF77CFF23289CD004
:1055F000094996E75CED0100E44D00207DED0100D6
:105600009AED010047470140B1ED0100D3ED0100E3
:10561000F1ED01000747020009EE01002DE9F04F0E
:10562000ADF5497D00230093194680229B4C074627
:105630009B4813F0B5FE9A4813F02CFEFEF7C6FE09
:10564000237853B1974814F0C1F99749954814F05D
:10565000C5F99649934814F0B2F92AA8FFF7B4FBAC
:10566000002836D1924B1B7883B99DF8A830012BC6
:1056700007D19DF8A930232B03D19DF8B430DE2B40
:105680000AD08C49874814F0A9F922E023781BB18D
:105690008949844814F093F9884B10251A462AA9A1
:1056A000485DE95C884209D085497E4814F087F955
:1056B0000A2229467B4814F0FBF90AE00135342D13
:1056C000EDD19DF8FE30552B12D17E49754814F06E
:1056D00076F90022724800928023114613F060FE92
:1056E0006F4813F0D7FD01200DF5497DBDE8F08F1F
:1056F0009DF8FF30552B01D17349E7E758252AABB8
:10570000595D535D9942CFD10135802DF7D1237872
:105710004BB16E49634814F061F923781BB16C49B1
:10572000604814F04CF96B4E6B4D3378172202FB36
:1057300003530B21D8782AAAFEF754FF0028C8D1BA
:105740000DF1AC0B0AAA59462023914611F8010B22
:1057500002F8010B013BF9D10DF1D00A524620238A
:1057600012F8011B09F803100133402BF8D13378EC
:10577000172202FB03530C21D8782AAAFEF732FF26
:105780000028A6D14846FFF7B3FE0028A1D153490F
:105790002AA8FFF793FC00289BD123784BB14B49F3
:1057A000404814F01BF923781BB14D493D4814F0D3
:1057B00006F93378172202FB03530921D8782AAA65
:1057C000FEF710FF002884D11AAA202390461BF868
:1057D000011B02F8011B013BF9D120231AF8012B10
:1057E00008F803200133402BF8D13378172202FB4D
:1057F00003530A21D8782AAAFEF7F4FE00287FF482
:1058000068AF4046FFF774FE00287FF462AF494658
:105810002AA8FFF753FC00287FF45BAF23784BB135
:105820002A49204814F0DAF823781BB12D491D4885
:1058300014F0C5F802A8FFF783FB3378172202FBA8
:10584000035502A9E8782AAAFFF7FAFB08B126490E
:1058500018E702A9C020FFF7B1FB00287FF439AF99
:1058600041462AA8FFF72AFC024600287FF431AF00
:1058700047B1009001468023094813F091FD084884
:1058800013F008FD054B187800283FF42DAF0F49A1
:10589000044814F0A3F8002026E700BFD50000203C
:1058A0004C430020E44D002024EE010039EE0100BD
:1058B0007642002047EE01004EEE010083F0010029
:1058C00061EE010070EE010086EE01003CF0010087
:1058D0009EEE0100600200206A01020043F0010018
:1058E000B2EE0100C6EE01004BED01002DE9F043E0
:1058F000664B1B7891B043B3654E002509F0FAFE64
:105900002B4680223478634835702946009513F081
:1059100047FD604813F0BEFC5F49604814F05EF834
:105920005F4804F0D7F83746814688B15D495B4847
:1059300014F054F8009580232A465648114613F077
:105940002FFD544813F0A6FC347011B0BDE8F0836D
:1059500001215348FEF7A8FE01200BF0DDFB804635
:1059600058B14E4814F032F84F494C4814F036F80C
:10597000CDF8009080234A46DFE74C49474814F0B1
:105980002DF84046FFF74AFE0546444855B114F04D
:105990001DF84749414814F021F8CDF800808023D4
:1059A0004246CAE714F012F800F086F9414B13F8AA
:1059B000016B26B1252EFAD103F8015CF7E73D4AC9
:1059C0003D4903A817F0A2FC3C49344814F006F8FE
:1059D00032464FF41E7103A800F080FD054658B111
:1059E0000096802332462B48114613F0D9FC2948F3
:1059F00013F050FC3C70A8E7284813F0E7FF30494B
:105A0000264813F0EBFF254813F0E0FF2D4923480B
:105A100013F0E4FF2A464FF41E7103A800F05EFD68
:105A200018B1009580232A46DDE7FFF723F91B48CC
:105A300013F0CCFF2449194813F0D0FF00F03CF9D3
:105A400001211748FEF730FE0B20FEF785FC0546C6
:105A5000124835B113F0BAFF1C49104813F0BEFFCD
:105A6000C8E713F0B3FF1A490C4813F0B7FF0B480F
:105A700013F0ACFF3C700748009580232A46294666
:105A800013F08EFC034813F005FC5EE76002002073
:105A9000D50000204C430020DBEE0100E44D002047
:105AA0005C480020ECEE01000DEF01003EEF01002C
:105AB00051EF01005E48002076EF010080EF010009
:105AC00092EF0100BCEF0100CFEF0100E2EF010017
:105AD00001F0010000224FF47A71C0E90121028235
:105AE0008274014A02607047180002002DE9F843F1
:105AF00040494148DFF83881DFF838913E4C13F0D7
:105B00006DFF0227002601252946404613F076FE48
:105B10000121404613F0A2FE38B102284BD037498C
:105B20003A46204613F06EFF45E0C02F43D036B909
:105B3000204613F04BFF3249204613F04FFF3A4600
:105B40004946204613F05EFF552D2BD8472D05D82A
:105B50000B2D2BD0152D42D02A4928E0A5F1480362
:105B60000D2BF9D801A252F823F000BFDB5B000037
:105B7000595B0000E75B0000595B0000595B0000C7
:105B8000595B0000595B0000595B0000D75B0000C7
:105B9000D75B0000E35B0000E35B0000595B0000A3
:105BA000EB5B0000682DD7D1174900E0174920466C
:105BB00013F014FF01260135EDB2802D07F1020725
:105BC000A2D10D4813F002FF8EB111490A48BDE879
:105BD000F84313F003BF0F49E9E70F49E7E70F491F
:105BE000E5E70F49E3E70F49E1E70F49DFE70F4931
:105BF000ECE700BF03F10100E44D0020B3F1010028
:105C000017F10100ABF1010099F101002DF1010044
:105C1000D9F101004AF101005DF101006CF10100D0
:105C20007FF101008AF101007CF60100DEF1010044
:105C30007C42002024F1010008B50548054913F015
:105C4000E1FEBDE808400449014813F0DBBE00BF97
:105C5000E44D0020ECF101003EF2010007B50E4AD0
:105C60000E480F4913F0CEFE0E490C4813F0CAFE41
:105C70000D490E4A097813880191127800920C4A56
:105C80000C49128805481B0A13F0BCFE03B05DF8EE
:105C900004EBFFF7D1BF00BF79F20100E44D002013
:105CA0007EF2010034190200610200205C02002033
:105CB0005E020020A0F20100044A00231370044A8F
:105CC0001370044A1370044A13707047894C002003
:105CD000884C00208A4C0020874C002010B50B4CCB
:105CE0000B4BA36100224023A383A277A384204609
:105CF000084A22624FF4C8734FF4FA41A38213F0AA
:105D00006DFD2046BDE8104013F04EBC7C420020E3
:105D1000BC420020FC42002070B5037804460BB959
:105D2000332070BD17F098FB0A49002051F8046B2E
:105D30000023DAB2B55CA25C45B1954203F10103E0
:105D4000F7D0431CD8B23328F0D1E9E7002AF8D1C4
:105D5000E7E700BF0800002038B571497148724C70
:105D600013F03CFE6F4813F031FE70496D4813F09C
:105D700035FE6F496B4813F031FE2378002B00F09D
:105D80008D806C4967486C4D13F028FE22781723EC
:105D90005343EB5C7BB16949624813F01FFE6849CD
:105DA000604813F01BFE67495E4813F017FE664912
:105DB0005C4813F013FE2378172202FB0353DB78B1
:105DC000BBB16249574813F009FE6149554813F0C9
:105DD00005FE6049534813F001FE5F49514813F036
:105DE000FDFD5E494F4813F0F9FD5D494D4813F044
:105DF000F5FD2378172202FB03535B781BB1594949
:105E0000484813F0EBFD5849464813F0E7FD574B5F
:105E10001B781BB15649434813F0E0FD554B1B78E6
:105E20001BB155493F4813F0D9FD2378172202FBD7
:105E30000355AB78002B31D03A4813F0C7FD4F49DA
:105E4000384813F0CBFD4E49364813F0C7FD4D4995
:105E5000344813F0C3FD23780E2B07D04A4931484C
:105E600013F0BCFD49492F4813F0B8FD48492D48AF
:105E700013F0B4FD47492B4813F0B0FD46492948BB
:105E800013F0ACFD4549274813F0A8FD44492548C7
:105E900013F0A4FD4349234813F0A0FD214813F05B
:105EA00095FD41491F4813F099FD40491D4813F0E5
:105EB00095FD3F491B4813F091FD3E49194813F0E9
:105EC0008DFD3D49174813F089FD3C49154813F0F5
:105ED00085FD3B49134813F081FD124813F076FD10
:105EE0003849104813F07AFD37490E4813F076FD13
:105EF00036490C4813F072FD35490A4813F06EFD1F
:105F00003449084813F06AFD3349064813F066FD2A
:105F10003249044813F062FDBDE83840FFF78CBEFB
:105F2000BFF20100E44D002060020020DDF201001C
:105F3000EFF201000EF301006A0102002FF30100ED
:105F40005AF3010086F30100B3F30100E3F301000B
:105F500010F4010043F4010077F40100ACF40100F7
:105F6000E4F4010016F5010038F50100894C002029
:105F700057F50100884C00207AF501009EF50100DC
:105F8000B2F50100D9F5010007F6010034F6010071
:105F900051F601006CF6010086F60100A2F6010040
:105FA000C7F60100F8F6010022F701003FF70100F3
:105FB00056F7010095F70100D2F7010004F801003F
:105FC00034F801005AF801006AF8010089F801006C
:105FD000ADF80100D1F80100F0F801000FF901005F
:105FE00020B50E2014F0DEFC0546322014F0B6FA7F
:105FF0000E2014F0D7FC0544322014F0AFFA0E2026
:1060000014F0D0FC0544322014F0A8FA0E2014F04D
:10601000C9FC281848BF033040F6E44380105843B9
:1060200040F2FF3390FBF3F042F6DC03584340F6B6
:10603000426390FBF3F020BD20B50F2014F0B2FCBA
:106040000546322014F08AFA0F2014F0ABFC054408
:10605000322014F083FA0F2014F0A4FC05443220FF
:1060600014F07CFA0F2014F09DFC40F6FB722B1804
:1060700093420CDC002BB8BF03339B1041F2EC3091
:106080005843C3F57F73033390FBF3F020BD40F218
:10609000FE33F3E770B5394C2378002B5ED03849D6
:1060A0003848394D13F08BFC23783648172606FB09
:1060B0000353D3F80E1013F091FC23785E43AB1911
:1060C000AA5D4AB1B3F805102E480A2213F0EEFC7F
:1060D0002E492C4813F082FC2378172202FB03552B
:1060E000EB781BB12A49274813F078FC294B1B7821
:1060F000002B35D02849234813F070FC274B1B7820
:106100001BB127491F4813F069FC0DF089FB0DF006
:10611000C1FB0DF011FC237873B3224B1B785BB3EA
:10612000FFF75EFF4FF47A751F4990FBF5F205FB10
:106130001203144813F066FC2378134A172101FB5D
:1061400003239B7DC3B1FFF777FF184B984209DD0E
:10615000BDE8704016490B4813F040BC1549C2E732
:106160001549C8E790FBF5F2144905FB1203BDE899
:106170007040044813F046BC70BD00BF60020020B0
:1061800024F90100E44D00206A0102002EF901000B
:1061900047F90100D50000207BF90100774200207B
:1061A00094F9010075420020BDF9010040420F0042
:1061B000D9F9010066F9010087F90100EEF9010043
:1061C00008B50C20012114F0D1FCBDE808403220B4
:1061D00014F0C4B908B50C20002114F0C7FCBDE8C8
:1061E0000840322014F0BAB938B51B4C2378254644
:1061F000ABB1FFF7F5FEB0F5FA7F01DB002038BD4B
:10620000164813F0E3FB00251549144813F0E6FB8C
:106210002570FFF7DFFF134B01201D70EFE7FFF73D
:10622000DFFEB0F5167FE9DD0C480F4C13F0CEFB16
:106230000E490A4813F0E6FB227822B1FFF7C0FFAF
:10624000642014F08BF9237801202870002BD6D11C
:10625000044B1870D3E700BF75420020E44D0020C6
:1062600005FA0100734200206002002016FA0100C6
:106270000149024813F0B2BB28FA0100E44D0020A6
:10628000084B094A1B780948172101FB0323D3F85F
:1062900012104FF47A7391FBF3F203FB12130449CB
:1062A00013F0B0BB600200206A010200E44D002040
:1062B0004CFA010038B5104B1B7813B108B9002017
:1062C00038BD0E4D0E4C2B78172000FB0343187B76
:1062D00020B19A7812B9DB78002BF0D0FFF780FE5E
:1062E0002A78172303FB0242D2F812309842E6DCE8
:1062F000FFF7C6FF0120E3E777420020600200209D
:106300006A0102000149024813F068BB70FA0100FB
:10631000E44D00200149024813F060BB9CFA0100E3
:10632000E44D0020024600208A4204D812F8013BC6
:106330000344D8B2F8E7704708B503463038C0B216
:10634000092805D9A3F14102052A02D8373BD8B262
:1063500008BD1A460448054913F054FB044B0122BA
:106360001A700020F4E700BFE44D0020B6FA0100E7
:10637000744200204B6870B543608B688360CB68C3
:10638000C36001F11004064600F110050FCC0FC5E3
:106390000FCC0FC523682B60304670BD70B5B4B00C
:1063A0000DA8FFF797FB1AA8FFF794FB00231946E7
:1063B000009380222B482C4E2C4D12F0F1FF2948DF
:1063C00012F068FF09F096F92949284813F006FBF6
:1063D00027A8FFF77FFB274A274900232BA80EF0A9
:1063E00083FB27A91AA8FFF7C5FF27A8FFF772FBB1
:1063F00000221EA92BA80EF08BFA27A90DA8FFF7E3
:10640000B9FF9DF84440DCB114F0D00F14D12A221A
:1064100002A911A80FF0EEF802AA3146284613F09F
:10642000F1FA294611A80EF0EBFF294611A80EF04B
:10643000F8FF284613F0CAFA11A80EF0FBFAD4E7C9
:106440001EA80EF0F7FA094813F0C0FA802322467E
:1064500021460448009412F0A3FF024812F01AFFEC
:1064600034B070BD4C4300201CFB0100E44D002003
:10647000D1FA01001AFB01007443002038B503680B
:106480005B6905469847002808DA1049104813F060
:10649000A5FA104B01221A70002038BDC0B2FFF7D8
:1064A0004BFF2B6804465B69284698470028ECDBC5
:1064B000C0B2FFF741FF084A24011178E4B244EA70
:1064C0000003D8B251FA83F31370E6E751010200DA
:1064D000E44D002074420020620200202DE9F04FBC
:1064E000A3B00024054605A889460292FFF7F2FAF8
:1064F0002346802221466A48009412F051FF0DF194
:106500004808674812F0C6FE4046FFF7E3FA2A46FD
:106510006449234616A80EF0E7FA414605A8FFF79E
:1065200029FF9DF8245095B95F49604813F056FA49
:10653000009580232A465A48114612F031FF5848E8
:1065400012F0A8FE0124204623B0BDE8F08F584D7C
:10655000DFF878B12C7001220DF1130109A80DF0BC
:10656000EEFF0128044638D12B78002B35D19DF859
:1065700013203A2AEFD105A88BF80030FFF77EFFF1
:106580002B788DF8130063BB05A8FFF777FF2B78F6
:10659000824633BB05A8FFF771FF2B78064603BB85
:1065A00005A8FFF76BFF2A780746D2B99DF81310AC
:1065B00040291DD93F493D48029213F00FFA09A81E
:1065C0000EF038FA029A009280231146344812F0F5
:1065D000E7FE334812F05EFEB5E73749334813F063
:1065E000FDF909A80EF026FA002200928023A2E706
:1065F0009DF813100392D4B2A14205A80BD9FFF75E
:106600003DFF22AB039A29781C44013204F8400C68
:106610000029EDD0E5E7FFF731FF2A78002AE0D125
:106620009BF800404CB125492048029213F0D6F95E
:1066300009A80EF0FFF9029AD7E7012F23D0032F04
:1066400089D0AFB91E4A9DF8131046EA0A26324493
:106650003846C3B299427FF67EAF3318994501D8C8
:106660001849BBE718F8003002F8013B0130F0E7A9
:1066700015490E4813F0B2F909A80EF0DBF90094A1
:106680008023224657E709A80EF0D4F9029B002B7D
:106690003FF459AF009480232246214696E700BF7D
:1066A0004C4300207443002027FB0100E44D0020F0
:1066B000744200203BFB0100510102000301020073
:1066C000630200204DFB01006EFB0100620200200E
:1066D00008B5162014F074FA28B90449044813F0D8
:1066E0007DF9012008BD0020FCE700BF7EFB010012
:1066F000E44D002010B5084C204612F059FD074A21
:106700000749204614F0CEFABDE81040054816228D
:10671000152112F0E3BE00BF4C4300200000002012
:10672000CD9101007C42002038B513F0C9FE094D1F
:10673000044628460FF09AFB28B128460FF0B6FB16
:1067400013F0BEFE044613F0BBFE001B3128F0D947
:1067500038BD00BFE44D002008B5FFF7E5FF144940
:10676000144813F02CF913480FF080FB0028FAD0DE
:1067700010480FF09BFB00F0DF00592817D10E499D
:106780000C4813F02BF94FF4FA6013F0E7FE0B4BB3
:106790000B4A1A60BFF34F8F0A490B4BCA6802F4C9
:1067A000E0621343CB60BFF34F8F00BFFDE708BD2E
:1067B00097FB0100E44D0020B7FB0100FCFF022025
:1067C000EF6916F000ED00E00400FA0538B5114C51
:1067D00020460FF04BFB0028FAD00E480D4D0FF06D
:1067E00065FBC0B2FFF7A8FD0001C4B228460FF058
:1067F0003DFB0028FAD007480FF058FBC0B2FFF766
:106800009BFD054A1378204353FA80F31370C0B2FE
:1068100038BD00BFE44D00206202002010B50446E0
:10682000FFF782FF8CB9124A44F21003FF21013BAB
:106830009BB202F8011B002BF9D10E490E4813F050
:10684000CDF80E4B01221A7010E00D490A480A4C8F
:1068500013F0C4F820460FF009FB0028FAD00648D0
:106860000FF024FB00F0DF005928DCD010BD00BF82
:1068700063020020F5FB0100E44D0020040000202D
:10688000DCFB010037B55B484FF416510FF062FB9B
:106890005948012112F0B9FC5748522112F0D5FC99
:1068A000564B9B6913F0786FC3F3C4520CD0032A84
:1068B0004FD0534D4F4C2946204613F08FF840F6E9
:1068C000B83013F04BFEF6E74E4B07211A704A48DA
:1068D00012F04CFD484812F087FC3220002413F0DF
:1068E0003DFE80231A4621464348009412F058FD8D
:1068F000414812F0CFFC21460C2014F037F9012159
:106900000C2014F0EFF8404B1C700CF049FF08F01D
:1069100001FF80232246214637480093234612F088
:106920003FFD354812F0B6FCFFF754FC20460CF052
:106930006BFF01200CF08CFF0CF0EEFFFFF7CEF99F
:106940002C480FF01FFB48B94FF4FA7013F006FE05
:10695000F6E72C4B01221A700821B8E74FF4FA70C1
:1069600013F0FCFDFEF7FEF910B328492148224C34
:1069700013F034F8002500231946802220460095A4
:1069800012F00EFD204612F085FC4FF4FA7013F061
:10699000E5FD00231A4619462046009512F000FD39
:1069A000204612F077FC4FF4FA7013F0D7FDE2E7BF
:1069B000FFF754F916490F4813F010F80D4813F07B
:1069C00005F8144B187830B113490A4813F006F84B
:1069D000FFF7C2FEFCE7FFF76FF9FFF71FFFFFF7B6
:1069E00059FBFFF701FC0D49024803B0BDE83040F8
:1069F00012F0E5BFE44D00204C4300200020004190
:106A000003FC0100610200207842002017FC010015
:106A10002AFC0100D40000204EFC0100AAFC010069
:106A20002DE9F04F414B1B78804693B00120002B9D
:106A300067D03F4FDFF828A1FFF7F0FEFFF774FEA5
:106A400000233C493C483B7012F0C8FF0197DFF837
:106A5000E8B058460FF00AFA0028FAD058460FF06E
:106A600025FAC0B21B2804D13449334812F0B6FFCE
:106A700002E0019B1C7814B1FFF756FE40E03A2873
:106A8000E7D18AF80040FFF7A1FE0646FFF79EFE19
:106A90008146FFF79BFE0546FFF798FE402E07460E
:106AA0000AD92749244812F08AFF402122480A22A5
:106AB00012F0FCFF2349D8E7E2B2964205D9FFF76E
:106AC00085FE02AB18550134F6E7FFF77FFE9AF812
:106AD00000400CB11C49C8E7012F1DD0032FB8D0CE
:106AE000C7B91A4A45EA09252A443B46D9B28E421B
:106AF000ADD9E918884507D815490F4812F06EFF3F
:106B0000012013B0BDE8F08F02A9C95C02F8011B97
:106B10000133EBE70F49A8E7FFF706FE0E490648E9
:106B200012F05CFF0D4B20461C70EAE7600200206B
:106B30007442002072FC0100E44D002092FC010030
:106B4000A3FC0100ADFC0100030102006302002070
:106B50004DFB01006EFB0100B4FC010004000020AD
:106B60006202002008B5FFF7DFFD05480FF07EF94F
:106B70000028FAD0BDE8084001480FF097B900BFDF
:106B8000E44D00202DE9F74F324B1B7807460D46A8
:106B9000002B5CD0FFF7C8FD2F493048DFF8D480C8
:106BA0002E4EDFF8D49012F019FFFFF7DBFF2C4BCD
:106BB0004FF0000A002D08BF1D4657453FD9A7EBEF
:106BC0000A0BBBF10F0FD4BF1FFA8BFB4FF0100B5A
:106BD00053465A46414630460AEB1A2454FA8BF47F
:106BE00012F010FF05EB0A03E4B29B449B450BD067
:106BF00013F8012B494614443046CDE90033E4B282
:106C000012F000FF009BF1E7624230461549D2B214
:106C100012F0F8FE30460FF029F958B130460FF067
:106C200045F91B2806D110490C4803B0BDE8F04FC8
:106C300012F0D4BE0AF1100A1FFA8AFABDE70B4916
:106C4000064812F0CBFEFFF78DFF0949ECE703B0D1
:106C5000BDE8F08F60020020C9FC0100E44D002077
:106C600063020020101F02001AFD01002EFD01002A
:106C70003AFD01000EFD01009FEC010000B599B046
:106C8000684605F011F918B969466020FFF77AFFE8
:106C900019B05DF804FB00B599B0684602F010FE2B
:106CA00018B969466020FFF76DFF19B05DF804FB65
:106CB00070B5114D114EFFF737FD284612F086FED4
:106CC0003146284612F07BFE28460FF0CFF8002808
:106CD000FAD028460FF0EAF840F02000C4B2652C44
:106CE00001D0612CE7D1044812F070FEA4F16503D5
:106CF0005842584170BD00BFE44D002050FD0100D6
:106D0000F0B585B00024204D204F8DF80440264674
:106D100028460FF0ABF80028FAD028460FF0C6F846
:106D2000C1B20D290BD1184812F050FE44B31849D6
:106D30006A4601A816F00AFB009805B0F0BD0829C4
:106D40000BD1002CE4D0013C04AB23443946284647
:106D500003F80C6C12F033FEDAE7A1F13003092BD3
:106D6000D6D8082CD4DC04AB2344013403F80C1C23
:106D700004AB2344284603F80C6C0FF06BF8C7E70C
:106D80004FF0FF330093D7E7E44D00206FFD010083
:106D90005C0D0200F7B54D484D4F4C4E12F016FEFB
:106DA000FFF7C2FC00243D4622464A49304612F015
:106DB00029FE172303FB04733046D3F80E10013469
:106DC00012F00CFE0F2CEFD1404812F0FFFD4249AB
:106DD0003E4812F0F4FDFFF793FF00286DDB0E280C
:106DE0003E4C2BDD3E49394812F0F8FD2378022B4A
:106DF0000ED13C49354812F0F1FD3B49334812F0C1
:106E0000EDFD3A49314812F0E9FD304812F0DEFD5F
:106E10002478002C41D0002280233548009211466E
:106E200012F0BEFA324812F035FA324B1B78002BC2
:106E30004AD003B0BDE8F040FFF7C2B92D4B207037
:106E40001B780BB1FFF7BCF92378172202FB035321
:106E50001B7BEBB10CF050FD2378172606FB035388
:106E6000987A0CF0D1FC237806FB0353D87A0CF007
:106E7000EFFCFFF70FF923781F4A06FB0353197B3A
:106E800049B1997809B9DB782BB101231370ADE7CB
:106E90000CF042FDE0E70023F8E7FFF79BF98023C1
:106EA0000093134823462246214612F079FA1048EF
:106EB00003B0BDE8F04012F0EDB91049034803B04B
:106EC000BDE8F04012F08ABD03B0F0BDE44D0020F3
:106ED0006A01020073FD010079FD010060020020DB
:106EE0008FFD0100BDFD0100E2FD010007FE010074
:106EF0004C43002075420020794200202CFE010006
:106F00002DE9F04705460E46174616F09DFA044651
:106F100018B12248294612F052FDDFF880A0DFF8B0
:106F20008080DFF8809050460EF0A0FF0028FAD055
:106F300050460EF0BBFFC1B21B292CD00D2905D144
:106F4000164812F043FDE0B2BDE8F087082909D1E8
:106F5000002CE8D0013C00232B554946504612F046
:106F60002EFDE0E747B9A1F12003DBB21D2B0DD9BF
:106F7000A1F13F033F2BD6D8A642D4DD29550134D9
:106F800000232B5550460EF065FFCCE728FA03F39B
:106F9000DB07C8D5F0E70020D6E700BFE44D0020AE
:106FA000FB7FFF2B6FFD01002DE9F04FC3B00646BC
:106FB0000FA80D46FEF78EFD864B1B78FBB108F03F
:106FC00099FBFFF7B1FB8449844812F007FD0024C8
:106FD000834982482A2212F015FD22462A2104A85C
:106FE0008DF81040FFF78CFF60B97C4812F0EEFC82
:106FF0007C497A4812F0F2FC784812F0E7FC43B082
:10700000BDE8F08F784904AA29A816F07FF91CA8DA
:10701000FEF760FD2346754929AA20A80DF064FDFE
:107020001CA90FA8FFF7A6F99DF84C304BBB002414
:107030002346802221466E48009412F0B1F96C4834
:1070400012F028F91CA8FEF745FD29AA674940F26D
:10705000016320A80DF048FD1CA90FA8FFF78AF9CD
:107060009DF84C2012BB114600928023604812F01C
:1070700097F95F4812F00EF95E49584812F0AEFCDD
:10708000BDE713A80DF0D6FC5B495448534C12F0F1
:10709000A5FC20460EF0EAFE0028FAD04F480EF07C
:1070A00005FF00F0DF005928A9D1C0E70B233B27DB
:1070B000CDE9013701230394009340F2CF720221FE
:1070C00013A80DF043FD18B94C49444812F086FC52
:1070D0003B230020CDE902300B240123CDE900340D
:1070E00040F2CF72042113A80DF030FD18B94449C5
:1070F0003A4812F073FC3B230022CDE902320B2107
:107100000123CDE9003140F2CF72194613A80DF0EA
:107110001DFD18B93B49314812F060FC3A4BDFF8CD
:10712000F8803A4F002D08BF1D464FF00009B145C9
:1071300037D2A6EB090ABAF10F0FD4BF1FFA8AFAA9
:107140004FF0100A52464B46414629A816F0DEF889
:1071500029A90FA809EB192412F031FC54FA8AF47A
:1071600005EB090BE4B2DA441BF8012B394629A8D8
:10717000144416F0CBF829A90FA812F020FCDA4528
:10718000E4B2F1D16242D2B2394629A816F0BEF873
:1071900009F1100929A90FA812F020FC1FFA89F99A
:1071A000C5E71B490FA812F019FC13A80DF042FC0B
:1071B00008F0FEFA1749094812F010FC00220C48AA
:1071C00000928023114612F0EBF8094812F062F8A1
:1071D00015E700BF6002002046FE0100E44D0020DC
:1071E0005FFE01007CFE010079EF01007443002086
:1071F0004C43002027FB010085FE0100A3FE010097
:10720000BBFE0100D2FE0100630200209FEC0100E2
:107210002EFD0100EAFE01000EFD010000B599B04F
:10722000684604F041FE18B969466020FFF7BCFECD
:1072300019B05DF804FB00B599B0684602F040FB58
:1072400018B969466020FFF7AFFE19B05DF804FB7E
:1072500030B599B0054608F04DFA1F4B1B78002B4E
:1072600038D0FFF761FA1D491D4812F0B7FB1D49E0
:107270001B482A2212F0C6FB00222A2101A88DF801
:107280000420FFF73DFE044660B9154812F09EFB4E
:107290001549134812F0A2FB114812F097FB204643
:1072A00019B030BD114901AA0CA816F02FF8012021
:1072B000FFF7B4FAFFF738FA012229460CA8FFF7C6
:1072C0000DF9044630B90A49054812F087FB094B0D
:1072D0001C70E4E70124E2E760020020FAFE0100EE
:1072E000E44D00205FFE01007CFE010079EF01000B
:1072F00013FF01000400002073B59D480EF042FE0C
:1073000000283DD19B4B1A7812B11870FEF762FF2E
:10731000002480231A4621469748009412F040F832
:10732000954811F0B7FF954B1C70914C20460EF01C
:1073300029FE18B9C82013F011F9F7E74FF4FA70D5
:1073400013F00CF98E4B1B78002B75D000220092A5
:1073500080231146884812F023F8874811F09AFFDD
:10736000FEF742FF18B98749814812F04BFB80486D
:1073700012F02CFBFEF78EFE83497D4812F01FFBB6
:10738000FEF732FF814C237800285AD1002B59D1C7
:1073900077480EF06BFD00287AD075487C4C0EF0D3
:1073A00085FDC1B20D2961D1714812F00FFB734EFA
:1073B000337800252570002B00F09680754C204610
:1073C000FEF7AAFC35702570322800F2B086DFE89F
:1073D00010F0040107010A0110019002AB02C8027B
:1073E000EB0210039803E70309042B04310455044E
:1073F0005C068306AA0615017904B704D7010F02BB
:1074000026025B026B0584059D05B905D305ED05D4
:1074100006061F06FB01BD00F300AC002405440571
:10742000E4040405AE064A063806A400A100A7003D
:107430008100D304730285038022009219461A4604
:1074400088E72BB1FEF738FCFFF7A4FC002323707C
:10745000FFF76AF9464812F0B9FA4B49444812F06E
:10746000AEFA4C49424812F0AAFA91E7082911D124
:10747000424A13784BB1013BDBB21370454A3C489A
:107480000021D154444912F09AFA2378002B8ED16E
:1074900002B070BD21F02003413B192B0BD95F29AD
:1074A00009D0A1F12B03DBB2142BEED83B4A22FA10
:1074B00003F3DB07E9D531480378082BE5D8354AD3
:1074C000D1540133DBB203700020D05428480EF0B1
:1074D000C1FCDAE72A4B1B7823B10E2B10D0FEF744
:1074E00011FF01E0FEF7C4FEFFF71EF9204812F07D
:1074F0006DFA25491E4802B0BDE8704012F05FBA2F
:107500000120FEF7D7FE0028EED1FEF7E7FB04F0DE
:1075100047F8E9E708F092F9E6E7FFF71DF9E3E736
:10752000FEF7DCFBFEF7E2FADEE71D4B1A7832B11C
:1075300000221C490E481A7012F050FAD4E70122BA
:1075400019490B481A7012F049FACDE7174B1A780F
:1075500032B10022164906481A7012F03FFAC3E70A
:107560000122144902481A7012F038FABCE700BF31
:10757000E44D0020754200204C430020464300208B
:10758000600200202BFF0100AAFC010073420020D2
:10759000484300203C4300206FFD0100E17F1000C4
:1075A000D500002087F901007BF901007742002017
:1075B00043FF010094F90100A44B1A7832B1002274
:1075C000A349A4481A7012F009FA8DE70122A249D2
:1075D000A0481A7012F002FA86E7FEF7BDFB83E7B7
:1075E000FEF73CFB80E79B4812F0F0F9FEF752FDF6
:1075F0007AE7FEF761FBFFF7CDFB75E7974CFEF7E7
:107600005BFB237813B9FEF733FE6DE70020FEF72E
:1076100051FE00287FF468AFFEF760FB2378013B42
:107620000D2B3FF65CAFDFE803F00707212121298E
:107630009229449A394D56A50020FFF7EFF8884863
:1076400001F05AF8002000F081FD38B9814812F0AD
:10765000BDF984497F4812F0C1F945E77D4812F031
:10766000B5F981497B4812F0B9F93DE70020FFF7F1
:10767000D5F87B4801F040F80120E4E70020FFF74F
:10768000CDF8774801F038F8042000F05FFD774C22
:107690004BE075496F4812F0A1F925E70020FFF78C
:1076A000BDF86F480121FCF7FFFF0120FCF754FEF5
:1076B000EDE70020FFF7B2F869480121FCF7F4FF7D
:1076C0000520F3E70020FFF7A9F865480121FCF742
:1076D000EBFF0820EAE70020FFF7A0F86048634CC2
:1076E00001F00AF80A2000F031FD2070B0B95948C5
:1076F00012F06CF95E49574812F070F90020FFF75C
:107700008DF857480121FCF7CFFF23780A2053B1A9
:10771000FCF722FE0120FDF781FF0DE04D4812F03D
:1077200055F95449E7E7FCF717FE20700028F1D11E
:107730000120FDF773FF2070464812F047F92378C7
:10774000002BA6D14749434812F048F9CCE6002067
:10775000FFF764F8424800F0CFFF022073E70020F3
:10776000FFF75CF83E4800F0C7FF01214248FCF7F4
:107770009BFF89E741480121FCF796FF0B2095E725
:10778000364B1B78002B3FF43EAF3D4A172101FBDF
:107790000323DB7813B9FEF7B5FDA5E60020FEF75D
:1077A00089FD00287FF4A0AEFEF798FA0120FDF7CE
:1077B00035FF00287FF498AE264812F007F93149CA
:1077C000244812F00BF98FE6244C2378002B3FF469
:1077D0001AAF0020FEF76EFD00287FF485AEFEF79D
:1077E0007DFA23780E2B7FF47AAE04F077FE7BE6E9
:1077F0001A4B1B78002B3FF406AF214A172101FBDF
:107800000323DB78002BC6D00020FEF753FD0028B1
:107810007FF46AAEFEF762FAFDF732FB64E60F4BC7
:107820001B78002B3FF4EFAE154A172101FB032311
:10783000DB78002BAFD00020FEF73CFD00287FF462
:1078400053AEFEF74BFAFDF74BFB4DE676420020B8
:107850005FFF0100E44D00207DFF01006002002079
:10786000630200201201020034010200474300209D
:1078700021010200DF000200630400205C480020B8
:107880006A010200A8FF0100BD4B1B78002B3FF4EA
:10789000BAAEBC4A172101FB0323DB78002B3FF46F
:1078A0007AAF0020FEF706FD00287FF41DAEFEF73C
:1078B00015FAFDF753FC17E6B14B1B78002B3FF48C
:1078C000A2AEB04A172101FB03235B78002B3FF4E3
:1078D00062AF0020FEF7EEFC00287FF405AEFEF755
:1078E000FDF900F073FCA8490246A84812F08AF896
:1078F000FAE5FEF7E1F9A24B1A78002A3FF483AECD
:10790000172353439F4AD35C002B3FF444AF00201E
:10791000FEF7D0FC044600287FF4E6ADFEF7DEF962
:10792000204600F0E9FEDFE5FEF7C6F9944B1B7830
:10793000002B3FF468AE934A172101FB0323DB7849
:10794000002B3FF428AF0020FEF7B4FC04460028CB
:107950007FF4CAADFEF7C2F901212046FCF7A4FE70
:10796000C2E5874B1A78002A3FF44DAE17235343E4
:10797000844AD35C002B3FF40EAF0020FEF79AFC44
:1079800000287FF4B1AD824B1B782BB9FEF7A6F926
:10799000002001F029F8A7E5FEF7BCFC09F0CAFDBC
:1079A00000283FF4A1ADF1E7754B1B78002B3FF4A5
:1079B0002AAE744A172101FB0323DB78002B3FF426
:1079C000EAAE0020FEF776FC00287FF48DAD704B08
:1079D0001B7833B9FEF782F901210020FDF78EF8FC
:1079E00082E5FEF797FC09F0A5FD00283FF47CAD89
:1079F000F0E7634C2278002A3FF405AE1721614D71
:107A00005143695C00293FF4C6AE0D2A3FF4C3AE72
:107A10000020FEF74FFC00287FF466AD5C4B1B781E
:107A2000002B3FD1FEF780FE5A49584811F0C7FF9E
:107A300023785648172202FB0353544DD3F80E10F7
:107A400011F0BDFF5449514811F0C8FF28460EF00F
:107A50000DFA0028FAD04D480EF028FA00F0DF00A9
:107A600059287FF441ADFEF739F92378013B092B02
:107A70003FF635AD01A252F823F000BFB57A000001
:107A8000DF740000BD7A0000BD7A0000BD7A0000FE
:107A9000C57A0000CD7A0000C57A0000DF740000CE
:107AA000D57A0000FEF736FC09F044FD00283FF4CB
:107AB0001BADB7E7002001F0FDF815E5012001F04E
:107AC000F9F811E5042001F0F5F80DE5022001F0C8
:107AD000F1F809E5032001F0EDF805E5284B1B78E6
:107AE000002B3FF4FFAC0E2B7FF4F9AC0120FEF726
:107AF000E1FB00287FF4F8ACFEF7F0F8FDF7F6FEA6
:107B0000F2E41F4C2278002A3FF47DAD0020FEF7FE
:107B1000D1FB00287FF4E8AC1D4B1B783BBBFEF784
:107B200003FE1C49194811F04AFF2378154A1748EB
:107B3000164C172101FB0323D3F80E1011F03FFF61
:107B40001649124811F04AFF20460EF08FF900281E
:107B5000FAD00E480EF0AAF900F0DF0059287FF4A1
:107B6000C3ACFEF7BBF80120FDF784F8BCE4FEF7D8
:107B7000D1FB09F0DFFC00283FF4B6ACCFE700BF33
:107B8000600200206A010200B9FF0100E44D0020FC
:107B900004000020CCFF0100D4FF0100E8FF010039
:107BA000BE4B1A78002A3FF42EAD17235343BC4A2C
:107BB000D35C002B3FF4EFAD0020FEF77BFB0028E9
:107BC0007FF492ACB74B1B7833B1FEF7A3FB09F0FF
:107BD000B1FC00283FF488ACFEF780F8002000F0EC
:107BE000EFFB81E4AD4B1B78002B3FF40CADAC4AAE
:107BF000172101FB0323DB78002B3FF4CCAD0020E1
:107C0000FEF758FB00287FF46FACA64B1B7833B10E
:107C1000FEF780FB09F08EFC00283FF465ACFEF710
:107C20005DF8FCF731FE5FE4FEF746F80120FEF751
:107C3000F5FD59E4994EFEF73FF83378002B3FF4F9
:107C4000E2AC974C17256B43E218D17889B1E35C1D
:107C500053B1FFF72DF838B1337805FB0343B3F880
:107C60000500FEF7DDFE3FE44FF41E70FEF7D8FE80
:107C70003AE4B2F80500FEF7D3FE35E4874E3378D8
:107C8000002B3FF4C0AC864C17256B43E218D1782B
:107C900099B1E35C5BB1FFF70BF840B1337805FBBA
:107CA00003430021B3F80500FEF76CFF1CE400213C
:107CB0004FF41E70FEF766FF16E4B2F80500FEF7FB
:107CC00061FF11E4774B1B780BB1FEF723FB734B7D
:107CD0001B78013B0C2B3FF602AC01A252F823F0BB
:107CE000157D0000DF740000DF740000DF74000009
:107CF000DF740000317D0000317D0000317D000027
:107D0000397D0000317D0000DF7400001D7D000022
:107D1000277D000004F0C0FDFFF7E6BB082007F058
:107D2000E3F8FFF7E1BB0A2007F0DEF8FFF7DCBB62
:107D300005F0CEFBFFF7D8BB05F0CAFCFFF7D4BBBC
:107D4000584B1B781BB1FEF7E5FAFFF7CDBB534B41
:107D50001B780B2B09D8092B03D8033B052B3FF6C7
:107D6000BEAB05F039FEFFF7BFBB0E2B7FF4B7AB00
:107D700005F002F8FFF7B8BBFDF7B0FF474B1B78E3
:107D80000E2B7FF4ACAB0120FEF794FA00287FF4B1
:107D9000ABAB03F0D9FFFFF7A7BB404C2378002B18
:107DA0003FF431AC3E4A172101FB03239B78002BA3
:107DB0003FF4F1AC0020FEF77DFA00287FF494AB8D
:107DC000FDF78CFF23780E2B03D101F06BFAFFF740
:107DD0008BBB04F017FBFFF787BB304C2378002BDD
:107DE0003FF411AC2E4A172101FB03239B78002B93
:107DF0003FF4D1AC0020FEF75DFA00287FF474ABAD
:107E0000FDF76CFF23780E2B03D101F053FAFFF737
:107E10006BBB01F057FAFFF767BB204C2378002BB0
:107E20003FF4F1AB1E4A172101FB03239B78002B83
:107E30003FF4B1AC0020FEF73DFA00287FF454ABCC
:107E4000FDF74CFF23780E2B03D1FEF724FFFFF73D
:107E50004BBBFEF713FFFFF747BB104C2378002BFB
:107E60003FF4D1AB0E4A172101FB03239B78002B73
:107E70003FF491AC0020FEF71DFA00287FF434ABEC
:107E8000FDF72CFF23780E2B03D1FFF7D4F9FFF772
:107E90002BBBFFF7C3F9FFF727BB00BF6002002031
:107EA0006A01020004000020A44B1B78002B3FF461
:107EB000AAABA34A172101FB03239B78002B3FF4B5
:107EC0006AAC0020FEF7F6F900287FF40DABFDF751
:107ED00005FF06F0F5FFFFF707BB984B1B78002B5B
:107EE0003FF491AB964A172101FB03239B78002BAB
:107EF0003FF451AC0020FEF7DDF900287FF4F4AA2E
:107F0000FDF7ECFE06F0E6FFFFF7EEBA8B4B1B78B1
:107F1000002B3FF478AB8A49172202FB03129278B8
:107F2000002A3FF438AC0E2B3FF435AC0020FEF7AE
:107F3000C1F900287FF4D8AAFDF7D0FE02F0C8FAF4
:107F4000FFF7D2BA7D4B1B78002B3FF45CAB7C4A29
:107F5000172101FB03239B78002B3FF41CAC00206E
:107F6000FEF7A8F900287FF4BFAAFDF7B7FE0120AD
:107F700002F0E0FBFFF7B8BA704B1B78002B3FF420
:107F800042AB6F4A172101FB03239B78002B3FF480
:107F900002AC0020FEF78EF900287FF4A5AAFDF7B9
:107FA0009DFE012002F0EAFEFFF79EBA634B1B78AC
:107FB000002B3FF428AB624A172101FB03239B7877
:107FC000002B3FF4E8AB0020FEF774F900287FF4A3
:107FD0008BAAFDF783FE01F049FAFFF785BA574BEC
:107FE0001B78002B3FF40FAB554A172101FB0323ED
:107FF0009B78002B3FF4CFAB0020FEF75BF9002805
:108000007FF472AAFDF76AFE02F04EFFFFF76CBA2A
:108010004A4B1B78002B3FF4F6AA494A172101FB73
:1080200003239B78002B3FF4B6AB0020FEF742F908
:1080300000287FF459AAFDF751FE03F049FEFFF72F
:1080400053BA3E4B1B78002B3FF4DDAA0E2B7FF476
:10805000A2AB0020FEF72EF900287FF445AA03F01A
:108060008FF8FFF741BA354B1B78002B3FF4CBAAB2
:108070000E2B7FF490AB0020FEF71CF900287FF454
:1080800033AA02F0DDFDFFF72FBA2C4EFDF714FEE8
:108090003378002B3FF4B7AA294C17256B43E2181D
:1080A000D17899B1E35C5BB1FEF702FE40B1337861
:1080B00005FB0343B3F80500FFF7CAF8FFF714BA4E
:1080C0004FF41E70FFF7C4F8FFF70EBAB2F80500C0
:1080D000FFF7BEF8FFF708BA184E3378002B3FF4CD
:1080E00092AA174C17256B43E218D178A9B1E35C2B
:1080F00063B1FEF7DDFD48B1337805FB0343002192
:10810000B3F80500FEF750FFFFF7EEB900214FF47A
:108110001E70FEF749FFFFF7E7B9B2F80500FEF75A
:1081200043FFFFF7E1B9FEF739F9FFF7DDB905497C
:10813000054811F053FCFFF7D7B900BF60020020DB
:108140006A010200FFFF0100E44D002010B51A4B48
:108150001B7873B30A2828D8DFE800F01D0617271C
:108160000B272727272722001448BDE8104007F0D7
:1081700063BD1248032108F00FFA04461048002C92
:10818000F3D007F059FD204610BDBDE810400B4864
:10819000022108F001BABDE81040084808F0A2BB6F
:1081A000BDE81040054808F069BC0649064811F0D2
:1081B00015FC0124E7E700BF6002002063020020F5
:1081C000630400204B050200E44D00202DE9F3413B
:1081D000704D2B782BB96FF02906304602B0BDE800
:1081E000F0816D4C172202FB03435B78002BF2D029
:1081F0006A4F3B780BB10BF08FFBFEF769FA50B179
:108200000022674800928023114611F0C9F86448A3
:1082100011F040F8DFE72B7862484FF0170808FBB1
:108220000343597811F0EAFA5E48012111F0E2F8AF
:108230000128064607D05C495C4811F0CFFB59483D
:10824000FCF787F8C7E75748FCF783F829785548C3
:1082500008FB014133464978324611F010FB3B7868
:108260008046ABB10BF048FB0F2012F077F9B8F164
:10827000010F0FD04E494D484A4C11F0AFFB20463C
:1082800011F0B4F80028A6D0204611F0D6F8F6E791
:108290003046EAE7434811F0D0F8C30703D4454914
:1082A000424811F09BFB2B783E484FF0170808FB23
:1082B0000343597811F0A2FA3A48012111F09AF8D3
:1082C000012801D03C49B7E73648002111F092F867
:1082D0000128F7D13348FCF73CF84FF4FA7012F05C
:1082E0003DF92B782F4808FB0343597811F086FAA3
:1082F0002C48002111F07EF8012806469BD1294820
:10830000FCF727F82978274808FB014133464978CC
:10831000324611F0B4FA3B788046A3B10BF0ECFA88
:108320000F2012F01BF9B8F1010F0ED020491F48A1
:108330001C4E11F053FB304611F058F808B330468C
:1083400011F07BF8F7E73046EBE7164811F075F8C7
:1083500046B22B781348172202FB0344617811F0D0
:108360004DFA01210F4811F045F8012801460BD1C3
:108370000C4811F03FF8012806D10A48FBF7E9FF45
:108380002BE76FF02906E4E70C49084811F026FBBB
:10839000F3E700BF600200206A010200794200207A
:1083A0004C4300207C420020A5030200E44D002045
:1083B00062050200C2030200ED0302000204020093
:1083C0002DE9F04FB94DBA4F2B7885B0002818BF72
:1083D0000746002B00F067810024802223462146B7
:1083E000B448009410F0DCFFB248B34E10F052FFD6
:1083F000B249B34811F0E3FA2B78B1484FF01708AF
:1084000008FB0363D3F80E1011F0D9FAAD49AC485C
:1084100011F0E4FA2B780D2B40F0B28096F82B1176
:10842000A94811F0EBF9A848214610F0E3FF012814
:1084300005D1A548214610F0DDFF01281AD0A34937
:108440009F4811F0CBFAA048FBF783FF002280235E
:1084500098480092114610F0A3FF964810F01AFFBA
:108460009B4B1B78002B00F01E8105B0BDE8F04F40
:108470000BF042BA9448DFF850A2DFF844B2FBF7A1
:1084800068FFCDF808802B78029A02FB0363B3F8EB
:108490000530A34240F20281FEF71AF9804660B12E
:1084A0000022844800928023114610F079FF814811
:1084B00005B0BDE8F04F10F0EDBE029B297859439E
:1084C0002022715C0123504611F0D9F920280DD0EB
:1084D00080497B487C4C11F081FA204610F086FFE1
:1084E0000028B3D0204610F0A8FFF6E7504610F061
:1084F0007DFF002830D0504610F09FFF14FA88F21C
:108500005FFA80F917F802C0CC4507EB020308F1C7
:108510000108EBD06A48CDE9022311F057FA6E4901
:10852000674811F04CFA029A6C49654811F06AFAF2
:108530006B49634811F043FA039B1A786949604814
:1085400011F060FA68495E4811F039FA67495C48F1
:108550004A4611F057FAA3E758460DF087FC10B9C8
:108560002034A4B28FE758460DF0A0FC1B28F7D1A9
:10857000534811F02BFA5E49514811F02FFA65E784
:10858000DFF844812B78172202FB0363B3F8053030
:10859000A34240F283804E4B1B780BB10BF0BCF929
:1085A000FEF796F800287FF47BAF2B784FF0170981
:1085B00009FB03F34046F15C41EA142111F01EF976
:1085C000E1B2404610F016FF5FFA80FBBBF1010FED
:1085D00044F3072A7FF433AF4046FBF7BAFE2A780C
:1085E00009FB02F95B4616F809104AEA010110225C
:1085F000C9B2404611F043F9354B1A788146B2B101
:108600000BF07AF90F2011F0A9FFB9F1100F10D07B
:1086100030492B482C4C11F0E1F9204610F0E6FED1
:1086200000283FF413AF204610F007FFF5E7584647
:10863000E9E74FF0000B404610F0D8FE08B3404683
:1086400010F0FBFE14FA8BFA5FFA80F917F80A10A3
:10865000494507EB0A030BF1010BECD018480293D4
:1086600011F0B4F91C49164811F0A9F91B49144836
:10867000524611F0C7F91A49114811F0A0F9029BAE
:108680005BE70F480DF0F2FB10B91034A4B279E7A4
:108690000B480DF00BFC1B28F7D169E7084811F0D7
:1086A00095F9144968E705B0BDE8F08F6002002035
:1086B000630200204C4300206A01020019040200FA
:1086C000E44D0020230402007C4200203504020017
:1086D00079420020620502004B04020055040200AA
:1086E0005A0402009FEC0100640402006E040200C0
:1086F0001AFD0100740402002DE9F04FAB4D2B78F8
:1087000085B0804623B90124204605B0BDE8F08F2E
:10871000FEF70AF8A64FB8F1000F1FD1A549A648E9
:10872000A54C11F04CF92B78A348172202FB0373D8
:10873000D3F80E1011F043F9A0499F4811F04EF9FB
:1087400020460DF093FB0028FAD09B480DF0AEFBBD
:1087500000F0DF005928D6D1DFF88882984800243D
:10876000234680222146009410F01AFE944810F00F
:1087700091FD9449904811F031F92B780D2B40F080
:108780008C8097F82B11904811F038F88E482146CC
:1087900010F030FE012805D18B48214610F02AFE4A
:1087A000012818D08949844811F018F98648FBF748
:1087B000D0FD01240022802381480092114610F050
:1087C000EFFD7F4810F066FD814B1B78002B9BD09E
:1087D0000BF092F898E77C48DFF8EC91FBF7B9FDD5
:1087E0002B784FF0170B0BFB0373B3F80530A34244
:1087F00040F2D380FDF76CFF064650B1002270486E
:1088000000928023114610F0CBFD6D4810F042FD20
:1088100079E72B780BFB03FB202217F80B100123C1
:10882000484611F02CF8202810D06348664C11F00F
:10883000CDF86849604811F0D1F8204610F0D6FD17
:108840000028B6D0204610F0F8FDF6E708EB040B40
:10885000484610F0CBFD06F1010A50B1484610F031
:10886000ECFDB6B25C4B0BF8060000221A705646BF
:10887000EEE751480DF0FAFA10B92034A4B2AFE790
:108880004D480DF013FB1B28F7D14B4811F09EF813
:108890005249494811F0A2F88BE7DFF834914A4E6B
:1088A0002B78172202FB0373B3F80530A34274D967
:1088B00099F800300BB10BF02FF8FDF709FF0028F5
:1088C0009CD12B784FF0170A0AFB03F33046F95C72
:1088D00044F3072341EA1421039310F08FFFE1B220
:1088E000304610F087FD012883467FF45BAF3046A9
:1088F000FBF72FFD2A78039B0AFB02FA304617F894
:108900000A100B43194610225B46C9B210F0B7FF9C
:1089100099F800208246CAB10AF0EEFF0F2011F04C
:108920001DFEBAF1100F13D02348274C11F04EF85A
:108930002849214811F052F8204610F057FD002830
:108940003FF437AF204610F078FDF5E75846E6E7EC
:108950004FF0000A08EB040B304610F047FD0AF117
:108960000102039260B1304610F067FD1FFA8AF3EE
:10897000194A0BF8030000231370039A9246EBE7A1
:108980000D480DF073FA10B91034A4B288E70A4804
:108990000DF08CFA1B28F7D177E7074811F016F88D
:1089A0000F49054811F01AF8002403E7600200207F
:1089B0006A010200B2E90100E44D00207F040200D8
:1089C0004C4300209A0402007C420020350402003F
:1089D0007942002062050200040000201AFD010017
:1089E00074EA0100630200202DE9F04FA14BA24D73
:1089F000071E08BF98462B7885B018BFB846002BD5
:108A000000F03581FDF790FE9C499D489D4E9C4CA1
:108A100010F0E4FF9C499A4810F0E0FF984810F0ED
:108A2000D5FF9A49964810F0CAFF2B789448172230
:108A300002FB0363D3F80E1010F0C1FF9449904875
:108A400010F0CCFF20460DF011FA0028FAD08C4827
:108A50000DF02CFA00F0DF00592840F008810024C6
:108A60002346802221468B48009410F099FC8948C7
:108A700010F010FC8849824810F0B0FF2B780D2BC5
:108A800040F0858096F82B11844810F0B7FE83489B
:108A9000214610F0AFFC012805D18048214610F096
:108AA000A9FC01281AD07E49754810F097FF7B4831
:108AB000FBF74FFC0022802376480092114610F00D
:108AC0006FFC744810F0E6FB764B1B78002B00F02F
:108AD000CE8005B0BDE8F04F0AF00EBFDFF8BCA1B4
:108AE000DFF89CB14FF017092B7809FB0363B3F84B
:108AF0000530A34240F2B080FDF7EAFD60B10022EC
:108B0000644800928023114610F04AFC614805B089
:108B1000BDE8F04F10F0BEBB2B7809FB036308EBF8
:108B20000401DA79504610F077FC03905046FBF7C9
:108B300010FCFDF7CDFD0028E1D15046FBF709FC04
:108B4000012011F00BFD2B78039A09FB0363DB79FD
:108B5000934204D054494A4810F040FFAAE75846CF
:108B60000DF084F930B92B7809FB0363DB791C44E1
:108B7000A4B2B9E758460DF099F91B28F3D1404843
:108B800010F024FF49493E4810F028FFB7E7DFF80E
:108B900014A1DFF808912B78172202FB0363B3F8C6
:108BA0000530A34258D99AF800300BB10AF0B4FE50
:108BB000FDF78EFD0028A2D12B784FF0170B0BFB91
:108BC00003F34846F15C41EA142110F017FEE1B2CC
:108BD000484610F00FFCC0B201287FF464AF2B7838
:108BE0000BFB036308EB0401DA79484610F014FC30
:108BF00083464846FBF7ADFB9AF800300BB10AF00C
:108C00008BFEFDF765FD00287FF479AF4846FBF742
:108C1000A0FB9AF80030BBB10AF06EFE0F2011F0F5
:108C20009DFC2B78172202FB0363DB795B4591D116
:108C300013480DF01BF948B92B78172202FB036388
:108C4000DB791C44A4B2A6E70120E8E70C480DF04C
:108C50002DF91B28F0D192E7094810F0B7FE14490E
:108C6000074810F0BBFE3846FFF7AAFB22E705B025
:108C7000BDE8F08F6302002060020020AB04020018
:108C8000E44D00206A010200E704020000EB01004D
:108C90001B0502004C4300202A0502007C420020F4
:108CA000350402007942002010E901001AFD01009C
:108CB0003C05020010B5164B1B78ADF5804D84B015
:108CC000044603B36846FFF717FDE0B9022C12D043
:108CD000042C08D0012C12D1694606F08DFE68469E
:108CE000FFF782FE0FE0684606F028FF58B9694694
:108CF0004FF40070F1E7684606F020FFEFE7054902
:108D0000054810F06BFE0DF5804D04B010BD00BF9E
:108D1000600200204B050200E44D0020037813F0B0
:108D200008031EBFC36940691B1A002BACBF18465D
:108D30006FF000407047000013B502220C4610305F
:108D400001A90BF0FCFB02280BD00C490C48224671
:108D500010F058FE0B490A4810F040FE002002B007
:108D600010BD9DF804303A2B05D00749044822462F
:108D700010F048FEF2E70120F1E700BF9211020077
:108D8000E44D0020FB1102006C05020037B5294BB1
:108D90001B788DF8003000230C46ADF8013000F14F
:108DA00010050122694628460BF0C9FB012802463E
:108DB0000CD021492148224610F024FE20491F48AA
:108DC00010F00CFE6FF0010003B030BD9DF80030D4
:108DD000202BE6D00A2B2AD00DF1010128460BF0FA
:108DE000AEFB0128E5D19DF80030A3F13002092A3D
:108DF00004D923F02003413B052B08D89DF801300E
:108E0000392B0AD923F02003413B052B05D90D4905
:108E10000A48224610F0F6FDD4E76FF001030A4934
:108E2000019301AA684614F091FA0198CCE74FF03B
:108E3000FF30C9E71011020092110200E44D00203A
:108E4000131102009B050200B80502002DE9F34151
:108E50000D4600F1100601220DF1070130460BF01E
:108E60006EFB01280ED0214921482A4610F0CAFD88
:108E700020491F4810F0B2FD6FF00104204602B0F7
:108E8000BDE8F0819DF80730202BE4D00A2B06D1F5
:108E9000164917482A4610F0B5FD1749E9E7072794
:108EA00000244FF00A089DF80730A3F13002092A88
:108EB00005D912492A460E4810F0A4FDDCE7013F0F
:108EC00002D10F492A46F6E701220DF1070130468B
:108ED00008FB04340BF033FB0128A4F13004C2D1A9
:108EE0009DF807300A2BDED1C8E700BF92110200BF
:108EF000E44D002013110200BB050200C905020069
:108F0000E20502002DE9F743174600F11004804600
:108F10000D4601223946204699460BF010FB0128E8
:108F20000ED03D493D482A4610F06CFD3C493B4877
:108F300010F054FD4FF0FF34204603B0BDE8F0833D
:108F40003A78432A0CD008D83B2A0FD03549334809
:108F50002B463A4610F056FDECE7573A012AF5D871
:108F600029464046FFF7E8FE0028E3D03B78572B20
:108F70002CD01AD83B2B1CD0432B4FF00004DBD154
:108F800029464046FFF702FF831C0646D2D0002840
:108F900022DB292C1CDD204920482A4610F032FD16
:108FA00021491E4810F02EFDC4E7582B2DD0002477
:108FB000C2E701220DF1070120460BF0C0FA01289B
:108FC000AFD19DF807300A2BF3D1F0E70024D7E7A3
:108FD00009F804000134D3E70136D1D13B78432BA3
:108FE00008D1022CA8DC0C490C482A4610F00AFDD6
:108FF0000E499CE7572B9FD1022C9DDC0649074860
:109000002A4610F0FFFC0A4991E729464046FFF73F
:109010001DFF40EAE0748FE792110200E44D00204A
:10902000FB1102002D11020069110200FF05020070
:109030001B0602002DE9F047AAB08846019004A85B
:10904000FCF748FD11A8FCF745FD0023019A3F49B4
:1090500015A80BF049FD11A904A8FDF78BF99DF89F
:10906000203023B93A493B4810F0B8FC39E00025DC
:10907000DFF8F890DFF8F8A02F462C4601260023F1
:10908000642211A908A80BF021FB002857DD9DF8E8
:109090004430502B11D00BD80A3BDBB2192B09D826
:1090A000012202FA03F313EA0A0F03D00136E6E7BE
:1090B000542B2BD02849324638E0002DFAD103AB8F
:1090C00002AA49460DF1450014F040F90228F1D1F9
:1090D000312C0CDD21491F4810F080FC08A80BF052
:1090E000A9FC4FF0FF3420462AB0BDE8F087029B70
:1090F00028F82430039B08EB84021F44B7F5FA6F6D
:10910000538004F10104D1DD1549E4E7002DD1D1EC
:1091100003AB02AA49460DF1450014F017F90228E5
:10912000C8D1029BA34205D00E493246094810F02F
:1091300069FCD3E7039BBB42F6D10125B6E708A83B
:109140000BF078FC002DCED107498CE7744300204A
:10915000E4110200E44D00204F1102003E0602001F
:10916000560602006B0602008A060200350602005F
:109170000900000270B5041E1ADA1649164810F0EC
:109180001EFC002CB8BF64420A22A4B21248B4FBF1
:10919000F2F5294610F08AFC10490F4810F00FFC38
:1091A0000A2202FB1541BDE870400B4810F080BC5C
:1091B0000A26324694FBF6F50748294610F076FC5D
:1091C0000649054810F0FBFB06FB1541324609B283
:1091D000E9E700BF8D3B0200E44D0020A904020036
:1091E0002DE9F0470446050AC0F3072AC0B22DED69
:1091F000028B803813F04CF89FED250B41EC110BDE
:1092000011F056FDC4F3074057EC106B13F040F813
:10921000214B002213F0A6F880464AF080008946D0
:1092200013F036F81D4B002213F09CF813F06AFB84
:1092300013F040F802460B464046494612F0DCFE69
:1092400013F060FB240E07EE904A07EE100AF8EECA
:10925000677A77EE877A17EE900A13F02BF8104BA7
:10926000002213F07FF813F04DFB394608EE100A88
:10927000304613F047FB07EE900A27EE880ABDEC54
:10928000028B2B0648BFB1EE400ABDE8F08700BF55
:109290000000000000000040000070400000F040AE
:1092A0000000703E0149024810F098BB9C06020085
:1092B000E44D00200149024810F090BBB9060200BD
:1092C000E44D00200149024810F088BBDA06020094
:1092D000E44D00202DE9F043202A8BB0154607D934
:1092E0002E492F4810F07AFB00200BB0BDE8F08328
:1092F000C4B2000A3E238DF8020020448DF80140DC
:109300008DF80030C4B20DF103024819814206D035
:1093100011F8013B02F8013B1C44E4B2F6E7DFF828
:109320009490204F99F800301F484FF0170808FB21
:109330000373EE1C997810F061FA1B4832466946B7
:1093400010F06AF8B04207D01849154810F046FBF3
:109350001548FAF7FEFFC7E71348FAF7FAFF60234C
:109360008DF8003099F800300F4808FB03772A1D6C
:10937000B9788DF80220E4438DF8014010F03EFAF0
:1093800009480322694610F047F8032801D008492C
:10939000DBE70548FAF7DDFF0120A6E7F706020044
:1093A000E44D00206A0102007C4200201507020003
:1093B0002A07020060020020F0B5254F3A7885B0F8
:1093C0004AB1244E172101FB026292782AB9224940
:1093D000224810F003FB012434E0214D2B780BB11F
:1093E0000AF09AFAFDF774F90446F8B93B788DF85B
:1093F00004000E2B14BF202230228DF805201722E6
:1094000002FB03638DF806009978164810F0F6F910
:109410001448032201A90FF0FFFF032808D01249C6
:109420000E4810F0DBFA0F48FAF793FF012402E030
:109430000C48FAF78EFF2B783BB10AF05DFA0F204B
:1094400011F08CF8204605B0F0BD0120F8E700BF10
:10945000600200206A010200D6110200E44D0020E3
:10946000794200207C4200204007020008B5FFF747
:10947000A3FF28B9BDE808400249034810F0AEBA7E
:1094800008BD00BF53070200E44D00202DE9F04F56
:10949000774A784E00238DB01370337802924BB127
:1094A000754F172202FB03739B782BB973497448DD
:1094B00010F094FA01251EE0724B1A7899460AB111
:1094C0000AF02AFAFDF704F90446C0B1012500228A
:1094D00080236D48009211460FF062FF6A480FF03A
:1094E000D9FE99F80030002B00F0BF800AF004FA92
:1094F0000F2011F033F828460DB0BDE8F08F034679
:1095000001468022009060480FF04AFF5E480FF04D
:10951000C1FE33785D48ADF81040172202FB03739B
:109520008DF81240997810F069F95848032204A97F
:109530000FF072FF032807D05549514810F04EFA3A
:109540005248FAF706FFC1E75048DFF840A1FAF7A2
:1095500000FF99F8003043B30AF0CEF90F2010F065
:10956000FDFF0AF0D9F9C4F13E08B8F11F0FD4BFCE
:109570005FFA88F84FF02008FDF7AAF805460028A2
:10958000A4D133788DF810404FF0170B0BFB037309
:109590005046997810F032F9012204A950460FF094
:1095A0003BFF012805D03B49C7E7012010F0D6FF5B
:1095B000D9E703905046FAF7CCFE3278039B0BFBB9
:1095C000027B50469BF80210424610F058F9804545
:1095D000834611D02A482D4C10F0F8F92E4928481E
:1095E00010F0FCF920460FF001FF00283FF46EAFA9
:1095F00020460FF022FFF5E7284B04EB030808EBA9
:1096000000039845039306D050460FF016FF039BC6
:1096100008F8010BF5E75C44E4B23D2C99D9204AE7
:10962000B2F89A32A3F5FE6189B240F2A460814299
:109630001C4907D94FF6BA730B8011481A4910F02C
:10964000CDF943E7A3F6AC231BB20A2093FBF0F35A
:109650000B80B2F8C212B2F8C432144A43EA014392
:109660001360029A0123137031E7012041E700BF24
:1096700064430020600200206A010200D61102004B
:10968000E44D0020794200204C4300207C42002021
:109690006E0702008D070200CC110200F04A002084
:1096A0005C480020D8000020A40702006C43002082
:1096B0002DE9F04F8DB006460F469046FDF708F8AD
:1096C0000546002840F08380DFF8B8B1644C9BF871
:1096D000003064484FF0170A0AFB03434FEA16298B
:1096E000997810F08BF85F488DF80C50032203A98D
:1096F0008DF80D608DF80E900FF08EFE03280AD0C5
:1097000059495A4810F06AF95648FAF722FE284695
:109710000DB0BDE8F08F5348FAF71BFE012010F0A2
:109720001DFFFCF7D5FF0028F1D13E238DF80C304A
:109730009BF800304B480AFB0343997810F05EF821
:109740004848012203A90FF067FE012801D04849CB
:10975000D7E701904348FAF7FCFDFCF7B9FF002872
:10976000D5D19BF80020019B3E480AFB02442422ED
:10977000A17810F084F82428044610D03B48394CD6
:1097800010F024F93B49394810F028F920460FF031
:109790002DFE0028BBD020460FF04FFEF6E7DFF885
:1097A000C4A003AD50460FF048FE013C14F0FF0486
:1097B00005F8010BF6D19DF82F506B1F1F2B08D910
:1097C0002A4810F003F92C49284810F0F8F8002531
:1097D0009DE79DF82E300133DBB2A91EE2B28A422A
:1097E00004F1010406DA0CA8024412F8242C1344F4
:1097F000DBB2F3E73BB11D4810F0E8F81F491B4806
:1098000010F0ECF8E3E79DF80C20F6B2B24212D16A
:109810009DF80D204A450ED10DF10E02281F9842E9
:109820007FF775AFD9B288457FF671AF12F8011B8B
:10983000F9540133F3E70D4810F0C8F810490B480C
:1098400010F0CCF89DF80C100848102210F049F9DF
:109850009DF80D100548102210F043F9B7E700BF3E
:109860006A0102007C420020B0070200E44D0020A3
:10987000D1070200CC110200ED070200000802002F
:10988000150802006002002007B5802301220DF1B7
:10989000070144F28C108DF80730FFF709FF40B93B
:1098A0000549064810F09AF84FF0FF3003B05DF814
:1098B00004FB9DF80700F9E72E080200E44D0020A4
:1098C00010B50146044620227020FFF7F1FE202249
:1098D000A1187A20FFF7ECFE202204F140017B2042
:1098E000FFF7E6FE002010BD2DE9F04F6A496B4AF4
:1098F000002387B00B70137802910546904653B150
:109900006749172202FB0312894692782AB96549F2
:10991000654810F063F8012415E00E2B01D063496F
:10992000F6E7FCF7D5FE044688B101240022604822
:109930000092802311460FF033FD5D480FF0AAFC22
:10994000012010F00BFE204607B0BDE8F08F034663
:109950000146009080225648DFF85CA10FF020FD00
:1099600053480FF097FC2646012010F0F7FD98F8B9
:1099700000308DF814604FF0170B0BFB0393C6F10A
:1099800070071F2F99785046D4BFFFB220270FF0E1
:1099900035FF012205A950460FF03EFD012807D0F2
:1099A0004449414810F01AF84348FAF7D2FCBCE7A2
:1099B00003905046FAF7CDFC98F80020039B0BFB70
:1099C000029B50469BF802103A460FF058FF874220
:1099D00083460DD1AB190027FAB29345039318D9EA
:1099E00050460FF02AFD039B013703F8010BF3E704
:1099F0002D48314C0FF0EAFF30492B480FF0EEFFB5
:109A000020460FF0F3FC00288FD020460FF015FD04
:109A1000F6E75E44F6B26F2EA6D9EA79AB79284E06
:109A200043EA0223A3F5FE6292B240F2A4608242AE
:109A300007D94FF6BA73234933801B480FF0CEFF86
:109A400073E7A3F6AC2212B295F828300A2192FBF4
:109A5000F1F2328095F8292043EA0223A3F5FE6251
:109A600092B28242184A04D94FF6BA73174913804A
:109A7000E3E7A3F6AC231BB2562093FBF1F31449A2
:109A800013800422FFF714FE00283FF44EAF029A21
:109A9000012313704AE700BF6443002060020020E6
:109AA0006A010200D6110200E44D00204B080200BA
:109AB0004C4300208D0702007C420020CC110200A4
:109AC000D8000020A4070200D60000205A08020097
:109AD000454C00202DE9F041704D00232B70704B58
