:100000000C94B6160C94E7160C94E7160C94E716AD
:100010000C94E7160C94E7160C94E7160C94E7166C
:100020000C94E7160C94E7160C94E7160C94E7165C
:100030000C94E7160C94E7160C94E7160C94E7164C
:100040000C94E7160C94E7160C94E7160C94E7163C
:100050000C94E7160C94E7160C94E7160C9447489A
:100060000C94E7160C94D7560C94AE560C94E716E5
:100070000C94E7160C94E7160C94E7160C94E7160C
:100080000C94E7160C94E7160C94E7160C94E716FC
:100090000C94E7160C94E7160C94E7160C94914810
:1000A0000C94E7160C94E7160C94E7160C94E716DC
:1000B0000C94E7160C94E7160C94E7160C94E716CC
:1000C0000C94E7160C94E7160C94E7160C94E716BC
:1000D0000C94E7160C94E7160C94E7160C94E716AC
:1000E0000C94E7165618521958196019D41CF21CB2
:1000F0000B1D311D461DBA1DCF1DF41D131E1C1EE8
:10010000D01E55216C218721DC19DC1E3720531CA1
:10011000771C961CB51CBA20D920F820172136214F
:10012000C91B3D1824187C209B203E205D20901781
:10013000C817FF19191A191A191A331A8C1B331AEE
:100140008D1AA61B6C1A521A6C1AED1BFD1BFD1B97
:10015000FD1B0D1C311C0D1CEB23411CEB23211C32
:10016000EB23A31DA71DA71DA71DAB1DAF1DAB1D19
:10017000B71DB31D8039953992398C398F3986393D
:1001800089398339E854EB54DA54DE54E454225567
:10019000EF54F354F954FD54015507550B550F55C1
:1001A0002255155519551D5507634236B79BD8A7DB
:1001B0001A39685618AEBAAB558C1D3CB7CC57638C
:1001C000BD6DEDFD753EF6177231BF000000803F3A
:1001D00008000000BE922449123EABAAAA2ABECD56
:1001E000CCCC4C3E00000080BEABAAAAAA3E0000C8
:1001F0000000BF000000803F0000000000084178C0
:10020000D3BB4387D1133D190E3CC3BD4282AD2BF6
:100210003E68EC8276BED98FE1A93E4C80EFFFBEEE
:1002200001C4FF7F3F00000000006364696E6F70CF
:10023000737578585B004E616D652020202020206A
:1002400020204461746520202020202020202020B0
:1002500020202020202020202020202053697A6583
:100260000053442069732077726974652070726F3F
:100270007465637465642100506C65617365206901
:100280006E7365727420616E2053442063617264E2
:100290002066697273742100476173206761756716
:1002A0006520686173206265656E20726573657490
:1002B00021004572726F722073656E64696E6720EB
:1002C000726573657400526573657420676173208D
:1002D00067617567653F2041524520594F5520534E
:1002E0005552453F3F3F2028792F6E293F004E6FE2
:1002F000206761732067617567653F004261642014
:100300007265616421004572726F72207365747446
:10031000696E67207265672072656164004572725C
:100320006F722073657474696E67206374726C2FCA
:100330007374617475732072656164004572726FC5
:10034000722073657474696E672068696265726E85
:10035000617465005365742046554C4C534C4545BB
:1003600050206269742028792F6E293F004E6F203B
:100370006761732067617567653F005365636F6EE2
:1003800064732073696E6365206669727374207587
:1003900073653A2000426164207265616421004502
:1003A00072726F722073657474696E67207265670C
:1003B0002072656164004572726F72207365747497
:1003C000696E67206374726C2F7374617475732027
:1003D00072656164004572726F722073657474692E
:1003E0006E672068696265726E617465004572723D
:1003F0006F722073657474696E67206869626572D4
:100400006E61746500507574206761732067617553
:10041000676520696E746F2068696265726E6174C9
:10042000652028792F6E293F004E6F206761732069
:1004300067617567653F00250025202020437269AC
:10044000746963616C3A200025202020566572791A
:10045000204C6F773A20006D6148722020204C6F4D
:10046000773A200043617061636974793A20002F04
:10047000002F0020202044617465204D6164653A9E
:10048000200053657269616C204E756D3A200045FD
:100490007874656E6465642050617274206E756D49
:1004A0006265723A20003F3F3F00205265763A0075
:1004B0002D0053796D626F6C2050617274206E75DF
:1004C0006D6265723A2000466F726D6174205265EC
:1004D000763A20004E6F2076616C6964205050207F
:1004E0006461746120746F2073686F7700446F6E6D
:1004F0006520776974682066696C65206C6F61643B
:100500002E00426164207265636F7264207479709A
:1005100065004552524F523A2041646472657373CC
:10052000207061737420656E64206F662070617244
:1005300074210042616420636865636B73756D00AC
:10054000204279746573005265636F7264203E20A7
:100550000053746F707065642062792075736572E2
:10056000210053656E642066696C65206E6F772C80
:100570002045534320746F2063616E63656C2E2E9B
:100580002E00506173736564004661696C65640098
:10059000436865636B73756D206572726F72206955
:1005A0006E204A4549544120646174610043686586
:1005B000636B73756D206572726F7220696E20684F
:1005C00065616C7468206461746100436865636B85
:1005D00073756D206572726F7220696E20313732CB
:1005E00035206461746100436865636B73756D20C9
:1005F0006572726F7220696E2073746172747570A7
:1006000020766F6C7461676500436865636B737512
:100610006D206572726F7220696E20636861726707
:10062000657220636F6E74726F6C20646174610018
:10063000436865636B73756D206572726F722069B4
:100640006E207365636F6E642061676772656761B2
:1006500074652063686172676520626C6F636B000C
:10066000436865636B73756D206572726F72206984
:100670006E20666972737420616767726567617462
:10068000652063686172676520626C6F636B00430D
:100690006865636B73756D206572726F7220696E29
:1006A00020646174612066726F6D20302D3139399C
:1006B00000436865636B205143205050206461748F
:1006C000613A200008200800426174746572792044
:1006D00074797065206E6F74206368616E676564FD
:1006E00021004E6F7420612076616C69642063681C
:1006F0006F6963652C206261747465727920747906
:100700007065206E6F74206368616E676564210098
:1007100053656C65637420626174746572792074CA
:100720007970653A20003F20202D2068656C70208C
:100730006D656E75005354415420202D2053686F11
:10074000772063757272656E74207374617475734B
:100750000056455242202D20546F67676C65207605
:100760006572626F7365206D6F6465005645522037
:10077000202D2053686F772076657273696F6E2025
:10078000696E666F726D6174696F6E0044495220C4
:10079000202D204469726563746F7279206F662022
:1007A0005344206361726400534620202D2053611E
:1007B00076652062756666657220746F2066696C66
:1007C00065206F6E2053442063617264004C4620A4
:1007D000202D204C6F616420612068657820666957
:1007E0006C652066726F6D207468652053442063C9
:1007F00061726400445320202D2044756D70206286
:100800007566666572206F76657220746865207300
:10081000657269616C20636F6E6E656374696F6E7B
:10082000206173206865782066696C65004C5320F0
:10083000202D204C6F6164206865782066696C65A6
:10084000206F766572207468652073657269616CCB
:1008500020636F6E6E656374696F6E20696E746F6E
:1008600020627566666572004520202D2045726104
:10087000736520627566666572005645202D2056A8
:100880006572696679206261747465727920454584
:1008900050524F4D20616761696E737420627566B6
:1008A000666572005545202D205570646174652081
:1008B0006261747465727920454550524F4D2066CF
:1008C000726F6D20627566666572005745202D2037
:1008D0005772697465206261747465727920454548
:1008E00050524F4D2066726F6D206275666665725C
:1008F000005245202D205265616420626174746548
:10090000727920454550524F4D20696E746F2062B8
:100910007566666572005641202D205665726966BF
:1009200079206261747465727920417574682063FE
:10093000686970206461746120616761696E7374B5
:1009400020627566666572005541202D20557064E1
:100950006174652062617474657279204175746890
:10096000206368697020646174612066726F6D2015
:10097000627566666572005741202D205772697452
:1009800065206261747465727920417574682063B2
:1009900068697020646174612066726F6D20627591
:1009A00066666572005241202D20526561642062A6
:1009B0006174746572792041757468206368697028
:1009C000206461746120696E746F2062756666656B
:1009D000720041202D20436865636B20626174744E
:1009E0006572792061757468656E74696361746994
:1009F0006F6E206368697000564244202D20566156
:100A00006C696461746520626174746572792064D4
:100A10006174610053474746202D2053617665205D
:100A200047617320476175676520466C6173682074
:100A30006461746120696E206865782066696C6500
:100A40000044474746202D2044756D702047617350
:100A500020476175676520466C6173682064617426
:100A60006100524747202D2052657365742047610D
:100A7000732047617567650046534747202D205313
:100A800065742046554C4C534C4545502062697462
:100A900000484747202D2050757420476173204738
:100AA0006175676520696E746F2068696265726E32
:100AB000617465206D6F64650044474748202D20B0
:100AC000446973706C617920476173204761756771
:100AD000652072656769737465727320696E20683A
:100AE000657800444747202D20446973706C617914
:100AF0002047617320476175676520726567697378
:100B000074657273004450502B202D20446973701B
:100B10006C61792050502B20626174746572792069
:100B20006461746100445050202D20446973706CDE
:100B3000617920505020626174746572792064611B
:100B40007461004D42202D204D616E7566616374A5
:100B500075726520426174746572790042202D209F
:100B600053656C6563742062617474657279207476
:100B70007970650043757272656E746C7920417688
:100B800061696C61626C6520436F6D6D616E647349
:100B90003A003E2000556E6B6E6F776E20636F6D6E
:100BA0006D616E64002061757468206368697020EF
:100BB000646174612028792F6E293F00557064614B
:100BC0007465200020454550524F4D20646174618A
:100BD0002028792F6E293F005570646174652000CC
:100BE000417574682063686970206973204F4B21D8
:100BF000004261747465727920697320646F6E6558
:100C000021004261747465727920697320646F6E8B
:100C10006521004261747465727920697320646F84
:100C20006E65210042617474657279206973206475
:100C30006F6E65210042617474657279206973205A
:100C4000646F6E6521004261747465727920697306
:100C500020646F6E65210042617474657279206949
:100C600073204F4B2100426174746572792069735F
:100C7000204F4B21004261747465727920697320A2
:100C80004F4B210042617474657279206973204F63
:100C90004B210042617474657279206973204F4B57
:100CA000210042617474657279206973204F4B2171
:100CB0000042617474657279206973204F4B210082
:100CC00042617474657279206973204F4B2100571B
:100CD00061726E696E673A204E6F7720736B697030
:100CE00070696E67206C6F7720766F6C74616765D2
:100CF00020636865636B21004E6F7720646F696EB7
:100D000067206C6F7720766F6C746167652063680D
:100D100065636B00566572626F73653A204F6E00B3
:100D2000566572626F73653A204F666600446F6E57
:100D3000652C2072656D6F766520626174746572D2
:100D4000792C2068697420616E79206B6579207731
:100D500068656E20646F6E6500446F696E67206918
:100D60006D70726F70657220454550524F4D207303
:100D7000687574646F776E00446F6E652C207265C1
:100D80006D6F766520626174746572792C20686974
:100D90007420616E79206B6579207768656E2064B8
:100DA0006F6E6500446F696E672070726F70657258
:100DB00020454550524F4D2073687574646F776EAF
:100DC000000820080052656164204F4B21004261F9
:100DD0006420736C6F743820726561643A2000522D
:100DE000656164696E6720736C6F74382064617428
:100DF000613A200020417574682063686970206939
:100E00006E746F206275666665722028792F6E2970
:100E10003F005265616420004F4B004572726F7253
:100E20002061743A2000436865636B696E673A20FD
:100E3000004F4B0042616420736C6F743820726500
:100E400061643A200052656164696E6720736C6F5B
:100E5000743820646174613A20004572726F7220A8
:100E6000696E20777269746520736C6F74004352E9
:100E700043206572726F72206F6E20736C6F7420E6
:100E80007772697465004661696C656420746F20CF
:100E900067657420777269746520736C6F74207253
:100EA0006573706F6E6365004661696C656420747C
:100EB0006F2073656E6420777269746520736C6F40
:100EC0007420636F6D6D616E64004F4B00577269E3
:100ED00074696E6720736C6F743820646174613A52
:100EE00020002028792F6E293F004F766572777297
:100EF0006974652000496E76616C696420534E21E7
:100F000000435243206572726F72206F6E20736CC3
:100F10006F742072656164004661696C6564207459
:100F20006F207265616420736C6F74004661696C38
:100F3000656420746F2073656E642072656164203F
:100F4000736C6F7420636F6D6D616E640043524308
:100F5000206572726F7220696E2072616E646F6DAF
:100F600020726573706F6E6365004661696C6564BD
:100F700020746F206765742072616E646F6D2072DB
:100F80006573706F6E6365004661696C656420749B
:100F90006F2073656E642052616E646F6D20636FA5
:100FA0006D6D616E64004261642073696721004366
:100FB0005243206572726F7220696E207665726985
:100FC000667920726573706F6E6365004661696C47
:100FD000656420746F206765742076657269667930
:100FE00020726573706F6E6365004661696C65643D
:100FF00020746F2073656E6420566572696679206F
:10100000636F6D6D616E640042616420436F6E6654
:1010100069672061742000436F6E666967206172A2
:10102000656120756E6C6F636B65642121210044DE
:10103000617461206172656120756E6C6F636B65B0
:10104000642121210042616420436F6E666967203C
:101050006174200001230000000000000000000077
:10106000DE000100D0005506830FC4448720C4442D
:101070008F0F8F8F9F8F82200F0F0F8F0F8F0F8FEC
:101080000F8F0F0F0F0F0F0FFFFFFFFF000000006C
:10109000FFFFFFFF00000000FFFFFFFFFFFFFFFF5C
:1010A000FFFFFFFFFFFFFFFF00000000FFFF00004A
:1010B0000000000013005C0013005C003C001C00FA
:1010C0001C0033003C0010001C0010001C003C0001
:1010D0003C003C0042616420534E00436865636BF2
:1010E00020636F6E66696720617265613A20004512
:1010F00072726F7220696E206E6F6E636520636F0F
:101100006D6D616E6400435243206572726F722090
:10111000696E206E6F6E636520726573706F6E63AB
:1011200065004661696C656420746F206765742092
:101130006E6F6E636520726573706F6E63650043DA
:101140005243206572726F7220696E207369676EF8
:1011500020726573706F6E6365004661696C6564CB
:1011600020746F20676574207369676E20726573E1
:10117000706F6E636500435243206572726F722018
:101180006F6E20736C6F74207265616400466169D4
:101190006C656420746F20676574207265616420DB
:1011A000736C6F7420726573706F6E636500466157
:1011B000696C656420746F2073656E64207265616C
:1011C0006420736C6F7420636F6D6D616E64004397
:1011D0005243206572726F72004661696C656420CB
:1011E000746F207265616420636F6E666967206149
:1011F000726561004661696C656420746F20736577
:101200006E64207265616420636F6E666967206337
:101210006F6D6D616E64004572726F7220777269D6
:1012200074696E67206461746100556E73757070C7
:101230006F727465642064617461207479706521D3
:10124000005369673A00426164207369676E696E92
:101250006700486173683A00446576696365207386
:1012600069673A0044657669636520507562204B72
:101270006579005369676E65722073696700536909
:10128000676E6572207075626C6963206B657900AA
:101290005265763A0053657269616C3A0050617329
:1012A00073656400426164207369676E696E6700EC
:1012B000436865636B206465766963652070726955
:1012C00076617465206B65793A20005061737365AF
:1012D0006400436865636B206465766963652070AC
:1012E00075626C6963206B65793A20005061737395
:1012F000656400436865636B207369676E6572207F
:101300007075626C6963206B65793A200050617377
:10131000736564004B6576696E205635004545500F
:10132000524F4D2050726F6772616D6D657220561D
:10133000657273696F6E2000426561737420417538
:10134000746800426561737420454550524F4D00EA
:1013500053656E74727920417574680053656E74BC
:10136000727920454550524F4D004861776B657941
:10137000652F544332300046616C636F6E00506FCE
:101380006C6C75780049726F6E4D616E00467265C7
:101390006E7A792F57543630303000526F7567654A
:1013A0002F544338303030004D4331382050502BCB
:1013B000004D504132205050004E6F2042617474F5
:1013C0006572790042616420726561642100457232
:1013D000726F722073657474696E67207570206215
:1013E0006C6F636B2072656164004572726F72206E
:1013F00077726974696E67206D616E6620626C6FCA
:10140000636B4320636F6D6D616E640042616420A5
:101410007265616421004572726F72207365747425
:10142000696E6720757020626C6F636B20726561F6
:1014300064004572726F722077726974696E6720FA
:101440006D616E6620626C6F636B4220636F6D6DC1
:10145000616E6400426164207265616421004572BE
:10146000726F722073657474696E67207570206284
:101470006C6F636B2072656164004572726F7220DD
:1014800077726974696E67206D616E6620626C6F39
:10149000636B4120636F6D6D616E64004261642017
:1014A0007265616421004572726F7220777269748F
:1014B000696E672064657369676E2063617020637D
:1014C0006F6D6D616E6400426164207265616421BC
:1014D000004572726F722077726974696E67206D51
:1014E000616E6620494420636F6D6D616E640042D9
:1014F0006164207265616421004572726F722073AD
:10150000657474696E672075702076657273696F93
:101510006E20747970652072656164004572726F27
:10152000722077726974696E6720676574207665CA
:101530007273696F6E20636F6D6D616E64004261DE
:1015400064207265616421004572726F7220736558
:101550007474696E672075702064657669636520B0
:10156000747970652072656164004572726F7220D3
:1015700077726974696E672067657420646576693F
:101580006365207479706520636F6D6D616E6400B2
:101590004E6F206761732067617567653F00FBEBE5
:1015A000E1C82ABD465AB7B485B35EEBF431FB32CD
:1015B00021DFE4F179617BBAFC23F04795EB7641BA
:1015C0001154AEC5EE464951F2234A72F9912818DA
:1015D000B1F128BF0C6DB5B451B2E19057579F8758
:1015E0003D269DD62D19BE95165937F45783B53033
:1015F000364EC2D1397CA2CB9110F5BFAA544E6FA2
:1016000074653A204E6F2063656C6C206964656E6A
:1016100074697479206461746100506173736564E6
:10162000004261642063656C6C206964656E746956
:101630007479206461746120636865636B73756D90
:101640000043656C6C206964656E7469747920640C
:101650006174613A20004E6F74653A204E6F2053DA
:101660004436363020646174610050617373656480
:10167000004261642053444D363630206461746109
:1016800020636865636B73756D0053443636302094
:10169000646174613A20004E6F74653A204E6F2089
:1016A0004A45495441206368617267696E672064E6
:1016B0006174610050617373656400426164204A23
:1016C0004549544120636865636B73756D004A45F5
:1016D000495441206368617267696E672064617470
:1016E000613A200050617373656400426164206454
:1016F000796E3220636865636B73756D0042616457
:101700002064796E3320636865636B73756D004E7A
:101710006F74653A20626C6B32206E6F7420736553
:10172000742000426164204D494420696E20626C3F
:101730006B32004E6F74653A20626C6B3120494405
:10174000206E6F74207365742000426164204D49DF
:101750004431004261642064796E322063686563BD
:101760006B73756D004261642064796E312063682B
:1017700065636B73756D0044796E616D696320629A
:101780006C6F636B733A2000506173736564004D36
:10179000616E7566616374757265204944204E6F91
:1017A0006E2D7A65726F2070616420627974657342
:1017B000004D616E756661637475726520494420E1
:1017C0006D69736D61746368004D616E7566616308
:1017D0007475726520494420626C6F636B3A200017
:1017E000506173736564004261642073746174694D
:1017F0006320666163746F727920626C6F636B2023
:10180000636865636B73756D0053746174696320FD
:10181000666163746F727920626C6F636B3A20004B
:10182000506173736564004261642066726565206F
:101830006461746120626C6F636B3A200020004227
:10184000616420474720626C6F636B20616C6C6F32
:10185000636174696F6E2062797465004747206226
:101860006C6F636B20616C6C6F636174696F6E3A4F
:101870002000506173736564004261642073746179
:1018800074696320646174612061726561206461C0
:1018900074612074797065005374617469632064A5
:1018A0006174612061726561206461746120747982
:1018B00070653A2000506173736564004261642072
:1018C0007374617469632061726561206368656324
:1018D0006B73756D00537461746963206461746126
:1018E000206172656120636865636B73756D3A2072
:1018F00000436865636B696E6720454550524F4DE4
:101900002F41757468206368697020646174610098
:10191000536B697070696E6720476173204761750A
:10192000676520746573747321212100506173739E
:10193000656400426164206D616E6620646174615B
:10194000207479706500426164206D616E66206369
:101950006865636B73756D00426164206D616E66CE
:1019600020666978656420626C6F636B00F4F49B99
:10197000EFA0738F9EBFB51DD4BCE768426DB49FC6
:10198000FD7975162E00ADCE49BC22503A162D8930
:1019900096A1ABF13F2559FC86EA0FAE0DB6BC9778
:1019A000349644FDAAB4419ECF70BB1FE2426164ED
:1019B000204669726D776172652056657273696F32
:1019C0006E004261642044657669636520547970D5
:1019D0006500436865636B204761732047617567E5
:1019E000653A0050756C6C757020746F203056002D
:1019F00050756C6C757020746F20332E3356005008
:101A0000756C6C757020746F205642617474005050
:101A1000756C6C757020746F2035560031304B201A
:101A200050756C6C75707300362E384B2050756C89
:101A30006C75707300352E314B2050756C6C757061
:101A40007300344B2050756C6C75707300322E39F6
:101A50004B2050756C6C75707300332E344B2050D6
:101A6000756C6C75707300322E334B2050756C6C36
:101A7000757073004E6F2050756C6C75707320001C
:101A800041637469766520636C6F636B206472696F
:101A90007665005061737369766520636C6F636B64
:101AA00020647269766500560042617474657279CB
:101AB00020566F6C746167653A20005761726E69D9
:101AC0006E673A204E6F7720736B697070696E672E
:101AD000206C6F7720766F6C746167652063686532
:101AE000636B2100566572626F73653A204F6666BC
:101AF00000566572626F73653A204F6E004E6F201C
:101B0000426174746572792053656C6563746564B1
:101B1000210020454550524F4D2073746F7261670C
:101B20006500204175746820636869702073746F64
:101B30007261676500204279746573206F66204585
:101B40004550524F4D2073746F726167650042615A
:101B500074746572793A20004261747465727920F8
:101B600072656D6F7665642100560042617474651C
:101B7000727920696E7365727465642C20766F6C5F
:101B8000746167653A2000466F756E6420777269EC
:101B900074652070726F74656374656420534420AB
:101BA000636172642100466F756E64205344206344
:101BB0006172642100426164205344206361726455
:101BC000210053442072656D6F7665642100506C6E
:101BD000656173652073656C656374206120626163
:101BE0007474657279207479706520666972737493
:101BF00021004261747465727920766F6C7461673C
:101C000065206D757374206265203E20332E335637
:101C1000210046756E6374696F6E206E6F74207359
:101C20007570706F72746564206F6E20746869736C
:101C300020626174746572792074797065005468EB
:101C400065206461746120627566666572206973DF
:101C500020626C616E6B2100426164204368617296
:101C600061637465720042756666657220657261B3
:101C700073656400457261736520646174612062FC
:101C800075666665722028792F6E293F0048657851
:101C90002066696C65206F757470757420646F6E52
:101CA000652E003A30303030303030314646004911
:101CB0006E746572727570746564206279207573D4
:101CC00065720048697420616E79206B65792074B3
:101CD0006F207374617274206865782066696C6522
:101CE000206F75747075742C207468656E20686937
:101CF0007420616E6F74686572206B6579207768F7
:101D0000656E20646F6E650046696C652073617650
:101D10006520646F6E652E003A30303030303030E0
:101D200031464600536574206163636573732074A4
:101D3000696D65206661696C65642E005365742069
:101D400077726974652074696D65206661696C6578
:101D5000642E005365742063726561746520746934
:101D60006D65206661696C65642E004572726F72E4
:101D7000206F70656E696E672066696C652100462C
:101D8000696C65206578697374732C206F76657251
:101D900077726974652028792F6E293F0038206397
:101DA00068617273206D61782C206E6F2065787485
:101DB000656E73696F6E3A2000456E7465722066B9
:101DC000696C65206E616D6520666F722073617647
:101DD0006500446F6E652077697468206C6F61647C
:101DE0002066726F6D2053442E004261642072653C
:101DF000636F72642074797065004552524F523A95
:101E00002041646472657373207061737420656E21
:101E100064206F66207061727421004261642063E7
:101E20006865636B73756D005265636F7264203E05
:101E3000203332206279746573004572726F7220AC
:101E400072656164696E672066696C652100457220
:101E5000726F72206F70656E696E672066696C655F
:101E6000210038206368617273206D61782C206EC8
:101E70006F20657874656E73696F6E3A2000456EE9
:101E80007465722066696C65206E616D6520666F91
:101E9000722072656164004572726F7220726561B2
:101EA00064696E672066726F6D2066696C652E00CE
:101EB0004572726F722072656164696E6720667226
:101EC0006F6D2066696C652E004572726F723A20E4
:101ED00049324320636C6F636B206973206C6F77AA
:101EE0002100446F696E672050502B20646174613B
:101EF000207570646174652E2E2E0042616420721C
:101F000065766973696F6E20627974652100446F2C
:101F1000696E6720514320505020646174612075C0
:101F200070646174652E2E2E004964656E74696656
:101F300079696E6720446174613A200043656C6C76
:101F40002076656E646F7220636F64653A2000438B
:101F5000656C6C206964656E74696679696E67206A
:101F600064617461006D76004375746F66662076F7
:101F70006F6C746167653A20006D76004F564C4F68
:101F80003A20006D760055564C4F3A20006D760091
:101F90004D696E696D756D20737461727475702012
:101FA000766F6C746167653A20004E6F7420612013
:101FB0006261747465727920656C696D696E6174B3
:101FC0006F720049732061206261747465727920B8
:101FD000656C696D696E61746F720053443636309A
:101FE000204461746120626C6F636B002020496E35
:101FF00020646179733A2000536563732073696EBE
:102000006365206669727374207573653A200025D4
:1020100020202054656D70657261747572653A2078
:102020000043617061636974793A20002F002F00CA
:102030004D616E6620446174653A20005365726993
:10204000616C233A2000506172744E6577233A2008
:1020500000506172744578233A20005061727423F5
:102060003A20006D614872006D61482020205A546A
:10207000433A200020202054433A20004379636CE7
:1020800065733A20002500252020534F483A200050
:10209000534F48205468726573686F6C643A20002F
:1020A000202020466173744D696E3A20006D6120D6
:1020B00020536C6F774D696E3A20006D612020448B
:1020C0006F6E653A20004E6561726C793A20006D42
:1020D00076006D6120204D617843566F6C743A2014
:1020E000006D762020466173744375723A20006D4E
:1020F000612020536C6F772F466173743A20005330
:102100006C6F774375723A20002500252520204CFE
:102110006F773A2000252020556E66616972653A16
:1021200020006D61202046616972653A200052618D
:102130007465643A20004E6F2076616C69642050AB
:10214000502B206461746120746F2073686F770076
:1021500056616C696420516D6178206379636C65A8
:10216000733A002020496E20646179733A2000534D
:102170006563732073696E6365206669727374208A
:102180007573653A20002500252020436170616346
:102190006974793A004865616C74683A0020204699
:1021A000756C6C20436872673A00202052656D613F
:1021B000696E696E673A00202046756C6C20417626
:1021C00061696C3A004E6F6D696E616C2041766199
:1021D000696C3A0020202020436170616369746952
:1021E0006573002020202000445347200020202039
:1021F000202000534F434620002020202020005361
:102200004F43312000202020202020202020004F7C
:1022100043565F505245442000202020202020209B
:10222000202020004F43565F54414B454E20002054
:10223000202020202020202000524D4643435F458F
:102240004E2000204C6F773A202000486967683A9A
:102250002020004C6F7720427974650020202020D8
:102260000043484720002020200046432000202033
:1022700020202000584348472000202020202020F4
:102280002020004348475F494E482000202020205E
:10229000004F5444200020202020004F54432000B1
:1022A000204C6F773A202000486967683A20200068
:1022B000486967682042797465006D7600446567F7
:1022C0002043202020566F6C743A200054656D70B6
:1022D0003A2000202020200051454E2000202020C0
:1022E0002000564F4B2000202020202020202000BE
:1022F0005255505F44495320002020202020004C9C
:10230000444D44200020202020202000534C4545EF
:102310005020002020202020202020202000465572
:102320004C4C534C4545502000202020202020209C
:102330002020200048494245524E4154452000206B
:1023400020202020202020200053485554444F575F
:102350004E2000204C6F773A202000486967683A89
:102360002020004C6F7720427974650020202020C7
:1023700020004942415720002020202000424341B4
:102380002000202020200043434120002020202046
:1023900000435356200020202000535320002020CB
:1023A00020200046415320002020200053452000DB
:1023B000204C6F773A202000486967683A20200057
:1023C00048696768204279746500202020202043F6
:1023D0006F6E74726F6C2F53746174757300426109
:1023E000642074656D702121210042616420726552
:1023F000616421004572726F722073657474696E36
:1024000067207265672072656164004572726F7241
:102410002073657474696E67206374726C2F7374B3
:10242000617475732072656164004E6F206761731B
:102430002067617567653F00426164207265616471
:1024400021004572726F722073657474696E672023
:102450007265672072656164004572726F722073E5
:10246000657474696E67206374726C2F7374617421
:1024700075732072656164004572726F72207365B6
:102480006E64696E67206669727374206B6579008B
:102490004572726F722073656E64696E672066693B
:1024A000727374206B6579004261642072656164A7
:1024B00021004572726F722073657474696E6720B3
:1024C000757020626C6F636B207265616400457289
:1024D000726F722077726974696E67206D616E66C3
:1024E00020626C6F636B4320636F6D6D616E64007F
:1024F000426164207265616421004572726F7220CE
:1025000073657474696E6720757020626C6F636B9D
:102510002072656164004572726F7220777269740F
:10252000696E67206D616E6620626C6F636B42201E
:10253000636F6D6D616E64004261642072656164F9
:1025400021004572726F722073657474696E672022
:10255000757020626C6F636B2072656164004572F8
:10256000726F722077726974696E67206D616E6632
:1025700020626C6F636B4120636F6D6D616E6400F0
:102580004E6F206761732067617567653F00426128
:1025900064207265616421004572726F72207365F8
:1025A0007474696E6720757020626C6F636B207243
:1025B000656164004572726F722077726974696E2A
:1025C00067206461746120666C61736820626C6F5F
:1025D000636B20636F6D6D616E64004E6F20676189
:1025E000732067617567653F002E002D002E004740
:1025F0006173206761756765206861732062656536
:102600006E207365616C6564004572726F72207331
:10261000656E64696E67207365616C004E6F20673C
:1026200061732067617567653F004E6F2067617356
:102630002067617567653F004343204761696E20ED
:102640003D20004F5420447367205265636F7665C8
:102650007279203D20004F54204473672054696DE7
:1026600065203D20004F5420447367203D20004FDB
:102670005420436867205265636F76657279203D08
:1026800020004F54204368672054696D65203D2029
:10269000004F5420436867203D20005B536166650E
:1026A000747928436F6E66696775726174696F6EBD
:1026B000295D00506173736564004661696C6564EF
:1026C00000436865636B73756D206572726F72206D
:1026D000696E205050206661737420636861726770
:1026E00065206461746100436865636B73756D2078
:1026F0006572726F7220696E2050502038393536FD
:102700002044545349206461746100436865636BDD
:1027100073756D206572726F7220696E2050502043
:10272000657874656E6465642070617274206E757E
:102730006D62657200436865636B73756D206572C9
:10274000726F7220696E205050206865616C7468E9
:10275000206461746100436865636B73756D206507
:1027600072726F7220696E205050203137323520DE
:102770006461746100436865636B73756D20657295
:10278000726F7220696E20505020636861726765B5
:102790007220636F6E74726F6C20646174610043A9
:1027A0006865636B73756D206572726F7220696EF8
:1027B000207365636F6E6420505020616767726597
:1027C000676174652063686172676520626C6F631E
:1027D0006B00436865636B73756D206572726F7211
:1027E00020696E206669727374205050206167679B
:1027F0007265676174652063686172676520626CE9
:102800006F636B00436865636B73756D20657272EF
:102810006F7220696E20505020646174612066726E
:102820006F6D20302D32333900436865636B205162
:102830004320505020646174613A20004352432089
:102840006572726F7220696E20656E6420726573A6
:10285000706F6E6365004661696C656420746F20FB
:1028600067657420656E6420726573706F6E636552
:10287000004572726F7220696E20757064617465B4
:1028800020636F6D6D616E64004352432065727208
:102890006F7220696E207570646174652072657353
:1028A000706F6E6365004661696C656420746F20AB
:1028B0006765742075706461746520726573706FEC
:1028C0006E6365004661696C656420746F20736592
:1028D0006E64205348412075706461746520636F95
:1028E0006D6D616E64004572726F7220696E207347
:1028F0007461727420636F6D6D616E640043524346
:10290000206572726F72206F6E2073746172742012
:10291000726573706F6E6365004661696C656420F3
:10292000746F2067657420737461727420726573AC
:10293000706F6E6365004661696C656420746F201A
:1029400073656E6420534841207374617274206310
:102950006F6D6D616E640008200800000021002486
:102960000027002A002D0030003300010100000480
:102970000107010A0100002200250028002B002E7B
:10298000003100340002010000050108010B0100C4
:102990000020002300260029002C002F0032000018
:1029A00001000003010601090105050505070508E9
:1029B000080808020202020A0A08080404040401C2
:1029C00001010101010101030303030303030304E4
:1029D0000707070C0C0C0C0C0C0C0C020202020674
:1029E000060606060606060B0B0B0B0B0B0B0B0164
:1029F0000210202008081020401020408002010210
:102A000001080402010102040810204080804020D7
:102A10001008040201800402018040201008040212
:102A20000108040201010204081020408001020490
:102A3000081020408000000A0B02090C0D0E080748
:102A4000030401000000000000000000000000007E
:102A50000000000000000000000000000000000076
:102A60000012111000000000000000000000000033
:102A700000000000000000000000003E2000496E41
:102A800076616C696420736F667477617265206625
:102A90006F722074686973206465766963652121AB
:102AA0002100466F72205A6562726120496E632E62
:102AB00020696E7465726E616C20757365204F4E6F
:102AC0004C5921212100496E76616C696420617541
:102AD000746820636869702C2068697420616E795D
:102AE000206B65792E2E2E004261747465727920F8
:102AF000766F6C7461676520646574656374656482
:102B00002C20706C656173652072656D6F76652031
:102B10006261747465727920746F2070726F63657E
:102B200065642E003E20007C3C3E5E2B3D3F2F5BCB
:102B30005D3B2C2A225C00556E737570706F727449
:102B40006564206461746120747970652100556E3C
:102B5000737570706F727465642064617461207441
:102B60007970652100556E737570706F727465644D
:102B700020646174612074797065210057726974F2
:102B80006520446F6E65204F4B2100496E7465725D
:102B90007275707465642062792075736572004582
:102BA00072726F722077726974696E6720646174E3
:102BB00061004572726F722077726974696E672066
:102BC00061646472657373005374617274696E67D3
:102BD0002077726974652E2E2E0020454550524F85
:102BE0004D2028792F6E293F004F766572777269E4
:102BF000746520002020202020202020202020611B
:102C00002062617474657279206D616B696E6720F2
:102C10006974206E6F6E2D6F7065726174696F6E6E
:102C2000616C2121212121005741524E494E473AE2
:102C3000204F76657277726974696E6720616C6C7B
:102C40002074686520454550524F4D206461746181
:102C50002063616E20756E2D6D616E7566616374A3
:102C600075726500566572696679204F4B2100497F
:102C70006E74657272757074656420627920757304
:102C800065720020454550524F4D3A200020427554
:102C9000666665723A20004552524F522061742098
:102CA00000426164207265616421004572726F7236
:102CB0002077726974696E672061646472657373EA
:102CC0000020454550524F4D205665726966792E59
:102CD0002E2E005374617274696E67200052656114
:102CE00064204F4B2100496E746572727570746573
:102CF0006420627920757365720042616420726598
:102D0000616421004572726F722077726974696E16
:102D100067206164647265737300537461727469CF
:102D20006E6720726561642E2E2E0020454550523C
:102D30004F4D20696E746F2062756666657220283B
:102D4000792F6E293F0052656164200020202043C6
:102D50006F6E74696E7565206F7065726174696FEE
:102D60006E2028792F6E293F0000977811241FBE0E
:102D7000CFEFD1E2DEBFCDBF00E00CBF15E0A0E099
:102D8000B2E0E6EEF7E001E00BBF02C007900D9263
:102D9000A638B107D9F720E1A6E8B5E001C01D9239
:102DA000A239B207E1F716E1C6EBD6E100E006C0B2
:102DB00021970109802FFE010E944C7DC53BD10760
:102DC00080E00807A9F70E9408730C94F1830C9423
:102DD00000002F923F924F925F926F927F928F925C
:102DE0009F92AF92BF92CF92DF92EF92FF920F939A
:102DF0001F93CF93DF93CDB7DEB7C850D1400FB646
:102E0000F894DEBF0FBECDBF8BEA9FE00E94D65381
:102E100080938F058D3041F48BEA9FE00E948255AC
:102E200081E080938E0538C0883091F4E0918D0563
:102E3000EE2391F1E150E0938D05F0E0ED5CF04F71
:102E4000108261EC7DE08BEA9FE00E947A5624C0FC
:102E5000982F9F7D91549A3150F090ED980F9A30B1
:102E600030F08F3521F08B3211F08F33A9F4E091DF
:102E70008D05E93088F4AE2FB0E0AD5CB04F8C9397
:102E8000EF5FE0938D05F0E0ED5CF04F1082682F6E
:102E90008BEA9FE00E942E5480918E05882311F4C6
:102EA0000C94372810928E0580918D05882311F49B
:102EB0000C94EB238091330F882309F183E39FE087
:102EC0000E9482792AE132E010E0D9014D915D91B2
:102ED0009D0180E0A82FB0E0BA016A0F7B1FFB01C3
:102EE0009081AD5CB04F992311F40C94F8236C9150
:102EF000961302C08F5FEECF1F5F173231F7E7E204
:102F0000F0E010928D051092330FE732F10510F0CA
:102F10000C94E5238827EE58FF4F8F4F0C944C7D7F
:102F200064EA7DE08BEA9FE00E949E5660E085E1C6
:102F30000E94645760E084E10E9464570E94C24985
:102F400061E085E10E94645761E070E080E090E01C
:102F50000E94A05761E084E10E94645768E77DE029
:102F60008BEA9FE00E949E560E94473460E084E115
:102F70000E94645761E070E080E090E00E94A057FA
:102F800060E085E10E9464570E94BA280C94EB230C
:102F900069E57DE08BEA9FE00E949E5660E085E156
:102FA0000E94645760E084E10E9464570E94C24915
:102FB000519A83E090E0FC013197F1F75198FC01C0
:102FC0003197F1F7519AFC013197F1F75198FC01D3
:102FD0003197F1F7519A0197F1F7509A61E070E05B
:102FE00080E090E00E94A057519861E070E080E09E
:102FF00090E00E94A057509864E070E080E090E07C
:103000000E94A057509A61E070E080E090E00E943A
:10301000A057519A6DE27DE08BEA9FE00E949E5698
:103020000E94473460E084E10E94645761E070E0F0
:1030300080E090E00E94A05760E085E10E94645724
:103040000E94BA280C94EB2380910402882351F04B
:103050001092040260E27DE08BEA9FE00E949E569F
:103060000C94EB2381E08093040264E17DE08BEA21
:103070009FE00E949E560C94EB2380918C05882340
:1030800051F010928C0568EF7CE08BEA9FE00E9483
:103090009E560C94EB2381E080938C056FEC7CE0D2
:1030A0008BEA9FE00E949E560C94EB2364E77BE042
:1030B0008BEA9FE00E949E566CE57BE08BEA9FE0E6
:1030C0000E949E5680919305882309F4A5C08091A3
:1030D0000702811106C063E47BE08BEA9FE00E9457
:1030E0009E568091240F882331F065E27BE08BEAC5
:1030F0009FE00E949E568091320F882331F065E058
:103100007BE08BEA9FE00E949E56E0919305BFE032
:10311000EB9FF0011124E855FD4F8281882351F186
:1031200063EE7AE08BEA9FE00E949E5669EB7AE0BC
:103130008BEA9FE00E949E5661E97AE08BEA9FE06D
:103140000E949E5668E77AE08BEA9FE00E949E56B6
:1031500062E67AE08BEA9FE00E949E5661E47AE0A4
:103160008BEA9FE00E949E5664E17AE08BEA9FE042
:103170000E949E5668EF79E08BEA9FE00E949E567F
:10318000E09193052FE0E29FF0011124E855FD4FF7
:1031900083818823F1F062ED79E08BEA9FE00E9461
:1031A0009E5665EA79E08BEA9FE00E949E5667E7AB
:1031B00079E08BEA9FE00E949E5668E479E08BEA12
:1031C0009FE00E949E5666E179E08BEA9FE00E94B4
:1031D0009E56E09193058FE0E89FF0011124E85599
:1031E000FD4F80818823C1F061EF78E08BEA9FE09A
:1031F0000E949E566BEC78E08BEA9FE00E949E5600
:1032000064EA78E08BEA9FE00E949E566AE778E0E5
:103210008BEA9FE00E949E5668E678E08BEA9FE08A
:103220000E949E566DE278E08BEA9FE00E949E56D7
:1032300064EF77E08BEA9FE00E949E5680918B05B9
:103240008823B1F06DEC77E08BEA9FE00E949E56F8
:1032500080918A05811106C068EA77E08BEA9FE0D9
:103260000E949E566CE877E08BEA9FE00E949E5693
:103270006CE677E08BEA9FE00E949E5661E577E07E
:103280008BEA9FE00E949E5665E377E08BEA9FE021
:103290000E949E5666E277E08BEA9FE00E949E566F
:1032A0000C94EB230E94F7280E9446310C94EB23E8
:1032B0008BEA9FE00E9482550E9400390C94EB2318
:1032C0001092240F1092320F8BEA9FE00E948255D9
:1032D0000E949D3268EAE62E62E0F62E00E010E0E1
:1032E00075ECC72E73E0D72E1F930F93DF92CF920A
:1032F0000E94BE36D7011D966D917C911E978BEA78
:103300009FE00E949E560F5F1F4FBFE0EB0EF11C27
:103310000F900F900F900F900D30110529F78BEA49
:103320009FE00E94825560E177E08BEA9FE00E9477
:103330007A56198200E010E08BEA9FE00E94F85371
:10334000892BD1F38BEA9FE00E94D6538D3011F484
:103350000C940024883099F40115110569F301508B
:103360001109E1E0F0E0EC0FFD1FE00FF11F10820A
:1033700064EC76E08BEA9FE00E947A56DDCF90ED18
:10338000980F9A30C8F609301105B4F6E1E0F0E084
:10339000EC0FFD1FE00FF11F80830F5F1F4FE1E077
:1033A000F0E0EC0FFD1FE00FF11F1082682F8BEA99
:1033B0009FE00E942E54C0CF1092240F1092320F23
:1033C00080919305811104C00E94F9360C94EB237F
:1033D0000E94072981110C94EB230E94BA28E091E6
:1033E00093058E2F90E0FC013197EC30F10508F049
:1033F000CCC18827E756FF4F8F4F0C944C7D80E05F
:1034000090E00E94413584E29BE00E94D37480E00A
:103410000E94767881110C94EB238BEA9FE00E9446
:10342000825560EC7CE08BEA9FE00E949E560C94F3
:10343000EB2380E090E00E94413584E29BE00E9413
:10344000D37481E00E94767881110C94EB238BEA8F
:103450009FE00E94825561EB7CE08BEA9FE00E9436
:103460009E560C94EB2380E090E00E94413584E26C
:103470009BE00E94D37484E00E94767881110C94C2
:10348000EB230E94AE3081110C94EB238BEA9FE07A
:103490000E94825562EA7CE08BEA9FE00E949E5681
:1034A0000C94EB2380E090E00E94413584E29BE0A5
:1034B0000E94D37486E00E94767881110C94EB23ED
:1034C0008BEA9FE00E94825563E97CE08BEA9FE0F3
:1034D0000E949E560C94EB2380E090E00E944135C0
:1034E00084E29BE00E94D13180919305882311F4FE
:1034F0000C94EB2384E29BE00E94606081110C94A9
:10350000EB238BEA9FE00E94825564E87CE08BEA23
:103510009FE00E949E560C94EB2380E090E00E9476
:10352000413584E29BE00E94D1318091930588234C
:1035300011F40C94EB231092240F61EB76E08BEAEC
:103540009FE00E947A56E4E2FBE080E09191890FCF
:10355000BBE0EC3EFB07D1F7882371F06FE876E023
:103560008BEA9FE00E949E560E94AB5E882311F476
:103570000C94EB2311E001C010E09091ED0B8091D1
:10358000EC0B890F9091EE0B890F9091EF0B890F47
:103590009091F00B890F69F060E676E08BEA9FE08E
:1035A0000E949E560E94AB5E882311F40C94EB237C
:1035B00011E09091F50B8091F40B890F9091F60B2F
:1035C000890F9091F70B890F9091F80B890F69F093
:1035D00060E376E08BEA9FE00E949E560E94AB5E1D
:1035E000882311F40C94EB2311E0ECEFFBE080E076
:1035F0009191890F2CE0E431F207D1F7882369F02B
:1036000069E076E08BEA9FE00E949E560E94AB5EE6
:10361000882311F40C94EB2311E09091150C809108
:10362000140C890F9091160C890F69F067EE75E004
:103630008BEA9FE00E949E560E94AB5E882311F4A5
:103640000C94EB2311E0E8E1FCE080E09191890F1C
:103650009CE0E032F907D1F7882369F06BEC75E064
:103660008BEA9FE00E949E560E94AB5E882311F475
:103670000C94EB2311E0E0E2FCE080E09191890FF3
:10368000ACE0E832FA07D1F7882369F06DEA75E01B
:103690008BEA9FE00E949E560E94AB5E882311F445
:1036A0000C94EB2311E0E4E4FCE080E09191890FBD
:1036B000BCE0E43AFB07D1F7882361F060E975E0EC
:1036C0008BEA9FE00E949E560E94AB5E811104C06F
:1036D0000C94EB23112341F069E875E08BEA9FE03D
:1036E0000E949E5611E006C062E875E08BEA9FE0FA
:1036F0000E949E5681E08093240F11110C94EB23BD
:103700008BEA9FE00E94825565E77CE08BEA9FE0B0
:103710000E949E560C94EB2380E090E00E9441357D
:1037200084E29BE00E94D37482E00E94767881114B
:103730000C94EB238BEA9FE00E94825566E67CE0C6
:103740008BEA9FE00E949E560C94EB2380E090E071
:103750000E94413584E29BE00E94D37483E00E9482
:10376000767881110C94EB230E94AE3081110C9479
:10377000EB238BEA9FE00E94825567E57CE08BEAB1
:103780009FE00E949E560C94EB230E94ED360C9411
:10379000EB2380919305882309F416CE0E94072914
:1037A00081110C94EB2380910702882321F00E9461
:1037B000E7360C94EB230E94BA28E09193058E2FF4
:1037C00090E0FC013197EC30F10508F069C08827E2
:1037D000EB55FF4F8F4F0C944C7D80E00E941C787E
:1037E0008111F9C78BEA9FE00E94825566E47CE074
:1037F0008BEA9FE00E949E56EEC781E00E941C78F3
:103800008111E9C78BEA9FE00E94825565E37CE065
:103810008BEA9FE00E949E56DEC784E00E941C78DF
:103820008111D9C70E94AE308111D5C78BEA9FE0C4
:103830000E94825564E27CE08BEA9FE00E949E56E3
:10384000CAC786E00E941C788111C5C78BEA9FE039
:103850000E94825563E17CE08BEA9FE00E949E56C5
:10386000BAC782E00E941C788111B5C78BEA9FE03D
:103870000E94825562E07CE08BEA9FE00E949E56A7
:10388000AAC783E00E941C7881110AC08BEA9FE0DE
:103890000E94825561EF7BE08BEA9FE00E949E567A
:1038A0000E94ED3698C7E0919305EE2309F48CCD84
:1038B0002FE0E29FF0011124E855FD4F8381811133
:1038C00003C00E94ED3687C780918C0581110C944E
:1038D0007B240E94393823E333E343E550E40E941C
:1038E000F179181614F00C9478240C947B24E09150
:1038F0009305EE2309F468CD8FE0E89FF0011124D1
:10390000E855FD4F83818823E1F280918C05811178
:103910000C948B240E94393823E333E343E550E4CD
:103920000E94F17918160CF0E3C7F5C7E0919305F2
:10393000EE2309F449CD9FE0E99FF0011124E855F9
:10394000FD4F8381882309F4BCCF80918C058111C0
:10395000F3C70E94393823E333E343E550E40E9480
:10396000F17918160CF0C4C7E7C7E0919305EE2370
:1039700009F42ACDAFE0EA9FF0011124E855FD4F8C
:103980008381882309F49DCF80918C058111E5C73F
:103990000E94393823E333E343E550E40E94F17990
:1039A00018160CF0A5C7D9C71092240F1092320F29
:1039B000E0919305EE2309F407CDBFE0EB9FF00102
:1039C0001124E855FD4F8081882309F47ACF0E94A5
:1039D0000729811100C70E94BA2880E090E00E9468
:1039E000D374F9C61092240F1092320F8091930570
:1039F000882309F4E9CC80918C058111B2C70E941B
:103A0000393823E333E343E550E40E94F179181693
:103A10000CF06EC7A6C7E0919305EE2309F4D4CC51
:103A20002FE0E29FF0011124E855FD4F80818823AB
:103A300009F447CF0E9407298111CDC68091070262
:103A4000811107C00E94BA2880E090E00E94FE76B3
:103A5000C2C60E94E7360E94AB5E882309F4BBC64B
:103A6000F1CF80919305882309F4AECC80918C0529
:103A700081117DC70E94393823E333E343E550E4E5
:103A80000E94F17918160CF033C771C7E0919305C5
:103A9000EE2309F499CC8FE0E89FF0011124E8555A
:103AA000FD4F8081882309F40CCF0E9407298111E2
:103AB00092C68091070281111DC00E949D3268ED5F
:103AC0007BE08BEA9FE00E947A56E09193059FE0AD
:103AD000E99FF0011124E855FD4F658576858BEA55
:103AE0009FE00E947A5664EC7BE08BEA9FE00E94A4
:103AF0009E5608C00E94E7360E94AB5E882309F4F8
:103B00006AC6DBCF8BEA9FE00E94F853892BD1F382
:103B10008BEA9FE00E94D65380938F058F7D893575
:103B200009F059C60E94BA28E09193058E2F90E0C3
:103B3000FC013197E930F105D0F48827EF54FF4FAD
:103B40008F4F0C944C7D80E00E942E7844C681E01B
:103B50000E942E7840C684E00E942E783CC682E007
:103B60000E942E7838C683E00E942E7834C60E94C8
:103B7000ED3631C680919305882309F425CC8091D8
:103B80008C05811110C70E94393823E333E343E5E4
:103B900050E40E94F17918160CF0AAC604C7E0910F
:103BA0009305EE2309F410CCBFE0EB9FF001112444
:103BB000E855FD4F8081882309F483CE0E940729B0
:103BC000811109C680910702882339F00E94E736E7
:103BD0000E94AB5E882309F4FEC50E94BA2880E0EB
:103BE00090E00E94CC75F7C5E0919305EE2309F4AF
:103BF000EBCB2FE0E29FF0011124E855FD4F8381CC
:103C0000882309F45ECE80918C05811117C70E942C
:103C1000393823E333E343E550E40E94F179181681
:103C20000CF066C60BC71092240F1092320F81E081
:103C300090E00E944135CFC51092240F1092320FB0
:103C400080919305882309F4BFCB81E090E00E9426
:103C500041350E949D321092890562E675E08BEA3B
:103C60009FE00E949E56CE0101967C01C82E5FE027
:103C7000B52E0E9447348B3149F461E575E08BEA3B
:103C80009FE00E949E560E949D32A5C59091890595
:103C9000992319F00E949D329EC58A3351F71092E4
:103CA00088050E945234D82E0E945234082F10E00A
:103CB000102F00270E945234082B0E945234A82E45
:103CC00090E49D1510F0470117C067E475E08BEA9A
:103CD0009FE00E947A5640E450E060E070E08BEA9A
:103CE0009FE00E94294760E475E08BEA9FE00E9414
:103CF0009E560E949D326FC5882D8E198D1530F409
:103D00000E945234D4018D934D01F6CF0E9452345B
:103D100080918805882349F063E375E08BEA9FE092
:103D20000E949E560E949D3256C5B1E0AB1609F422
:103D300094C6AB1668F0E3E0AE1609F49ACF62E0E1
:103D400075E08BEA9FE00E949E560E949D3243C51B
:103D5000E091930598012C5D344FD7010E191F098E
:103D6000BE9EF0011124BF0163557D4FA8014A0F8B
:103D70005B1F9A2F9C199D1508F07BCFFB0180815A
:103D800091814817590738F062E175E08BEA9FE0AE
:103D90000E949E5620C58D91F90181939F01E6CF27
:103DA00080919305882309F40FCB60E070E080E0F8
:103DB00090E00E946A340FC5809107028111F7CC10
:103DC0008091240F811107C064ED74E08BEA9FE0BD
:103DD0000E949E5600C567EC74E08BEA9FE00E944B
:103DE0007A568091250B0E9477532091260B609183
:103DF000270B862F90E0A0E0B0E0DC019927882710
:103E0000B22B2091290B822B2091280BBC01CD01D4
:103E1000722B611571058105910509F47DC024E6B9
:103E2000822E912CA12CB12CA50194010E942A7DF7
:103E30006B017C0162EB74E08BEA9FE0CB5FDE4FAD
:103E40002883C550D140CA5FDE4F3883C650D14069
:103E5000C95FDE4F4883C750D140C85FDE4F5883EB
:103E6000C850D1400E947A56CB5FDE4F2881C550A2
:103E7000D140CA5FDE4F3881C650D140C95FDE4FA6
:103E80004881C750D140C85FDE4F5881C850D140EB
:103E9000CA01B901A50194010E942A7D29013A01B4
:103EA0004B015C012AE0B301A2018BEA9FE00E9472
:103EB0003A5560EB74E08BEA9FE00E947A56B401B9
:103EC0008BEA9FE00E945A536AEA74E08BEA9FE013
:103ED0000E947A56F5E1CF16D104E104F10420F4F2
:103EE000C6010E948A5324C02FE2C216D104E10405
:103EF000F10458F46CE26C0D8BEA9FE00E9495553A
:103F00008BEA9FE00E94825513C066EA74E08BEA58
:103F10009FE00E949E560CC06FE874E08BEA9FE021
:103F20000E947A5664E57CE08BEA9FE00E9485550A
:103F300080912D0BC0902C0BD12CE12CF12C760113
:103F4000DD24CC24F82A80912A0BC82A80912B0BDF
:103F5000D82A62E874E08BEA9FE00E947A562AE051
:103F6000B701A6018BEA9FE00E943A5563E774E02F
:103F70008BEA9FE00E947A564091300B50E0B4E00B
:103F800055954795BA95E1F7052E000C660B770B12
:103F90008BEA9FE00E94294761E774E08BEA9FE08B
:103FA0000E947A5640912E0B50E060E070E02AE0CB
:103FB0008BEA9FE00E943A556FE674E08BEA9FE03F
:103FC0000E947A568091300B8F7090E0982F88274E
:103FD00020912F0B822B0E948A530091310B10E00D
:103FE000102F00278091320B082B64E674E08BEAD7
:103FF0009FE00E947A56B8018BEA9FE00E945A53D4
:1040000067E574E08BEA9FE00E947A564091330B9B
:1040100050E060E070E02AE08BEA9FE00E943A55B1
:1040200068E474E08BEA9FE00E947A564091340B7A
:1040300050E060E070E02AE08BEA9FE00E943A5591
:1040400069E374E08BEA9FE00E947A564091060C87
:1040500050E060E070E02AE08BEA9FE00E943A5571
:1040600067E374E08BEA9FE00E949E56B4C38091A0
:10407000070281119CCB0E94BD3DADC3E091930529
:10408000EE2309F4A1C98FE0E89FF0011124E8555F
:10409000FD4F8281882309F414CC80918C05811115
:1040A000E7C40E94393823E333E343E550E40E9438
:1040B000F17918160CF01CC4DBC4E0919305EE23D3
:1040C00009F482C99FE0E99FF0011124E855FD4FF2
:1040D0008281882309F4F5CB80918C058111CCC4B1
:1040E0000E94393823E333E343E550E40E94F17939
:1040F00018160CF0FDC3C0C4E0919305EE2309F43B
:1041000063C9AFE0EA9FF0011124E855FD4F8281B9
:10411000882309F4D6CB80918C058111B5C40E9407
:10412000393823E333E343E550E40E94F17918166C
:104130000CF0DEC3A9C4E0919305EE2309F444C951
:10414000BFE0EB9FF0011124E855FD4F82818823E9
:1041500009F4B7CB80918C058111A4C40E94393831
:1041600023E333E343E550E40E94F17918160CF0A1
:10417000BFC398C4E0919305EE2309F425C92FE04D
:10418000E29FF0011124E855FD4F8281882309F454
:1041900098CB80918C05811193C40E94393823E318
:1041A00033E343E550E40E94F17918160CF0A0C304
:1041B00087C4E0919305EE2309F406C98FE0E89FD8
:1041C000F0011124E855FD4F8281882309F479CB51
:1041D00080918C0581117CC40E94393823E333E33C
:1041E00043E550E40E94F17918160CF081C370C4C5
:1041F000E0919305EE2309F4E7C82FE0E29FF00178
:104200001124E855FD4F8281882309F45ACB80910F
:104210008C05811198C40E94393823E333E343E5C8
:1042200050E40E94F17918160CF062C38CC4E0913E
:104230009305EE2309F4C8C89FE0E99FF00111241B
:10424000E855FD4F8281882309F43BCB80918C0592
:104250008111A9C50E94393823E333E343E550E4D3
:104260000E94F17918160CF043C39DC5E0919305A7
:10427000EE2309F4A9C8BFE0EB9FF0011124E85533
:10428000FD4F8281882309F41CCB80918C0581111C
:1042900077C60E94393823E333E343E550E40E94B4
:1042A000F17918160CF024C36BC61092240F1092EB
:1042B000320F80919305882309F486C880918B057D
:1042C000811107C068E772E08BEA9FE00E949E566A
:1042D00082C20E9470357FC280919305882309F4C1
:1042E00073C880918B05882369F380918A058823A0
:1042F00039F061E672E08BEA9FE00E949E566BC245
:1043000060E070E080E090E00E94C53264C280917D
:104310008B058823B9F2C054DF4F1882C05CD040AF
:10432000CE53DF4F1882C25CD040CA54DF4F19828F
:104330001882C65BD04048EE53E060E070E0C8549D
:10434000DF4F488359836A837B83C85BD0408CE00E
:1043500092E0CC54DF4F99838883C45BD040C3572D
:10436000DF4F1882CD58D040C157DF4F1882CF5849
:10437000D040CD57DF4F19821882C358D040CB5759
:10438000DF4F488359836A837B83C558D040CF571A
:10439000DF4F99838883C158D04066E372E08BEA8F
:1043A0009FE00E949E566091860570918705E1E826
:1043B0002E2E312C2C0E3D1E9CE0290E311C21E0AE
:1043C00049E554E0C1010E94725CF8EE4F2EF3E023
:1043D0005F2E612C712C8E0109511F4F6E01A6EFCB
:1043E000CA0ED11CFE0131964F011D861F861C820C
:1043F0001B824D825E826F827886ECE0F2E0FA8367
:10440000E983CF56DF4F88819981C159D0409A8B7B
:10441000898BC956DF4F88819981AA81BB81C75991
:10442000D04025E0B695A795979587952A95D1F721
:10443000682F6F70C157DF4F8881CF58D0408230CE
:10444000D8F1C101CB5FDE4F6883C550D1400E94D7
:10445000E757CB5FDE4F6881C550D14097FD2CC038
:10446000C956DF4F88819981AA81BB81C759D04045
:104470004F96A11DB11DC956DF4F88839983AA832A
:10448000BB83C759D04020E2629FF0011124EC5257
:10449000F74F309789F08081882371F0853E09F4C9
:1044A000B8CF8E3209F4B5CF838583FDB2CF41E01A
:1044B000CE010D960E944558FE013D96A4EBB0E05A
:1044C000AC0FBD1F1C968AE101900D928A95E1F711
:1044D0008B819C81CA54DF4F99838883C65BD0400F
:1044E0008D819E81AF81B885C854DF4F88839983C1
:1044F000AA83BB83C85BD04089859A85AB85BC8580
:10450000C454DF4F88839983AA83BB83CC5BD0409C
:104510008DE0FE01B796A4EBB0E0AC0FBD1F969600
:1045200001900D928A95E1F7CE53DF4F8881C25CEE
:10453000D040882309F43DC1823008F032C160E0E8
:1045400084EB90E08C0F9D1F0C960E946D59009794
:10455000E1F0FC0180E090E02EE23081303269F041
:10456000983029F4D801A80FB11D2C938F5FD80182
:10457000A80FB11D30813C938F5F9F5F31969B30B8
:1045800061F7F801E80FF11D10821F930F93ABE55F
:10459000B4E0BF93AF93DF92CF920E949B7DB601B0
:1045A0008BEA9FE00E94795674EBE72EF12CEC0E1B
:1045B000FD1EFCE0EF0EF11CC7010E94484B0F905E
:1045C0000F900F900F900F900F90882309F472C0F6
:1045D00060E0C7010E946D59009709F46BC0DC01CF
:1045E0005696ED90FC9057975896AD90BC90599781
:1045F000B501672F772766956454784F8BEA9FE063
:104600000E945A53E091AB0FF091AC0F0190F081F2
:10461000E02D6DE28BEA9FE01995C50155E0969576
:1046200087955A95E1F78F700E945F53E091AB0F29
:10463000F091AC0F0190F081E02D6DE28BEA9FE0EC
:1046400019958A2D8F710E945F53E091AB0FF09105
:10465000AC0F0190F081E02D60E28BEA9FE01995AC
:104660008F2D8695869586950E945F53E091AB0FBE
:10467000F091AC0F0190F081E02D6AE38BEA9FE0AE
:104680001995C70165E0969587956A95E1F78F734F
:104690000E945F53E091AB0FF091AC0F0190F0815D
:1046A000E02D6AE38BEA9FE019958E2D8F71880FBC
:1046B0000E945F5360E28BEA9FE00E942E54CE522C
:1046C000DF4F88819981AA81BB81C25DD040FE0104
:1046D0003B96AD0166277727452B462B472B09F4E0
:1046E0002EC033E3839F8827030E811D202D939FC7
:1046F0009927800D911DA39FAA27900DA11DB39FFF
:10470000BB27A00DB11D1124280F891F9A1FAB1FB5
:10471000B11D290F8A1F9B1FA11DB11D2B0F811DCC
:10472000911DA11DB11DB695A795979587952795C4
:104730003AE0239F212D1124205D2293CACF319787
:104740008A309105D8F033E3839F8827030E811DBB
:10475000202D939F9927800D911D1124280F891FCB
:10476000911D290F811D911D9695879527953AE0FA
:10477000239F212D1124205D2083E1CF805D808344
:1047800080E28E169F0610F48293FBCF4AE050E041
:10479000B4018BEA9FE00E949C538BEA9FE00E9449
:1047A000825584EB90E08C0F9D1F0C960E946459FB
:1047B0001CCE81E890E08C0F9D1F0C960E946459DE
:1047C0008BEA9FE00E94825506C065E97BE08BEA98
:1047D0009FE00E949E560E949D328BEA9FE00E94BD
:1047E000825562E97BE08BEA9FE00E947A563FC4E3
:1047F0008C9181110C947C17E12FF0E00C948117BF
:104800008BEA9FE00E948255CE018F579F4F7C011B
:10481000012B99F0FF92EF928DE095E09F938F939B
:10482000CE0101969F938F930E94CA7D0F900F90A7
:104830000F900F900F900F9005C08FEF9FEFF70133
:1048400091838083D7018D919C9197FD4AC08D30D3
:1048500091053CF062EE76E08BEA9FE00E949E5666
:10486000BACF809393052FE0289FF001299FF00D88
:104870001124E855FD4F8385882319F00E948D5D32
:1048800002C00E94855DE09193051FE01E9FF0012C
:104890001124E855FD4F81850E94C75DE091930585
:1048A0001E9FF0011124E855FD4F82850E94965D00
:1048B0000E940039E09193051E9FF0011124E855F4
:1048C000FD4F8385882351F08281811103C083814C
:1048D000882321F081E0809390057DCF1092900590
:1048E0007ACF68EC76E08BEA9FE00E949E5673CF09
:1048F0000E94F33670CF3ED40E94AE3081116BCF50
:104900008BEA9FE00E94825560EE7BE08BEA9FE09D
:104910000E949E5660CF2ED40E94CA2DCE010196D1
:104920000E94232E892B09F056CF60E870E0CE015B
:1049300001960E946A344FCF1DD40E94CA2DCE0129
:1049400001960E94232E892B09F045CF60E870E084
:10495000CE0101960E94C5323ECF0CD40E94C22ED9
:104960003ACF08D480E090E00E94D13134CF8091DA
:104970000702882339F00E94E7360E94AB5E882345
:1049800009F429CFF7D3809193058A3021F08C3038
:1049900011F0883029F480E090E00E94CA5E1BCFBD
:1049A0000E94ED3618CF80910702882339F00E94CB
:1049B000E7360E94AB5E882309F40DCF0E949D323A
:1049C0006CEB7BE08BEA9FE00E947A56E0919305C6
:1049D000AFE0EA9FF0011124E855FD4F658576852B
:1049E0008BEA9FE00E947A5665EA7BE08BEA9FE0C3
:1049F0000E949E568BEA9FE00E94F853892BD1F3C8
:104A00008BEA9FE00E94D65380938F058F7D893576
:104A100009F0E1CEAFD3809193058A3041F08C301C
:104A200031F0883041F485E00E942760D4CE81E0E7
:104A30000E942760D0CE0E94ED36CDCE8091070235
:104A4000882339F00E94E7360E94AB5E882309F480
:104A5000C2CE90D30E94B85FBECE0E949D326DEE52
:104A600074E08BEA9FE00E949E5610920702B3CE3C
:104A700081D30E944044AFCE7DD361E674E08BEADF
:104A80009FE00E948555A7CE75D3CE0101960E9466
:104A900069418111A0CE60E670E0CE0101960E94CE
:104AA0006A3499CE67D3CE0101960E946941811183
:104AB00092CE60E670E0CE0101960E94C5328BCEA8
:104AC00059D30E94E145811186CE0E94BD3983CE23
:104AD00051D30E94E14581117ECE81E9E82E88E024
:104AE000F82E10E09BECA92E93E0B92EDE01119672
:104AF0006D01D7018C9111969C91B2E0EB0EF11CE7
:104B00009F938F93BF92AF92DF92CF920E949B7D33
:104B1000B6018BEA9FE00E9479560F900F900F909C
:104B20000F900F900F90812F8770873021F48BEAC0
:104B30009FE00E9482551F5F1F31D9F68BEA9FE0EC
:104B40000E94825548CE16D3E0919305EE2309F4D6
:104B500042CE8FE0E89FF0011124E855FD4F82819D
:104B6000811107C069E274E08BEA9FE00E949E56C3
:104B700032CE65E074E08BEA9FE00E949E568BEA9D
:104B80009FE00E94F853892BD1F38BEA9FE00E94AB
:104B9000D65389838F7D893509F01DCE0E94E1456A
:104BA000811119CE8091900581110E94855D198235
:104BB00082E18A831B820E948E328111E0C0E091E3
:104BC00093051FE01E9FF0011124E855FD4F8281DF
:104BD0000E94E65D43E050E0BE016F5F7F4F88E4D6
:104BE00090E10E94B947039719F06DEE73E061C040
:104BF0000E943B5E198283E18A831B820E948E326F
:104C00008111BDC0E09193051E9FF0011124E8556C
:104C1000FD4F82810E94E65D43E050E0BE016F5F80
:104C20007F4F88E490E10E94B947039719F065ED42
:104C300073E03FC00E943B5E19821A821B820E9471
:104C40008E3281119CC0E09193051E9FF0011124CA
:104C5000E855FD4F82810E94E65D43E050E0BE01D1
:104C60006F5F7F4F88E490E10E94B947039719F086
:104C700066EB73E01EC00E943B5E0E948E32811183
:104C80007EC01982E09193051E9FF0011124E85522
:104C9000FD4F82810E94E65D41E050E0BE016F5F02
:104CA0007F4F88E490E10E94B947019749F06FE98E
:104CB00073E08BEA9FE00E949E560E943B5E5FC0BD
:104CC0000E943B5E0E948E32811159C0E091930593
:104CD0001E9FF0011124E855FD4F41E062E0828102
:104CE0000E94F05D8230A9F08BEA9FE00E9482551D
:104CF00065E973E08BEA9FE00E949E569091860FD3
:104D00008091870F9817D9F188E490E10E949D4720
:104D1000F5CF88E490E10E949D478093910888E454
:104D200090E10E949D47809392088091910886FFB0
:104D300003C061ED73E002C064EF73E08BEA9FE0B3
:104D40000E9485558091910885FF03C065E174E05C
:104D500002C068E374E08BEA9FE00E9485556BE730
:104D600073E08BEA9FE00E947A566091D0087091C0
:104D7000D1088091D2089091D3080E94985E8091CA
:104D80009005882349F00E948D5D6FE070E080E01F
:104D900090E00E94A0571FCD61E070E080E090E0BD
:104DA0000E94A05718CDE6D1E0919305EE2309F4B7
:104DB00012CDAFE0EA9FF0011124E855FD4F82814A
:104DC000811107C06DE673E08BEA9FE00E949E565A
:104DD00002CD64E573E08BEA9FE00E949E568BEA69
:104DE0009FE00E94F853892BD1F38BEA9FE00E9449
:104DF000D65389838F7D893509F0EDCC809190055C
:104E000081110E94855D0E948E328111A5C0198298
:104E100082E18A831B82E09193051FE01E9FF001CF
:104E20001124E855FD4F82810E94E65D43E050E089
:104E3000BE016F5F7F4F88E490E10E94B9470397FE
:104E400019F06CE373E03FC00E943B5E19821A8246
:104E50001B820E948E3281117FC0E09193051E9FBC
:104E6000F0011124E855FD4F82810E94E65D43E088
:104E700050E0BE016F5F7F4F88E490E10E94B94728
:104E8000039719F06DE173E01EC00E943B5E0E9423
:104E90008E32811161C01982E09193051E9FF0014D
:104EA0001124E855FD4F82810E94E65D41E050E00B
:104EB000BE016F5F7F4F88E490E10E94B947019780
:104EC00049F066E073E08BEA9FE00E949E560E94E4
:104ED0003B5E42C00E943B5E0E948E3281113CC00C
:104EE000E09193051E9FF0011124E855FD4F41E02C
:104EF00062E082810E94F05D8230A9F08BEA9FE03F
:104F00000E9482556CEF72E08BEA9FE00E949E56F1
:104F10009091860F8091870F9817F1F088E490E1C7
:104F20000E949D47F5CF88E490E10E949D478093C1
:104F3000910888E490E10E949D47809392088091B7
:104F4000910885FF03C065E174E002C068E374E086
:104F50008BEA9FE00E94855580919005882349F057
:104F60000E948D5D6FE070E080E090E00E94A057AD
:104F700032CC61E070E080E090E00E94A0572BCC42
:104F8000F9D0E0919305EE2309F425CC2FE0E29FC0
:104F9000F0011124E855FD4F8281811107C06EEEAA
:104FA00072E08BEA9FE00E949E5615CC66EC72E0A0
:104FB0008BEA9FE00E949E568BEA9FE00E94F85386
:104FC000892BD1F38BEA9FE00E94D65389838F7D92
:104FD000893509F000CC0E944D43811134C0809185
:104FE000900581110E94855D0E948E3281112BC037
:104FF000198281E48A831B82E09193058FE0E89F08
:10500000F0011124E855FD4F82810E94E65D43E0E6
:1050100050E0BE016F5F7F4F88E490E10E94B94786
:10502000039749F062EB72E08BEA9FE00E949E5684
:105030000E943B5E08C00E943B5E68E972E08BEA1A
:105040009FE00E949E5680919005882349F00E941F
:105050008D5D6FE070E080E090E00E94A057BBCBD8
:1050600061E070E080E090E00E94A057B4CBC85FA0
:10507000DE4F0FB6F894DEBF0FBECDBFDF91CF91EC
:105080001F910F91FF90EF90DF90CF90BF90AF9066
:105090009F908F907F906F905F904F903F902F9058
:1050A0000895FC01868D978DA0A1B1A146895789ED
:1050B000608D718D841B950BA60BB70B811520E8B5
:1050C0009207A105B10520F08FEF9FE7A0E0B0E0C7
:1050D0000895089580E090E008950C960C94744C27
:1050E000CF93DF931F92CDB7DEB7698341E050E0E5
:1050F000BE016F5F7F4F0C960E94744C21E030E040
:10510000019711F020E030E0C9010F90DF91CF91BD
:1051100008950C960C94E7578F929F92AF92BF928E
:10512000CF92DF92EF92FF92CF93DF93EC018E88C4
:105130009F88A88CB98CCA88DB88EC88FD880C967F
:105140000E94E75797FD08C08E8A9F8AA88EB98E65
:10515000CA8ADB8AEC8AFD8ADF91CF91FF90EF90BB
:10516000DF90CF90BF90AF909F908F9008950C9656
:105170000C94484B0F931F93CF93DF930CEB10E0ED
:10518000F80110821092870F1092860F1092A90FCB
:105190001092A80F1092850F81E08093840F1092D7
:1051A0007F0F61E084E10E94355761E085E10E9454
:1051B0003557E9EBF0E080818E7F808380818D7FA1
:1051C0008083C8EBD0E088E4888385E4F80180839D
:1051D00060E085E10E94355760E084E10E94355728
:1051E00080EF8883DF91CF911F910F9108958BEA13
:1051F0009FE00E9482556DE173E18BEA9FE00E947F
:105200007A5664E173E18BEA9FE00C949E56CF934B
:10521000C0918C05C1111CC0E09193058FE0E89FFF
:10522000F0011124E855FD4F8385882319F0828110
:10523000882379F00E94393823E333E343E550E4CF
:105240000E94F17918162CF00E94F336C1E001C0DB
:10525000C0E08C2FCF910895AF92BF92CF92DF9292
:10526000EF92FF920F931F93CF938C016B01C42F8A
:105270000E948E32811137C015950795A12CB12C53
:10528000CC2361F1802F0E94E65DCF3118F4EC2E23
:10529000F12C03C08FE1E82EF12C63E088E490E16B
:1052A0000E94E847A701B6016A0D7B1D88E490E1E2
:1052B0000E94B9478E159F0549F067E172E18BEABC
:1052C0009FE00E949E560E943B5E0AC0AE0CBF1C2F
:1052D000CE190E943B5E882399F202C080E001C093
:1052E00081E090E000C0CF911F910F91FF90EF906F
:1052F000DF90CF90BF90AF9008954F925F926F92E2
:105300007F928F929F92AF92BF92CF92DF92EF9255
:10531000FF920F931F93CF93DF938C015B01C42FF8
:105320000E948E32811146C015950795502E1C2F74
:10533000412C1123D9F1103218F4E12EF12C03C0C5
:1053400080E2E82EF12C41E06E2D852D0E94F05D6B
:10535000C82ED12C3701D12FDE19842C912C8D2F02
:10536000860D0E2D061910E00C151D05A4F42091D4
:10537000860F9091870F291789F0080D191D0A0DC6
:105380001B1D88E490E10E949D47F8018083F1E0B5
:105390006F1A7108E4CF182F672829F04C2F50E0BE
:1053A000481B510905C080E2480EC3CF4C2F50E086
:1053B000CA0100C0DF91CF911F910F91FF90EF9034
:1053C000DF90CF90BF90AF909F908F907F906F9025
:1053D0005F904F900895CF93AEEFA80FB62FFB01CB
:1053E00080E090E02E2F2B1B2A17C8F4719148E023
:1053F00050E021E0C92FCC1FCC27CC1F880F991F6C
:1054000061E0322F372309F460E06C1719F035E0C2
:1054100083279058220F4150510961F7E3CFCF9174
:1054200008952F923F924F925F926F927F928F9248
:105430009F92AF92BF92CF92DF92EF92FF920F9323
:105440001F93CF93DF93CDB7DEB7A8970FB6F8942D
:10545000DEBF0FBECDBF5C014A01683028F0683066
:1054600031F008E410E005C004E210E002C000EAF8
:1054700011E0262E220C220C220CC12CD12C37E05C
:10548000332E42E0442E52E8552E6BE2662E61E147
:10549000762E39824A825B822C82C60125E0959560
:1054A00087952A95E1F78D83BE016F5F7F4F87E077
:1054B00090E091DF8E839F8347E0BE016F5F7F4F57
:1054C000C501CADE7C01892B19F06EEA71E10DC0BD
:1054D000C3010197F1F743E2BE016F5F7F4FC50142
:1054E0000CDF839751F06DE871E18BEA9FE00E9439
:1054F0009E56EE24E394F12C2EC0BE016F5F7F4FC9
:1055000083E290E068DF2AA128130AC08BA18913E7
:1055100007C0DE011296F401EC0DFD1DAF0108C0BD
:1055200066E771E1E2CF2817390764F48D91819322
:105530009F01241B350BC80101321105A4F380E241
:1055400090E0F1CF80E2C80ED11C00521109101674
:1055500011060CF49ECFC701A8960FB6F894DEBFD3
:105560000FBECDBFDF91CF911F910F91FF90EF90B4
:10557000DF90CF90BF90AF909F908F907F906F9073
:105580005F904F903F902F900895EF92FF920F936E
:105590001F93CF93DF93CDB7DEB7C654D1090FB6B3
:1055A000F894DEBF0FBECDBF7C0187E2898386E120
:1055B0008A8383E08B831C821D82FB01DE011696A9
:1055C000CB01809621912D93E817F907D9F7BE01F9
:1055D0006F5F7F4F87E290E0FEDE8EA39FA347E2DE
:1055E000BE016F5F7F4FC70137DE8C01892B39F514
:1055F0008BE39CE90197F1F744E0BE016F5F7F4FB9
:10560000C7017BDE049719F062E271E114C0BE01AC
:105610006F5F7F4F84E090E0DEDE2B81281303C0B4
:105620008C81891719F066E071E105C08A818823B1
:1056300041F06FEE70E18BEA9FE00E949E5601E020
:1056400010E0C801CA5BDF4F0FB6F894DEBF0FBE93
:10565000CDBFDF91CF911F910F91FF90EF900895F3
:10566000CF92DF92EF92FF920F931F93CF93DF932E
:10567000CDB7DEB7C654D1090FB6F894DEBF0FBE62
:10568000CDBF7C016A0181DF892B09F052C087E020
:10569000898381E48A8380E88B831C821D82BE011A
:1056A0006F5F7F4F87E090E096DE8E839F8347E0B9
:1056B000BE016F5F7F4FC701CFDD8C01892BA9F53C
:1056C0006CE370E080E090E00E94A05743E4BE01EC
:1056D0006F5F7F4FC70111DE8334910519F06AE5D2
:1056E00071E112C0BE016F5F7F4F83E490E073DE13
:1056F00023962FAD2397281305C024968FAD2497AA
:10570000891739F06FE371E18BEA9FE00E949E56A2
:105710000CC0DE011296F601C601805C9F4F2D91F0
:105720002193E817F907D9F702C001E010E0C8019A
:1057300000C0CA5BDF4F0FB6F894DEBF0FBECDBF0F
:10574000DF91CF911F910F91FF90EF90DF90CF905D
:1057500008950F931F93CF93DF93CDB7DEB7CC5847
:10576000D1090FB6F894DEBF0FBECDBF27E829835D
:1057700025E42A8322E02B8324E02C831D82FE0172
:1057800036969C01205C3F4FDC014D91CD01419349
:10579000A217B307C9F7FB018E010A5B1F4FCE01A9
:1057A0008A579F4F2191D8012D938D01A817B907D2
:1057B000C9F7BE016F5F7F4F87E890E00CDEF8010C
:1057C0008083C957DF4F9883C758D04047E8BE0150
:1057D0006F5F7F4F80EC90E03FDD8C01892B19F0EB
:1057E0006AEE7FE026C06CE370E080E090E00E940B
:1057F000A05744E0BE016F5F7F4F80EC90E07DDDFD
:10580000049719F06CEC7FE014C0BE016F5F7F4F0E
:1058100084E090E0E0DD2B81281303C08C818917A0
:1058200019F06FEA7FE005C08A81882341F066EABB
:105830007FE08BEA9FE00E949E5601E010E0C801E5
:10584000C457DF4F0FB6F894DEBF0FBECDBFDF9158
:10585000CF911F910F910895EF92FF920F931F9395
:10586000CF93DF93CDB7DEB7A8970FB6F894DEBF1E
:105870000FBECDBF7C0187E089838BE18A831B82C9
:105880001C821D82BE016F5F7F4F87E090E0A3DD29
:105890008E839F8347E0BE016F5F7F4F80EC90E077
:1058A000DBDC8C01892B19F068E87FE011C06EE128
:1058B00070E080E090E00E94A05743E2BE016F5F7D
:1058C0007F4F80EC90E019DD839749F06AE67FE036
:1058D0008BEA9FE00E949E5601E010E019C0BE01D5
:1058E0006F5F7F4F83E290E076DD2AA1281303C02B
:1058F0008BA1891719F06DE47FE0EACFDE011296E3
:10590000F701C70180962D912193E817F907D9F780
:10591000C801A8960FB6F894DEBF0FBECDBFDF91C9
:10592000CF911F910F91FF90EF9008958F929F92CA
:10593000AF92BF92CF92DF92EF92FF920F931F939D
:10594000CF93DF93CDB7DEB7C054D2400FB6F894F3
:10595000DEBF0FBECDBF80910402882331F06DE021
:1059600073E18BEA9FE00E949E5680910402882397
:1059700031F063EF72E18BEA9FE00E947A56E0918A
:1059800093058FE0E89FF0011124E855FD4F8381D6
:10599000AE014F5F5F4F6BE090E043DD892B09F074
:1059A000CAC05E01A5E0AA0EB11CFE01EF55FE4F74
:1059B000CF018096D5016F012D912193E817F9074A
:1059C000D9F77E01B9E2EB0EF11CD60190964E019B
:1059D00089E4880E911CF70181918D93E815F905F2
:1059E000D9F7E0919305AFE0EA9FF0011124E85563
:1059F000FD4F8381AE014F5F5F4F6CE090E011DDA2
:105A0000892B09F098C0C6010E943651892B09F0F4
:105A100092C068E672E0CE0101969BDE892B09F008
:105A20008AC080910402882331F06CEE72E18BEA27
:105A30009FE00E949E5680910402882331F062ED1F
:105A400072E18BEA9FE00E947A56E0919305BFE0F5
:105A5000EB9FF0011124E855FD4F8381AE014F5FAC
:105A60005F4F69E090E0DDDC892B09F064C0FE0146
:105A7000EF51FE4FCF0180968F01D5012D915D0131
:105A80002193E817F907C9F7F801B096D7018D916E
:105A90007D018193A815B905C9F7E0919305BFE091
:105AA000EB9FF0011124E855FD4F8381AE014F5F5C
:105AB0005F4F6AE090E0B5DC892B09F03CC0C8017B
:105AC0000E943651892BB9F5B601CE01019641DE0F
:105AD000892B89F580910402882331F06BEC72E107
