:100000000C943F200C9470200C9470200C94702061
:100010000C9470200C9470200C9470200C94702020
:100020000C9470200C9470200C9470200C94702010
:100030000C9470200C9470200C9470200C94702000
:100040000C9470200C9470200C9470200C947020F0
:100050000C9470200C9470200C9470200C948343AA
:100060000C9470200C94E9640C94C0640C9470207F
:100070000C9470200C9470200C9470200C947020C0
:100080000C9470200C9470200C9470200C947020B0
:100090000C9470200C9470200C9470200C941F65AC
:1000A0000C9470200C9470200C9470200C94702090
:1000B0000C9470200C9470200C9470200C94702080
:1000C0000C9470200C9470200C9470200C94702070
:1000D0000C9470200C9470200C9470200C94702060
:1000E0000C94702067216F2275227D228B25AB2511
:1000F000CF25F52515268726A626CB26F326FC2612
:10010000AF27BC2A582B752BF922BB270829E524D9
:10011000112539256225B229D829FE29242A4A2AFF
:10012000702A962A4F2435214E211C2166298C29BC
:100130001A29402901241C231C2336233623362365
:1001400050238923C4235023AA23DE2389236F232A
:1001500089237324E1248524852485249724C12DB3
:10016000C0249724C12DD224C12DAE24C12D7026C8
:100170008426742674267426782684267C2678267F
:100180008426802629402C401B401F402540634088
:10019000304034403A403E40424048404C4050405D
:1001A000634056405A405E40D35DE85DE55DDF5DEB
:1001B000E25DD95DDC5DD65D07634236B79BD8A7AB
:1001C0001A39685618AEBAAB558C1D3CB7CC57637C
:1001D000BD6DEDFD753EF6177231BF000000803F2A
:1001E00008000000BE922449123EABAAAA2ABECD46
:1001F000CCCC4C3E00000080BEABAAAAAA3E0000B8
:100200000000BF000000803F0000000000084178AF
:10021000D3BB4387D1133D190E3CC3BD4282AD2BE6
:100220003E68EC8276BED98FE1A93E4C80EFFFBEDE
:1002300001C4FF7F3F00000000006364696E6F70BF
:10024000737578585B004E616D652020202020205A
:1002500020204461746520202020202020202020A0
:1002600020202020202020202020202053697A6573
:100270000053442069732077726974652070726F2F
:100280007465637465642100446F6E6520776974DA
:1002900068206C6F61642066726F6D2053442E007D
:1002A000426164207265636F7264207479706500C6
:1002B0004552524F523A2041646472657373207004
:1002C00061737420656E64206F66207061727421A2
:1002D0000042616420636865636B73756D005265ED
:1002E000636F7264203E203332206279746573003C
:1002F0004572726F722072656164696E672066690B
:100300006C6521004572726F72206F70656E696E48
:10031000672066696C65210038206368617273200C
:100320006D61782C206E6F20657874656E73696FCF
:100330006E3A2000456E7465722066696C65206EA9
:10034000616D6520666F72207265616400506C6536
:1003500061736520696E7365727420616E20534409
:10036000206361726420666972737421004761734F
:1003700020676175676520686173206265656E201E
:10038000756E7365616C65642100556E7365616C93
:10039000206761732067617567653F204152452082
:1003A000594F5520535552453F3F3F2028792F6ED6
:1003B000293F004761732067617567652068617335
:1003C000206265656E207365616C6564210047611C
:1003D0007320676175676520686173206265656E6B
:1003E00020726573657421004572726F72207365A7
:1003F0006E64696E6720726573657400526573651B
:1004000074206761732067617567653F20415245BD
:1004100020594F5520535552453F3F3F2028792FB3
:100420006E293F004E6F20676173206761756765B5
:100430003F00426164207265616421004572726F01
:10044000722073657474696E6720726567207265C7
:100450006164004572726F722073657474696E67AF
:10046000206374726C2F737461747573207265618C
:1004700064004572726F722073657474696E6720D0
:1004800068696265726E61746500536574204655D3
:100490004C4C534C454550206269742028792F6E8E
:1004A000293F004E6F206761732067617567653F64
:1004B000004E6F2076616C69642050502B2064617F
:1004C000746120746F2073686F77002500252020E9
:1004D00020437269746963616C3A200025202020F2
:1004E00056657279204C6F773A20006D6148722012
:1004F00020204C6F773A2000436170616369747902
:100500003A20002F002F0020202044617465204DE8
:100510006164653A200053657269616C204E756DA7
:100520003A2000457874656E646564205061727489
:10053000206E756D6265723A20003F3F3F00205289
:1005400065763A002D0053796D626F6C20506172B0
:1005500074206E756D6265723A2000466F726D612F
:1005600074205265763A20004E6F2076616C696483
:10057000205050206461746120746F2073686F771D
:1005800000446F6E6520776974682066696C652029
:100590006C6F61642E00426164207265636F7264E7
:1005A0002074797065004552524F523A204164647C
:1005B00072657373207061737420656E64206F665A
:1005C0002070617274210042616420636865636B0E
:1005D00073756D00204279746573005265636F72A4
:1005E00064203E200053746F70706564206279202F
:1005F00075736572210053656E642066696C6520B1
:100600006E6F772C2045534320746F2063616E63B7
:10061000656C2E2E2E004261642067617320677521
:100620006167652C20756E61626C6520746F206651
:10063000697820626174746572792100436865632A
:100640006B696E6720666F722076616C6964204703
:1006500061732047617567653A2000506173736567
:1006600064004661696C656400436865636B73751B
:100670006D206572726F7220696E204A454954413F
:10068000206461746100436865636B73756D2065F8
:1006900072726F7220696E206865616C7468206484
:1006A00061746100436865636B73756D2065727278
:1006B0006F7220696E2031373235206461746100B9
:1006C000436865636B73756D206572726F72206924
:1006D0006E207374617274757020766F6C746167CC
:1006E0006500436865636B73756D206572726F7228
:1006F00020696E206368617267657220636F6E7433
:10070000726F6C206461746100436865636B73751C
:100710006D206572726F7220696E207365636F6EF3
:1007200064206167677265676174652063686172E0
:10073000676520626C6F636B00436865636B7375FC
:100740006D206572726F7220696E206669727374B3
:1007500020616767726567617465206368617267AD
:100760006520626C6F636B00436865636B73756DC6
:10077000206572726F7220696E20646174612066F8
:10078000726F6D20302D31393900436865636B20FD
:10079000514320505020646174613A2000556E73BB
:1007A0007570706F7274656420646174612074790F
:1007B0007065210008200800426174746572792018
:1007C00074797065206E6F74206368616E6765640C
:1007D00021002A2A2A2A20616E6420426174742B27
:1007E000206F6E207468697320626F78212020204A
:1007F00020202A2A2A2A002A2A2A2A20746F2062E4
:100800006174742065787465726E616C20706F77A6
:1008100065722070696E202A2A2A2A002A2A2A2A2A
:1008200020466F72204D4339352042617474732025
:10083000737570706C7920332E3356202A2A2A2A39
:10084000004E6F7420612076616C69642063686F6C
:100850006963652C206261747465727920747970A3
:1008600065206E6F74206368616E67656421005354
:10087000656C656374206261747465727920747943
:1008800070653A20003F20202D2068656C70206D37
:10089000656E75005354415420202D2053686F77A6
:1008A0002063757272656E74207374617475730061
:1008B00056455242202D20546F67676C652076653F
:1008C00072626F7365206D6F64650056455220201B
:1008D0002D2053686F772076657273696F6E20697B
:1008E0006E666F726D6174696F6E004449522020AC
:1008F0002D204469726563746F7279206F6620538E
:1009000044206361726400534620202D2053617699
:10091000652062756666657220746F2066696C6515
:10092000206F6E2053442063617264004C46202087
:100930002D204C6F61642061206865782066696CA9
:10094000652066726F6D2074686520534420636172
:10095000726400445320202D2044756D7020627510
:1009600066666572206F76657220746865207365AF
:100970007269616C20636F6E6E656374696F6E205F
:100980006173206865782066696C65004C5320208F
:100990002D204C6F6164206865782066696C652045
:1009A0006F766572207468652073657269616C206A
:1009B000636F6E6E656374696F6E20696E746F200D
:1009C000627566666572004520202D204572617350
:1009D0006520627566666572005645202D20566555
:1009E0007269667920626174746572792045455038
:1009F000524F4D20616761696E737420627566663F
:100A00006572005545202D20557064617465206223
:100A100061747465727920454550524F4D2066725D
:100A20006F6D20627566666572005745202D2057F0
:100A300072697465206261747465727920454550ED
:100A4000524F4D2066726F6D20627566666572004A
:100A50005245202D20526561642062617474657274
:100A60007920454550524F4D20696E746F20627554
:100A700066666572005641202D205665726966795A
:100A800020626174746572792041757468206368AE
:100A90006970206461746120616761696E7374209C
:100AA000627566666572005541202D20557064613F
:100AB0007465206261747465727920417574682070
:100AC0006368697020646174612066726F6D206272
:100AD0007566666572005741202D205772697465EE
:100AE000206261747465727920417574682063684E
:100AF000697020646174612066726F6D2062756632
:100B0000666572005241202D205265616420626149
:100B10007474657279204175746820636869702007
:100B20006461746120696E746F20627566666572B7
:100B30000041202D20436865636B206261747465F9
:100B400072792061757468656E7469636174696F28
:100B50006E206368697000564244202D2056616CF7
:100B6000696461746520626174746572792064617E
:100B700074610053474746202D2053617665204716
:100B8000617320476175676520466C6173682064F6
:100B900061746120696E206865782066696C650003
:100BA00044474746202D2044756D702047617320CF
:100BB000476175676520466C617368206461746184
:100BC0000055534747202D20556E7365616C2047B3
:100BD000617320476175676500534747202D205397
:100BE00065616C20476173204761756765005247F6
:100BF00047202D205265736574204761732047613B
:100C00007567650046534747202D2053657420467D
:100C1000554C4C534C454550206269740048474739
:100C2000202D2050757420476173204761756765DA
:100C300020696E746F2068696265726E61746520E8
:100C40006D6F64650044474748202D2044697370E8
:100C50006C61792047617320476175676520726513
:100C60006769737465727320696E206865780044E3
:100C70004747202D20446973706C61792047617368
:100C80002047617567652072656769737465727363
:100C9000004450502B202D20446973706C617920E2
:100CA00050502B20626174746572792064617461A4
:100CB00000445050202D20446973706C617920509D
:100CC0005020626174746572792064617461004DB2
:100CD00042202D204D616E756661637475726520CA
:100CE000426174746572790042202D2053656C65F1
:100CF0006374206261747465727920747970650020
:100D000043757272656E746C7920417661696C61AD
:100D1000626C6520436F6D6D616E64733A003E20B6
:100D200000556E6B6E6F776E20636F6D6D616E64D4
:100D30000020617574682063686970206461746163
:100D40002028792F6E293F0055706461746520005A
:100D500020454550524F4D20646174612028792F01
:100D60006E293F0055706461746520004175746898
:100D70002063686970206973204F4B2100426174C1
:100D80007465727920697320646F6E652100426119
:100D9000747465727920697320646F6E65210042F6
:100DA00061747465727920697320646F6E652100C7
:100DB0004261747465727920697320646F6E652175
:100DC000004261747465727920697320646F6E6586
:100DD00021004261747465727920697320646F6EBA
:100DE0006521004261747465727920666978656472
:100DF0002C20706C656173736520726572756E204E
:100E00007468652076616C69646174696F6E005501
:100E10006E61626C6520746F20666978206261740F
:100E200074657279212121004E6F7468696E6720A4
:100E3000746F20646F2C206261747465727920690C
:100E400073204F4B2100426174746572792069737D
:100E5000204F4B21004261747465727920697320C0
:100E60004F4B210042617474657279206973204F81
:100E70004B210042617474657279206973204F4B75
:100E8000210042617474657279206973204F4B218F
:100E90000042617474657279206973204F4B2100A0
:100EA00042617474657279206973204F4B2100424E
:100EB000617474657279206973204F4B210057610A
:100EC000726E696E673A204E6F7720736B6970702F
:100ED000696E672073657269616C206E756D6265FD
:100EE0007220636865636B21004E6F7720646F69C1
:100EF0006E672073657269616C206E756D626572D4
:100F000020636865636B005761726E696E673A2093
:100F10004E6F7720736B697070696E67206C6F77A6
:100F200020766F6C7461676520636865636B210070
:100F30004E6F7720646F696E67206C6F7720766FD5
:100F40006C7461676520636865636B0056657262E7
:100F50006F73653A204F6E00566572626F73653A23
:100F6000204F6666000820080052656164204F4BE0
:100F7000210042616420736C6F7438207265616473
:100F80003A200052656164696E6720736C6F743833
:100F900020646174613A20002041757468206368A0
:100FA000697020696E746F206275666665722028AC
:100FB000792F6E293F005265616420004F4B004538
:100FC00072726F722061743A2000436865636B69C6
:100FD0006E673A20004F4B0042616420736C6F745F
:100FE0003820726561643A200052656164696E67F9
:100FF00020736C6F743820646174613A200045720C
:10100000726F7220696E20777269746520736C6FDD
:1010100074004661696C656420746F206765742094
:10102000777269746520736C6F7420726573706F6A
:101030006E6365004661696C656420746F2073653A
:101040006E6420777269746520736C6F7420636FAF
:101050006D6D616E64004F4B0057726974696E6705
:1010600020736C6F743820646174613A200020280A
:10107000792F6E293F004F7665727772697465200B
:1010800000496E76616C696420534E2100466169A7
:101090006C656420746F207265616420736C6F747A
:1010A000004661696C656420746F2073656E64200E
:1010B0007265616420736C6F7420636F6D6D616E17
:1010C00064004661696C656420746F2067657420F4
:1010D00072616E646F6D20726573706F6E63650010
:1010E0004661696C656420746F2073656E6420527C
:1010F000616E646F6D20636F6D6D616E640042613F
:10110000642073696721004661696C656420746FAF
:1011100020676574207665726966792072657370E0
:101120006F6E6365004661696C656420746F20733F
:10113000656E642056657269667920636F6D6D61B6
:101140006E640042616420436F6E6669672061745B
:101150002000436F6E666967206172656120756E5D
:101160006C6F636B656421212100446174612061AF
:1011700072656120756E6C6F636B6564212121005F
:1011800042616420436F6E666967206174200001CC
:101190002300000000000000000000DE000100D07D
:1011A000005506830FC4448720C4448F0F8F8F9F40
:1011B0008F82200F0F0F8F0F8F0F8F0F8F0F0F0F3B
:1011C0000F0F0FFFFFFFFF00000000FFFFFFFF00FA
:1011D000000000FFFFFFFFFFFFFFFFFFFFFFFFFF1C
:1011E000FFFFFF00000000FFFF00000000000013F1
:1011F000005C0013005C003C001C001C0033003C41
:101200000010001C0010001C003C003C003C00537F
:101210006B6970696E6720534E20636865636B006D
:1012200042616420534E00436865636B20636F6EB8
:1012300066696720617265613A20004572726F725B
:1012400020696E206E6F6E636520636F6D6D616ED9
:1012500064004661696C656420746F206765742062
:101260006E6F6E636520726573706F6E63650046A6
:1012700061696C656420746F2067657420736967A9
:101280006E20726573706F6E7365004661696C6580
:101290006420746F20676574207265616420736CCC
:1012A0006F7420726573706F6E6365004661696C60
:1012B000656420746F2073656E64207265616420BC
:1012C000736C6F7420636F6D6D616E64004661694D
:1012D0006C656420746F207265616420636F6E6654
:1012E00069672061726561004661696C656420749C
:1012F0006F2073656E64207265616420636F6E6633
:10130000696720636F6D6D616E64004352432065B1
:1013100072726F72206F6E20726561640042756632
:1013200066657220746F20736D616C6C20666F72DD
:101330002072656164004572726F72206765747413
:10134000696E67207061636B65742073697A6520CC
:101350006F6E2072656164004572726F72207772E1
:101360006974696E67206461746100556E7375708D
:10137000706F727465642064617461207479706543
:1013800021004572726F723A20004661696C656493
:1013900020746F206765742067656E6B65792072B5
:1013A0006573706F6E7365004661696C6564207467
:1013B0006F2073656E642067656E6B657920636F5F
:1013C0006D6D616E64005369673A00426164207319
:1013D00069676E696E6700486173683A00446576B4
:1013E000696365207369673A0044657669636520BF
:1013F000507562204B65792C2066726F6D2050729B
:1014000076204B6579004465766963652050756286
:10141000204B6579005369676E65722073696700B8
:101420005369676E6572207075626C6963206B65C5
:1014300079005265763A0053657269616C3A0050E2
:10144000617373656400426164207369676E696EDD
:101450006700436865636B20646576696365207027
:10146000726976617465206B65793A20005061730A
:1014700073656400436865636B20646576696365C2
:10148000207075626C6963206B65793A2000506149
:101490007373656400D6B742B029AE01775A202332
:1014A0005AD463F202A6C9B1EF03F4FDFB6F17FD36
:1014B000A9305AB777EA831C279F3D037191078AA9
:1014C0001B983304B21F1061BF1EB337DF3FEA041D
:1014D00021AA8A7055436865636B207369676E65DE
:1014E00072207075626C6963206B65793A200050D8
:1014F000617373656400436865636B73756D206524
:1015000072726F7220696E205050206865616C7431
:1015100068206461746100436865636B73756D2056
:101520006572726F7220696E2050502031373235EB
:10153000206461746100436865636B73756D206539
:1015400072726F7220696E206669727374205050D7
:101550002062617474657279206C69666520626CC2
:101560006F636B00436865636B73756D20657272A2
:101570006F7220696E206669727374205050206209
:10158000617474657279206C69666520626C6F6342
:101590006B00436865636B73756D206572726F7263
:1015A00020696E20505020646174612066726F6DF6
:1015B00020302D31353600436865636B204D504136
:1015C0003220505020646174613A2000556E73756A
:1015D00070706F72746564206461746120747970D6
:1015E000652100556E737570706F72746564206448
:1015F00061746120747970652100556E7375707027
:101600006F727465642064617461207479706521FF
:1016100000577269746520446F6E65204F4B21003E
:10162000496E746572727570746564206279207594
:10163000736572004572726F722077726974696E99
:10164000672064617461004572726F7220777269FD
:1016500074696E67206164647265737300537461AA
:101660007274696E672077726974652E2E2E002061
:10167000454550524F4D2028792F6E293F004F7617
:101680006572777269746520002020202020202058
:1016900020202020612062617474657279206D6160
:1016A0006B696E67206974206E6F6E2D6F70657246
:1016B0006174696F6E616C212121212100574152B3
:1016C0004E494E473A204F76657277726974696E5B
:1016D0006720616C6C2074686520454550524F4D01
:1016E00020646174612063616E20756E2D6D616E82
:1016F00075666163747572650056657269667920F6
:101700004F4B2100496E7465727275707465642068
:10171000627920757365720020454550524F4D3AED
:101720002000204275666665723A20004552524F8D
:10173000522061742000426164207265616421005E
:101740004572726F722077726974696E6720616486
:1017500064726573730020454550524F4D205665A5
:10176000726966792E2E2E005374617274696E67E9
:10177000200052656164204F4B2100496E746572F0
:1017800072757074656420627920757365720042A9
:101790006164207265616421004572726F72207706
:1017A000726974696E672061646472657373005353
:1017B00074617274696E6720726561642E2E2E00EA
:1017C00020454550524F4D20696E746F20627566FA
:1017D0006665722028792F6E293F0052656164206A
:1017E000004261642074656D7021212100426164B2
:1017F000207265616421004572726F722073657496
:1018000074696E6720726567207265616400457255
:10181000726F722073657474696E67206374726C82
:101820002F7374617475732072656164004E6F204C
:101830006761732067617567653F005365636F6E0D
:1018400064732073696E63652066697273742075B2
:1018500073653A200042616420726561642100452D
:1018600072726F722073657474696E672072656737
:101870002072656164004572726F722073657474C2
:10188000696E67206374726C2F7374617475732052
:1018900072656164004572726F7220736574746959
:1018A0006E672068696265726E6174650045727268
:1018B0006F722073657474696E67206869626572FF
:1018C0006E6174650050757420676173206761757F
:1018D000676520696E746F2068696265726E6174F5
:1018E000652028792F6E293F004E6F206761732095
:1018F00067617567653F00426164207265616421BC
:10190000004572726F722073657474696E6720721D
:1019100065672072656164004572726F722073653D
:101920007474696E67206374726C2F73746174755C
:10193000732072656164004572726F722073656E08
:1019400064696E67206669727374206B65790045FF
:1019500072726F722073656E64696E672066697259
:101960007374206B6579003E2000496E76616C6966
:101970006420736F66747761726520666F7220747D
:101980006869732064657669636521212100466F6B
:1019900072205A6562726120496E632E20696E74EE
:1019A00065726E616C20757365204F4E4C59212114
:1019B0002100496E76616C696420617574682063EA
:1019C0006869702C2068697420616E79206B657974
:1019D0002E2E2E004261747465727920766F6C74BD
:1019E0006167652064657465637465642C20706C40
:1019F000656173652072656D6F76652062617474D0
:101A000065727920746F2070726F636565642E0053
:101A10003E200000002100240027002A002D003075
:101A200000330001010000040107010A0100002247
:101A300000250028002B002E003100340002010098
:101A400000050108010B01000020002300260029E9
:101A5000002C002F003200000100000301060109E4
:101A60000105050505070508080808020202020A23
:101A70000A08080404040401010101010101010331
:101A800003030303030303040707070C0C0C0C0CEC
:101A90000C0C0C0202020206060606060606060BDF
:101AA0000B0B0B0B0B0B0B01021020200808102056
:101AB00040102040800201020108040201010204DA
:101AC0000810204080804020100804020180040299
:101AD00001804020100804020108040201010204F0
:101AE0000810204080010204081020408000000AF5
:101AF0000B02090C0D0E0807030401000000000092
:101B000000000000000000000000000000000000D5
:101B10000000000000000000001211100000000092
:101B200000000000000000000000000000000000B5
:101B3000000000506173736564004661696C656400
:101B400000436865636B73756D206572726F7220F8
:101B5000696E2050502066617374206368617267FB
:101B600065206461746100436865636B73756D2003
:101B70006572726F7220696E205050203839353688
:101B80002044545349206461746100436865636B69
:101B900073756D206572726F7220696E20505020CF
:101BA000657874656E6465642070617274206E750A
:101BB0006D62657200436865636B73756D20657255
:101BC000726F7220696E205050206865616C746875
:101BD000206461746100436865636B73756D206593
:101BE00072726F7220696E2050502031373235206A
:101BF0006461746100436865636B73756D20657221
:101C0000726F7220696E2050502063686172676540
:101C10007220636F6E74726F6C2064617461004334
:101C20006865636B73756D206572726F7220696E83
:101C3000207365636F6E6420505020616767726522
:101C4000676174652063686172676520626C6F63A9
:101C50006B00436865636B73756D206572726F729C
:101C600020696E2066697273742050502061676726
:101C70007265676174652063686172676520626C74
:101C80006F636B00436865636B73756D206572727B
:101C90006F7220696E2050502064617461206672FA
:101CA0006F6D20302D32333900436865636B2051EE
:101CB0004320505020646174613A20004572726F75
:101CC000722072656164696E672066726F6D20664E
:101CD000696C652E004572726F722072656164696D
:101CE0006E672066726F6D2066696C652E004661B6
:101CF000696C656420746F2067657420656E64206C
:101D0000726573706F6E6365004572726F722069E1
:101D10006E2075706461746520636F6D6D616E64B3
:101D2000004661696C656420746F20676574207576
:101D3000706461746520726573706F6E63650046D0
:101D400061696C656420746F2073656E642053480C
:101D5000412075706461746520636F6D6D616E64A0
:101D6000004572726F7220696E2073746172742004
:101D7000636F6D6D616E64004661696C65642074AB
:101D80006F2067657420737461727420726573705C
:101D90006F6E6365004661696C656420746F2073C3
:101DA000656E642053484120737461727420636FC0
:101DB0006D6D616E64007C3C3E5E2B3D3F2F5B5D34
:101DC0003B2C2A225C004265617374204175746863
:101DD00000426561737420454550524F4D00536574
:101DE0006E74727920417574680053656E747279EF
:101DF00020454550524F4D004861776B6579652FFE
:101E0000544332300046616C636F6E00506F6C6CEF
:101E10007578004C696768746E696E6720417574E7
:101E2000680049726F6E4D616E004672656E7A7918
:101E30002F57543630303000526F7567652F54433A
:101E400038303030004D4331382050502B004D4356
:101E50003935205050004D504132205050004E6FC7
:101E60002042617474657279000820080042616440
:101E7000207265616421004572726F72207365740F
:101E800074696E6720757020626C6F636B20726579
:101E90006164004572726F722077726974696E674F
:101EA000206D616E6620626C6F636B4320636F6DA3
:101EB0006D616E6400426164207265616421004559
:101EC00072726F722073657474696E67207570200A
:101ED000626C6F636B2072656164004572726F7231
:101EE0002077726974696E67206D616E6620626C1E
:101EF0006F636B4220636F6D6D616E64004261645D
:101F0000207265616421004572726F72207365747E
:101F100074696E6720757020626C6F636B207265E8
:101F20006164004572726F722077726974696E67BE
:101F3000206D616E6620626C6F636B4120636F6D14
:101F40006D616E64004261642072656164210045C8
:101F500072726F722077726974696E67206465733C
:101F600069676E2063617020636F6D6D616E6400E0
:101F7000426164207265616421004572726F722053
:101F800077726974696E67206D616E6620494420BE
:101F9000636F6D6D616E640042616420726561649F
:101FA00021004572726F722073657474696E6720C8
:101FB00075702076657273696F6E20747970652014
:101FC00072656164004572726F722077726974691C
:101FD0006E67206765742076657273696F6E206323
:101FE0006F6D6D616E640042616420726561642191
:101FF000004572726F722073657474696E67207524
:1020000070206465766963652074797065207265F7
:102010006164004572726F722077726974696E67CD
:1020200020676574206465766963652074797065DE
:1020300020636F6D6D616E64004E6F206761732069
:1020400067617567653F0047617320676175676504
:1020500020686173206265656E207365616C6564DC
:10206000004572726F722073656E64696E672073CB
:1020700065616C004E6F20676173206761756765ED
:102080003F00426164207265616421004572726F95
:10209000722073657474696E6720757020626C6F4E
:1020A000636B2072656164004572726F7220777293
:1020B0006974696E67206D616E6620626C6F636B18
:1020C0004320636F6D6D616E6400426164207265D0
:1020D000616421004572726F722073657474696E59
:1020E0006720757020626C6F636B2072656164009D
:1020F0004572726F722077726974696E67206D61C4
:102100006E6620626C6F636B4220636F6D6D616EF3
:102110006400426164207265616421004572726FDF
:10212000722073657474696E6720757020626C6FBD
:10213000636B2072656164004572726F7220777202
:102140006974696E67206D616E6620626C6F636B87
:102150004120636F6D6D616E64004E6F2067617327
:102160002067617567653F00426164207265616444
:1021700021004572726F722073657474696E6720F6
:10218000757020626C6F636B2072656164004572CC
:10219000726F722077726974696E6720646174610E
:1021A00020666C61736820626C6F636B20636F6D77
:1021B0006D616E64004E6F206761732067617567A3
:1021C000653F002E002D002E004E6F2067617320AA
:1021D00067617567653F004343204761696E203D35
:1021E00020004F5420447367205265636F766572F8
:1021F00079203D20004F54204473672054696D6559
:10220000203D20004F5420447367203D20004F5450
:1022100020436867205265636F76657279203D20A0
:10222000004F54204368672054696D65203D2000AD
:102230004F5420436867203D20005B5361666574FE
:102240007928436F6E66696775726174696F6E296C
:102250005D004964656E74696679696E67204461E2
:1022600074613A200043656C6C2076656E646F7211
:1022700020636F64653A200043656C6C2069646577
:102280006E74696679696E672064617461006D7649
:10229000004375746F666620766F6C746167653A8B
:1022A00020006D76004F564C4F3A20006D76005559
:1022B000564C4F3A20006D76004D696E696D756D14
:1022C000207374617274757020766F6C74616765C9
:1022D0003A20004E6F7420612062617474657279D7
:1022E00020656C696D696E61746F7200497320615D
:1022F000206261747465727920656C696D696E61C4
:10230000746F720053443636302044617461206229
:102310006C6F636B003A20002043003A20002020BD
:102320002056003A202053746172742074656D70D9
:102330003A200052616E67650020202052656320BC
:102340006D61782074656D703A2000202020526500
:1023500063206D696E2074656D703A200020202026
:1023600053746F702074656D703A2000446174611D
:1023700020747970653A20004A45495441204461EF
:10238000746120626C6F636B002020496E20646171
:1023900079733A2000536563732073696E63652017
:1023A0006669727374207573653A200025202020B9
:1023B00054656D70657261747572653A2000436191
:1023C0007061636974793A20002F002F004D616EAF
:1023D0006620446174653A200053657269616C231C
:1023E0003A2000506172744E6577233A20005061A4
:1023F00072744578233A200050617274233A2000A9
:102400006D614872006D61482020205A54433A2083
:102410000020202054433A20004379636C65733ACE
:1024200020002500252020534F483A2000534F48D4
:10243000205468726573686F6C643A200020202015
:10244000466173744D696E3A20006D612020536CB3
:102450006F774D696E3A20006D612020446F6E6584
:102460003A20004E6561726C793A20006D76006DFD
:102470006120204D617843566F6C743A20006D7670
:102480002020466173744375723A20006D612020EC
:10249000536C6F772F466173743A2000536C6F77DB
:1024A0004375723A20002500252520204C6F773A8D
:1024B0002000252020556E66616972653A20006D06
:1024C00061202046616972653A200052617465643A
:1024D0003A2000312E33362E3146420045455052C7
:1024E0004F4D2050726F6772616D6D657220566539
:1024F0007273696F6E200050756C6C757020746F0C
:102500002030560050756C6C757020746F20332E1F
:1025100033560050756C6C757020746F2056426194
:1025200074740050756C6C757020746F2035560093
:1025300031304B2050756C6C75707300362E384BF3
:102540002050756C6C75707300352E314B205075B2
:102550006C6C75707300344B2050756C6C757073B7
:1025600000322E394B2050756C6C75707300332E11
:10257000344B2050756C6C75707300322E334B20C9
:1025800050756C6C757073004E6F2050756C6C7567
:102590007073200041637469766520636C6F636BB0
:1025A0002064726976650050617373697665206393
:1025B0006C6F636B206472697665005600426174CB
:1025C0007465727920566F6C746167653A200057A4
:1025D00061726E696E673A204E6F7720736B697017
:1025E00070696E67206C6F7720766F6C74616765B9
:1025F00020636865636B2100566572626F73653A8C
:10260000204F666600566572626F73653A204F6EA2
:10261000004E6F20426174746572792053656C6559
:1026200063746564210020454550524F4D207374FA
:102630006F72616765002041757468206368697016
:102640002073746F7261676500204279746573202E
:102650006F6600426174746572793A200042617459
:10266000746572792072656D6F766564210056001D
:102670004261747465727920696E73657274656401
:102680002C20766F6C746167653A2000466F756E1A
:10269000642077726974652070726F746563746505
:1026A0006420534420636172642100466F756E6438
:1026B00020534420636172642100426164205344CA
:1026C0002063617264210053442072656D6F7665EA
:1026D000642100506C656173652073656C6563747B
:1026E000206120626174746572792074797065204C
:1026F0006669727374210042617474657279207620
:102700006F6C74616765206D757374206265203E1F
:10271000200046756E6374696F6E206E6F7420734F
:102720007570706F72746564206F6E207468697361
:1027300020626174746572792074797065005468E0
:1027400065206461746120627566666572206973D4
:1027500020626C616E6B210042616420436861728B
:1027600061637465720042756666657220657261A8
:1027700073656400457261736520646174612062F1
:1027800075666665722028792F6E293F0046696C50
:1027900065207361766520646F6E652E003A303077
:1027A0003030303030314646005365742061636309
:1027B0006573732074696D65206661696C65642E4C
:1027C000005365742077726974652074696D6520A3
:1027D0006661696C65642E0053657420637265617F
:1027E00074652074696D65206661696C65642E008E
:1027F0004572726F72206F70656E696E67206669D0
:102800006C65210046696C65206578697374732C6A
:10281000206F76657277726974652028792F6E292A
:102820003F0038206368617273206D61782C206EE0
:102830006F20657874656E73696F6E3A2000456E1F
:102840007465722066696C65206E616D6520666FC7
:10285000722073617665004572726F723A20493258
:102860004320636C6F636B206973206C6F7721006A
:10287000446F696E672050502B206461746120752D
:1028800070646174652E2E2E00426164207265763C
:102890006973696F6E20627974652100446F696E97
:1028A000672051432050502064617461207570642A
:1028B0006174652E2E2E004865782066696C65204F
:1028C0006F757470757420646F6E652E003A3030C9
:1028D000303030303031464600496E746572727562
:1028E000707465642062792075736572004869743C
:1028F00020616E79206B657920746F20737461722A
:1029000074206865782066696C65206F75747075D1
:10291000742C207468656E2068697420616E6F7411
:10292000686572206B6579207768656E20646F6ECC
:10293000650056616C696420516D6178206379632C
:102940006C65733A002020496E20646179733A20E7
:1029500000536563732073696E63652066697273E3
:1029600074207573653A200025002520204361708E
:1029700061636974793A004865616C74683A002053
:102980002046756C6C20436872673A0020205265BF
:102990006D61696E696E673A00202046756C6C2027
:1029A000417661696C3A004E6F6D696E616C2041D1
:1029B0007661696C3A002020202043617061636970
:1029C00074696573002020202000445347200020B4
:1029D0002020202000534F4346200020202020208C
:1029E00000534F4331200020202020202020202091
:1029F000004F43565F5052454420002020202020A5
:102A00002020202020004F43565F54414B454E204C
:102A10000020202020202020202000524D4643432B
:102A20005F454E2000204C6F773A202000486967B0
:102A3000683A2020004C6F7720427974650020208E
:102A4000202000434847200020202000464320004B
:102A5000202020202000584348472000202020200C
:102A600020202020004348475F494E482000202076
:102A70002020004F5444200020202020004F5443A9
:102A80002000204C6F773A202000486967683A2080
:102A90002000486967682042797465006D61006DA7
:102AA00076202020437572723A20004465672043E7
:102AB000202020566F6C743A200054656D703A20C7
:102AC00000202020200051454E2000202020200002
:102AD000564F4B200020202020202020200052553F
:102AE000505F44495320002020202020004C444DBA
:102AF00044200020202020202000534C4545502019
:102B000000202020202020202020200046554C4C52
:102B1000534C4545502000202020202020202020FC
:102B2000200048494245524E415445200020202073
:102B30002020202020200053485554444F574E2039
:102B400000204C6F773A202000486967683A2020BF
:102B5000004C6F77204279746500202020202000EF
:102B600049424157200020202020004243412000BC
:102B7000202020200043434120002020202000432B
:102B800053562000202020005353200020202020D6
:102B90000046415320002020200053452000204CB7
:102BA0006F773A202000486967683A20200048691A
:102BB00067682042797465002020202020436F6ED2
:102BC00074726F6C2F537461747573007641115475
:102BD000AEC5EE464951F2234A72F9912818B1F177
:102BE00028BF0C6DB5B451B2E19057579F873D2671
:102BF0009DD62D19BE95165937F45783B530364EEC
:102C0000C2D1397CA2CB9110F5BFAA544E6F746526
:102C10003A204E6F2063656C6C206964656E746940
:102C2000747920646174610050617373656400425B
:102C300061642063656C6C206964656E7469747985
:102C4000206461746120636865636B73756D004314
:102C5000656C6C206964656E746974792064617454
:102C6000613A20004E6F74653A204E6F205344360F
:102C70003630206461746100506173736564004292
:102C800061642053444D36363020646174612063A2
:102C90006865636B73756D0053443636302064612C
:102CA00074613A20004E6F74653A204E6F204A4599
:102CB000495441206368617267696E67206461747A
:102CC000610050617373656400426164204A454944
:102CD000544120636865636B73756D004A454954C0
:102CE00041206368617267696E6720646174613A4C
:102CF0002000506173736564004261642064796EE2
:102D00003320636865636B73756D00426164206492
:102D1000796E3420636865636B73756D004E6F74F4
:102D2000653A20626C6B32204944206E6F742073C8
:102D300065742000426164204D494420696E206220
:102D40006C6B32004E6F74653A20626C6B312049B7
:102D500044206E6F74207365742000426164204DBE
:102D6000494431004261642064796E3220636865B1
:102D7000636B73756D004261642064796E3120630A
:102D80006865636B73756D0044796E616D6963206E
:102D9000626C6F636B733A200050617373656400FB
:102DA0004D616E7566616374757265204944204E8D
:102DB0006F6E2D7A65726F20706164206279746520
:102DC00073004D616E756661637475726520494468
:102DD000206D69736D61746368004D616E75666125
:102DE000637475726520494420626C6F636B3A208E
:102DF0000050617373656400426164207374617490
:102E0000696320666163746F727920626C6F636BB3
:102E100020636865636B73756D00537461746963D7
:102E200020666163746F727920626C6F636B3A2005
:102E30000050617373656400426164206672656569
:102E4000206461746120626C6F636B3A2000200023
:102E500042616420474720626C6F636B20616C6C39
:102E60006F636174696F6E206279746500474720F3
:102E7000626C6F636B20616C6C6F636174696F6E01
:102E80003A2000506173736564004261642073747A
:102E9000617469632064617461206172656120649A
:102EA0006174612074797065005374617469632082
:102EB0006461746120617265612064617461207471
:102EC0007970653A200050617373656400426164F3
:102ED0002073746174696320617265612063686541
:102EE000636B73756D0053746174696320646174FE
:102EF00061206172656120636865636B73756D3A0B
:102F00002000436865636B696E6720454550524FEA
:102F10004D2F417574682063686970206461746125
:102F200000536B697070696E672047617320476159
:102F30007567652074657374732121210050617376
:102F400073656400426164206D616E662064617423
:102F500061207479706500426164206D616E662045
:102F6000636865636B73756D00426164206D616EAB
:102F70006620666978656420626C6F636B004261ED
:102F800064204669726D7761726520566572736957
:102F90006F6E0042616420446576696365205479F0
:102FA000706500436865636B2047617320476175F6
:102FB00067653A00202020436F6E74696E75652046
:102FC0006F7065726174696F6E2028792F6E293F6A
:102FD00000446F6E6520666978696E67206261746F
:102FE00074657279206461746100FB3221DFE4F161
:102FF00079617BBAFC23F04795EB2063656C6C200C
:103000006964656E74696679696E6720646174616C
:10301000004B656570696E6700436C656172696E2F
:1030200067004B656570696E672050502B2064798E
:103030006E616D696320626C6F636B203400526552
:10304000706C6163696E672050502B2064796E61EB
:103050006D696320626C6F636B20342077697468DC
:1030600020626C6F636B2033004B656570696E671F
:103070002050502B2064796E616D696320626C6F03
:10308000636B2033005265706C6163696E6720501A
:10309000502B2064796E616D696320626C6F636B85
:1030A0002033207769746820626C6F636B20340072
:1030B000436C656172696E672050502B2064796E95
:1030C000616D696320626C6F636B73203320616E86
:1030D000642034004B656570696E672050502B206A
:1030E00064796E616D696320626C6F636B2032007E
:1030F0005265706C6163696E672050502B20647953
:103100006E616D696320626C6F636B20322077693A
:10311000746820626C6F636B2031004B6565706969
:103120006E672050502B2064796E616D6963206258
:103130006C6F636B2031005265706C6163696E6700
:103140002050502B2064796E616D696320626C6F32
:10315000636B2031207769746820626C6F636B2029
:103160003200436C656172696E672050502B206499
:10317000796E616D696320626C6F636B73203120BF
:10318000616E64203200FBEBE1C82ABD465AB7B439
:1031900085B35EEBF4312050502062617474657227
:1031A00079206865616C7468004B656570696E674D
:1031B00000436C656172696E67004B656570696E8E
:1031C00067207365636F6E6420505020616767727B
:1031D0006567617465206368617267652061726507
:1031E00061005265706C6163696E67207365636F1F
:1031F0006E64205050206167677265676174652056
:1032000063686172676520617265612077697468BF
:10321000206669727374004B656570696E6720661D
:1032200069727374205050206167677265676174BA
:10323000652063686172676520617265610052652F
:10324000706C6163696E6720666972737420505098
:103250002061676772656761746520636861726782
:103260006520617265612077697468207365636F9A
:103270006E6400436C656172696E67205050206116
:10328000676772656761746520636861726765204E
:10329000617265617300A50300000000000000007A
:1032A0000000001194120A109910981180119011C9
:1032B000726460605E5C5A50463C321E140A05829D
:1032C00000253BA1002A002D0005F93200991126A6
:1032D000008F8556493E35000000000000000000C8
:1032E00000000000000000000207010500BA006CA9
:1032F0000061024B0104009B0067005F030201456F
:1033000000B10069005E104F104E10441042103A98
:103310000FD50FED0FF40FF30FEE0F5A0F7B0F9237
:103320000F9B0FA10F180F320F560F640F600EEE98
:103330000EFE0F0A0F230F270ED40EDA0EE20EE652
:103340000EE40EA00EB20EBA0EB80EAE0E820E88AD
:103350000E990E990E880E570E680E680E650E5760
:103360000E020E300E420E3C0E260BB80BB80BB8F8
:103370000BB80BB8009B3C020400000000000000EA
:10338000000000000000000000000000000000003D
:10339000000000000000D00350800CD20FE614782B
:1033A00005F4011E006E00640000012C2DBA00001F
:1033B0000000000000004000E84268101A0400000D
:1033C00000000000000042542D3030303331382DE1
:1033D0003031254300000000001BF7FF070F171FC7
:1033E000272F3788A277C7B6FBF6A205D865926467
:1033F000CAA48E83CC09C950827480FA8428792AA1
:10340000838A788784057BDE81E49A8BBD40CA7D00
:103410000DCC833576197A636F3D831B78147FC991
:103420007276826F9831B7D7C36413D9112A60FBC3
:103430006A71FD3A453F315F4000005847CB395E25
:103440002C00000000000000000000DC6319637322
:1034500076B07B4E77BF6AC06E597AA8767169F3F1
:1034600085DCD20C89501D4DA0710C2800FF36F070
:103470001130030000000C000000000000000000FC
:10348000000000000000000000000000000001D06B
:1034900007C4092A2A0750C17DD69340478BC9B675
:1034A000679DA7038F6D2E4217F208A9CBED0FAED3
:1034B000B907EDD0AB0ECC10EF732EE32FF8E8ABCD
:1034C000D0EF88C91E149DD552B80DB53196F8A419
:1034D000FC750D9E2FE478BEE5A6A5416D42741DD6
:1034E00048C8FB6F1C01F1A5E7AB91CC2116AD03D9
:1034F000064772ED3CA8C734C53702579534AC86F1
:103500005BF9468309672DFDF73E785A8C08A9427E
:103510009BA944E6C43404442D1310AECCA5F6CFC9
:1035200014EBCFCFA124F4BF2A962DEA7A3F95570A
:103530006D06A1B3FF70C376D336C36F120DC9E019
:10354000FF38502B3A83FC2957B34FE21BF23E0160
:103550007085BEC5C59CB3DAEEA96109119C83D7FD
:10356000819C46D839BEFD9F9EC2B85475B31A1FC0
:103570004A2965D03A595D9E3E6BE8D6675406A34A
:103580003E2A446C132C9EAEDDF5DFBDF1692AF8AE
:103590002195B67E5E5983E520028FE9DC02D3F0E7
:1035A000A8A0994755A12CD65CE9198B91898C90DC
:1035B000C2A35F4FE777A6536F08AE12F6FEA1B322
:1035C0003925249B2F05D35745317193ABBDF0EBC3
:1035D000A563509DAC1CF731A892D507AD04B41D6E
:1035E000BF8311E3D71BAFC2F4016799DD882028A0
:1035F000267E00CB627EF653AA9384458B367F5697
:10360000AD7C294BBE13B46818C128933B8D615E15
:10361000C9ABBB76CBB7EE184787E90E0C6BD384EA
:1036200029B4C338E6CA1EBD7B1567C32165BF65D3
:10363000A7D098725D4B7F18FEA98FE5B7581DE59E
:103640009B60C33A201B93923D5358AA9F0F293F7A
:10365000D11336187DE71B899E6D73D8B4C68FAD24
:1036600007339B6C439F7926FA5D6505F6FD24B010
:1036700073FB911F8763A668F6548A1AF72260E5E8
:103680007D013944EC3F784FD41B70324D431825EF
:10369000869888A2B28CA5030000000000000000FC
:1036A0000000001194120A109910981180119011C5
:1036B000726460605E5C5A50463C321E140A058299
:1036C00000253BA1002A002D0005F93200991126A2
:1036D000008F8556493E35000000000000000000C4
:1036E00000000000000000000207010500BA006CA5
:1036F0000061024B0104009B0067005F030201456B
:1037000000B10069005E104F104E10441042103A94
:103710000FD50FED0FF40FF30FEE0F5A0F7B0F9233
:103720000F9B0FA10F180F320F560F640F600EEE94
:103730000EFE0F0A0F230F270ED40EDA0EE20EE64E
:103740000EE40EA00EB20EBA0EB80EAE0E820E88A9
:103750000E990E990E880E570E680E680E650E575C
:103760000E020E300E420E3C0E260BB80BB80BB8F4
:103770000BB80BB8009B3C020400000000000000E6
:103780000000000000000000000000000000000039
:10379000000000000000D00350800CD20FE6147827
:1037A00005F4011E006E00640000012C2DBA00001B
:1037B0000000000000004000E84268101A04000009
:1037C00000000000000042542D3030303331382DDD
:1037D0003031254200000000001CF7FF070F171FC3
:1037E000272F3788A277C7B6FBF6A205D865926463
:1037F000CAA48E83CC09C950827480FA8428792A9D
:10380000838A788784057BDE81E49A8BBD40CA7DFC
:103810000DCC833576197A636F3D831B78147FC98D
:103820007276826F9831B7D7C36413D9112A60FBBF
:103830006A71FD3A453F315F4000005847CB395E21
:103840002C00000000000000000000DC631963731E
:1038500076B07B4E77BF6AC06E597AA8767169F3ED
:1038600085DCD20C89501D4DA0710C2800FF36F06C
:103870001130030000000C000000000000000000F8
:10388000000000000000000000000000000001D067
:1038900007C4092A2A0750C17DD69340478BC9B671
:1038A000679DA7038F6D2E4217F208A9CBED0FAECF
:1038B000B907EDD0AB0ECC10EF732EE32FF8E8ABC9
:1038C000D0EF88C91E149DD552B80DB53196F8A415
:1038D000FC750D9E2FE478BEE5A6A5416D42741DD2
:1038E00048C8FB6F1C01F1A5E7AB91CC2116AD03D5
:1038F000064772ED3CA8C734C53702579534AC86ED
:103900005BF9468309672DFDF73E785A8C08A9427A
:103910009BA944E6C43404442D1310AECCA5F6CFC5
:1039200014EBCFCFA124F4BF2A962DEA7A3F955706
:103930006D06A1B3FF70C376D336C36F120DC9E015
:10394000FF38502B3A83FC2957B34FE21BF23E015C
:103950007085BEC5C59CB3DAEEA96109119C83D7F9
:10396000819C46D839BEFD9F9EC2B85475B31A1FBC
:103970004A2965D03A595D9E3E6BE8D6675406A346
:103980003E2A446C132C9EAEDDF5DFBDF1692AF8AA
:103990002195B67E5E5983E520028FE9DC02D3F0E3
:1039A000A8A0994755A12CD65CE9198B91898C90D8
:1039B000C2A35F4FE777A6536F08AE12F6FEA1B31E
:1039C0003925249B2F05D35745317193ABBDF0EBBF
:1039D000A563509DAC1CF731A892D507AD04B41D6A
:1039E000BF8311E3D71BAFC2F4016799DD8820289C
:1039F000267E00CB627EF653AA9384458B367F5693
:103A0000AD7C294BBE13B46818C128933B8D615E11
:103A1000C9ABBB76CBB7EE184787E90E0C6BD384E6
:103A200029B4C338E6CA1EBD7B1567C32165BF65CF
:103A3000A7D098725D4B7F18FEA98FE5B7581DE59A
:103A40009B60C33A201B93923D5358AA9F0F293F76
:103A5000D11336187DE71B899E6D73D8B4C68FAD20
:103A600007339B6C439F7926FA5D6505F6FD24B00C
:103A700073FB911F8763A668F6548A1AF72260E5E4
:103A80007D013944EC3F784FD41B70324D431825EB
:103A9000869888A2B28CA5030000000000000000F8
:103AA0000000001194120A109910981180119011C1
:103AB000726460605E5C5A50463C321E140A058295
:103AC00000253BA1002A002D0005F932009911269E
:103AD000008F8556493E35000000000000000000C0
:103AE00000000000000000000207010500BA006CA1
:103AF0000061024B0104009B0067005F0302014567
:103B000000B10069005E104F104E10441042103A90
:103B10000FD50FED0FF40FF30FEE0F5A0F7B0F922F
:103B20000F9B0FA10F180F320F560F640F600EEE90
:103B30000EFE0F0A0F230F270ED40EDA0EE20EE64A
:103B40000EE40EA00EB20EBA0EB80EAE0E820E88A5
:103B50000E990E990E880E570E680E680E650E5758
:103B60000E020E300E420E3C0E260BB80BB80BB8F0
:103B70000BB80BB8009B3C020400000000000000E2
:103B80000000000000000000000000000000000035
:103B9000000000000000D00350800CD20FE6147823
:103BA00005F4011E006E00640000012C2DBA000017
:103BB0000000000000004000E84268101A04000005
:103BC00000000000000042542D3030303331382DD9
:103BD0003031254100000000001DF7FF070F171FBF
:103BE000272F3788A277C7B6FBF6A205D86592645F
:103BF000CAA48E83CC09C950827480FA8428792A99
:103C0000838A788784057BDE81E49A8BBD40CA7DF8
:103C10000DCC833576197A636F3D831B78147FC989
:103C20007276826F9831B7D7C36413D9112A60FBBB
:103C30006A71FD3A453F315F4000005847CB395E1D
:103C40002C00000000000000000000DC631963731A
:103C500076B07B4E77BF6AC06E597AA8767169F3E9
:103C600085DCD20C89501D4DA0710C2800FF36F068
:103C70001130030000000C000000000000000000F4
:103C8000000000000000000000000000000001D063
:103C900007C4092A2A0750C17DD69340478BC9B66D
:103CA000679DA7038F6D2E4217F208A9CBED0FAECB
:103CB000B907EDD0AB0ECC10EF732EE32FF8E8ABC5
:103CC000D0EF88C91E149DD552B80DB53196F8A411
:103CD000FC750D9E2FE478BEE5A6A5416D42741DCE
:103CE00048C8FB6F1C01F1A5E7AB91CC2116AD03D1
:103CF000064772ED3CA8C734C53702579534AC86E9
:103D00005BF9468309672DFDF73E785A8C08A94276
:103D10009BA944E6C43404442D1310AECCA5F6CFC1
:103D200014EBCFCFA124F4BF2A962DEA7A3F955702
:103D30006D06A1B3FF70C376D336C36F120DC9E011
:103D4000FF38502B3A83FC2957B34FE21BF23E0158
:103D50007085BEC5C59CB3DAEEA96109119C83D7F5
:103D6000819C46D839BEFD9F9EC2B85475B31A1FB8
:103D70004A2965D03A595D9E3E6BE8D6675406A342
:103D80003E2A446C132C9EAEDDF5DFBDF1692AF8A6
:103D90002195B67E5E5983E520028FE9DC02D3F0DF
:103DA000A8A0994755A12CD65CE9198B91898C90D4
:103DB000C2A35F4FE777A6536F08AE12F6FEA1B31A
:103DC0003925249B2F05D35745317193ABBDF0EBBB
:103DD000A563509DAC1CF731A892D507AD04B41D66
:103DE000BF8311E3D71BAFC2F4016799DD88202898
:103DF000267E00CB627EF653AA9384458B367F568F
:103E0000AD7C294BBE13B46818C128933B8D615E0D
:103E1000C9ABBB76CBB7EE184787E90E0C6BD384E2
:103E200029B4C338E6CA1EBD7B1567C32165BF65CB
:103E3000A7D098725D4B7F18FEA98FE5B7581DE596
:103E40009B60C33A201B93923D5358AA9F0F293F72
:103E5000D11336187DE71B899E6D73D8B4C68FAD1C
:103E600007339B6C439F7926FA5D6505F6FD24B008
:103E700073FB911F8763A668F6548A1AF72260E5E0
:103E80007D013944EC3F784FD41B70324D431825E7
:103E9000869888A2B28C5265706C6163696E6720E7
:103EA0006461746100556E6B6E6F776E207265761B
:103EB0002C2063616E6E6F74206669782121210069
:103EC000556E6B6E6F776E2070617274206E756DBB
:103ED0006265722C2063616E6E6F74206669782152
:103EE0002121002F002F002044617465206D616442
:103EF000653A200020556E6B6E6F776E002052651C
:103F0000763A20004261747465727920504E3A20EE
:103F100000476173204761756765204F4B21004260
:103F20006164206761732067756167652C20756E19
:103F300061626C6520746F206669782062617474B8
:103F40006572792100426164206D616E6620646152
:103F50007461207479706500426164206761732028
:103F600067756167652C20756E61626C6520746F82
:103F700020666978206261747465727921004261FB
:103F800064206D616E6620636865636B73756D0098
:103F9000426164206761732067756167652C2075D5
:103FA0006E61626C6520746F20666978206261744E
:103FB000746572792100426164206D616E662066CD
:103FC0006978656420626C6F636B00F4F49BEFA00A
:103FD000738F9EBFB51DD4BCE768426DB49FFD7959
:103FE00075162E00ADCE49BC22503A162D8996A1E9
:103FF000ABF13F2559FC86EA0FAE0DB6BC9734965F
:1040000044FDAAB4419ECF70BB1FE24261642067A9
:1040100061732067756167652C20756E61626C65E0
:1040200020746F20666978206261747465727921EA
:1040300000426164204669726D7761726520566541
:104040007273696F6E0042616420676173206775E7
:104050006167652C20756E61626C6520746F2066E7
:10406000697820626174746572792100426164200C
:104070004465766963652054797065002D8D11243F
:104080001FBECFEFD1E2DEBFCDBF00E00CBF15E019
:10409000A0E0B2E0E2E1F0E301E00BBF02C0079074
:1040A0000D92A03BB107D9F720E1A0EBB5E001C02C
:1040B0001D92A83BB207E1F710E2CFE3D0E200E0A7
:1040C00006C021970109802FFE010E943891CE334E
:1040D000D10780E00807A9F70E945E7D0C9407983D
:1040E0000C9400002F923F924F925F926F927F92BA
:1040F0008F929F92AF92BF92CF92DF92EF92FF92F8
:104100000F931F93CF93DF93CDB7DEB7CD50D14040
:104110000FB6F894DEBF0FBECDBF83ED9FE00E94C7
:10412000B6628D3041F483ED9FE00E94CD4381E083
:104130008093B70538C0883091F4E091B605EE233E
:1041400091F1E150E093B605F0E0E754FA4F1082A8
:1041500065E67FE083ED9FE00E94876424C0982F8E
:104160009F7D91549A3150F090ED980F9A3030F035
:104170008F3521F08B3211F08F33A9F4E091B60521
:10418000E93088F4AE2FB0E0A754BA4F8C93EF5FBC
:10419000E093B605F0E0E754FA4F1082682F83ED04
:1041A0009FE00E940F638091B705882311F40C945F
:1041B0003B321092B7058091B605882311F40C9418
:1041C000C12D8091B905811103C0E9E2F0E025C05D
:1041D00089EB95E00E946E8D26E232E010E0D90175
:1041E0004D915D919D0180E0A82FB0E0BA016A0F6A
:1041F0007B1FFB019081A754BA4F992349F06C9122
:10420000961302C08F5FF0CF1F5F193241F7DDCFE9
:104210008C918111F9CFE12FF0E01092B605109248
:10422000B905E932F10510F00C94BB2D8827EE5842
:10423000FF4F8F4F0C94389180910202882351F0E8
:104240001092020268E57FE083ED9FE00E94024445
:104250000C94C12D81E0809302026CE47FE083ED39
:104260009FE00E9402440C94C12D8091B5058823E3
:1042700051F01092B50560E37FE083ED9FE00E946E
:1042800002440C94C12D81E08093B50567E07FE086
:1042900083ED9FE00E9402440C94C12D8091B405EF
:1042A000882351F01092B40569EE7EE083ED9FE023
:1042B0000E9402440C94C12D81E08093B4056EEB02
:1042C0007EE083ED9FE00E9402440C94C12D60E0EB
:1042D0007DE083ED9FE00E94024468EE7CE083ED88
:1042E0009FE00E9402448091AD0C882309F4B1C084
:1042F00080910002811106C06FEC7CE083ED9FE0AD
:104300000E9402448091C309882331F061EB7CE074
:1043100083ED9FE00E9402448091B805882331F02C
:1043200061E97CE083ED9FE00E940244E091AD0CE6
:1043300023E1E29FF0011124E858FD4F8281882398
:10434000B1F16FE67CE083ED9FE00E94024465E4FA
:104350007CE083ED9FE00E9402446DE17CE083ED10
:104360009FE00E94024464E07CE083ED9FE00E94B5
:1043700002446EEE7BE083ED9FE00E94024469ED13
:104380007BE083ED9FE00E94024461EC7BE083EDE3
:104390009FE00E94024460EA7BE083ED9FE00E9480
:1043A000024463E77BE083ED9FE00E94024467E5FF
:1043B0007BE083ED9FE00E940244E091AD0C43E17D
:1043C000E49FF0011124E858FD4F83818823F1F028
:1043D00061E37BE083ED9FE00E94024464E07BE0C8
:1043E00083ED9FE00E94024466ED7AE083ED9FE05A
:1043F0000E94024467EA7AE083ED9FE00E94024453
:1044000065E77AE083ED9FE00E940244E091AD0C05
:1044100053E1E59FF0011124E858FD4F8081882386
:10442000C1F060E57AE083ED9FE00E9402446AE219
:104430007AE083ED9FE00E94024463E07AE083ED3E
:104440009FE00E94024469ED79E083ED9FE00E94C5
:10445000024467EC79E083ED9FE00E9402446CE83F
:1044600079E083ED9FE00E94024463E579E083ED0B
:104470009FE00E9402448091B3058823B1F06CE272
:1044800079E083ED9FE00E9402448091B2058111A2
:1044900006C067E079E083ED9FE00E9402446BEE86
:1044A00078E083ED9FE00E9402446BEC78E083EDBE
:1044B0009FE00E94024460EB78E083ED9FE00E9461
:1044C000024464E978E083ED9FE00E94024465E8DD
:1044D00078E083ED9FE00E9402440C94C12D0E947D
:1044E000585E0E94AD3B0C94C12D83ED9FE00E946D
:1044F000CD430E94555D0C94C12D1092C3091092BA
:10450000B80583ED9FE00E94CD430E94425868E7C2
:10451000E62E62E0F62E00E010E077EDC72E73E0A5
:10452000D72E1F930F93DF92CF920E94FF5AD7018D
:104530001D966D917C911E9783ED9FE00E94024431
:104540000F5F1F4FB3E1EB0EF11C0F900F900F9018
:104550000F900F30110529F783ED9FE00E94CD43A6
:104560006FE678E083ED9FE00E948764198200E0A7
:1045700010E083ED9FE00E94D862892BD1F383ED98
:104580009FE00E94B6628D3011F40C94CE2D8830DD
:1045900099F40115110569F301501109E1E0F0E00A
:1045A000EC0FFD1FE00FF11F108264EB77E083ED4D
:1045B0009FE00E948764DDCF90ED980F9A30C8F697
:1045C00009301105B4F6E1E0F0E0EC0FFD1FE00F5B
:1045D000F11F80830F5F1F4FE1E0F0E0EC0FFD1F44
:1045E000E00FF11F1082682F83ED9FE00E940F63A0
:1045F000C0CF1092C3091092B8058091AD0C811103
:1046000004C00E944F5B0C94C12D0E94675E811113
:104610000C94C12D0E940F5EE091AD0C8E2F90E0A6
:10462000FC013197EE30F10508F0E7C08827E55628
:10463000FF4F8F4F0C94389180E090E00E94D25A47
:1046400083EC95E00E94417880E00E94D47B811148
:104650000C94C12D83ED9FE00E94CD436FEA7EE074
:1046600083ED9FE00E9402440C94C12D80E090E015
:104670000E94D25A83EC95E00E94417881E00E942A
:10468000D47B81110C94C12D83ED9FE00E94CD431A
:1046900060EA7EE083ED9FE00E9402440C94C12D0D
:1046A00080E090E00E94D25A83EC95E00E9441782D
:1046B00084E00E94D47B81110C94C12D0E94033BA5
:1046C00081110C94C12D83ED9FE00E94CD4361E9DF
:1046D0007EE083ED9FE00E9402440C94C12D80E0B7
:1046E00090E00E94D25A83EC95E00E94417886E0E7
:1046F0000E94D47B81110C94C12D83ED9FE00E9418
:10470000CD4362E87EE083ED9FE00E9402440C947A
:10471000C12D80E090E00E94D25A83EC95E00E9487
:104720002A3C8091AD0C882311F40C94C12D83ECAC
:1047300095E00E94748381110C94C12D83ED9FE05C
:104740000E94CD4363E77EE083ED9FE00E94024438
:104750000C94C12D80E090E00E94D25A83EC95E049
:104760000E942A3C85E00E94526A81110C94C12D5E
:1047700083ED9FE00E94CD4364E67EE083ED9FE001
:104780000E9402440C94C12D80E090E00E94D25A15
:1047900083EC95E00E94417882E00E94D47B8111F5
:1047A0000C94C12D83ED9FE00E94CD4365E57EE032
:1047B00083ED9FE00E9402440C94C12D80E090E0C4
:1047C0000E94D25A83EC95E00E94417883E00E94D7
:1047D000D47B81110C94C12D0E94033B81110C9458
:1047E000C12D83ED9FE00E94CD4366E47EE083ED22
:1047F0009FE00E9402440C94C12D0E942E5B0C94F9
:10480000C12D8091AD0C882309F4FBCE0E94675E18
:1048100081110C94C12D0E940F5E8091AD0C8930E6
:10482000D1F580E090E00E94D25A83EC95E00E949E
:10483000417884E00E94D47B81110CC083ED9FE01D
:104840000E94CD4368E27EE083ED9FE00E94024437
:104850000C94C12D8091AD0C882311F40C947D2E05
:1048600083ED9FE00E94CD4383ED9FE00E94CD4306
:104870006CE376E083ED9FE00E9487640E94007FF6
:1048800081110C94772E8091AE0C882311F40C9436
:10489000772E0C94612E0E942E5B0C94C12D80917A
:1048A000AD0C882309F4ADCE0E94675E81110C9493
:1048B000C12D80910002882321F00E94285B0C9476
:1048C000C12D0E940F5EE091AD0C8E2F90E0FC0197
:1048D0003197EE30F10508F074C08827E755FF4F97
:1048E0008F4F0C94389180E00E947D7B81110C9455
:1048F000C12D83ED9FE00E94CD4362ED7DE083ED0D
:104900009FE00E9402440C94C12D81E00E947D7BB7
:1049100081110C94C12D83ED9FE00E94CD4361EC89
:104920007DE083ED9FE00E9402440C94C12D84E061
:104930000E947D7B81110C94C12D0E94033B81114B
:104940000C94C12D83ED9FE00E94CD4360EB7DE090
:1049500083ED9FE00E9402440C94C12D86E00E94EA
:104960007D7B81110C94C12D83ED9FE00E94CD438E
:104970006FE97DE083ED9FE00E9402440C94C12D1D
:1049800082E00E947D7B81110C94C12D83ED9FE01C
:104990000E94CD436EE87DE083ED9FE00E940244DB
:1049A0000C94C12D83E00E947D7B81110AC083EDB0
:1049B0009FE00E94CD436DE77DE083ED9FE00E9484
:1049C00002440E942E5B0C94C12DE091AD0CEE23AD
:1049D00009F417CE13E11E9FF0011124E858FD4F92
:1049E0008381811104C00E942E5B0C94C12D8091A3
:1049F000B50581110C948B2E0E948F5CE091AD0C5B
:104A00001E9FF0011124E858FD4F27853089418908
:104A100052890E94DD8D181614F00C94882E0C9487
:104A20008B2EE091AD0CEE2309F4EBCD13E11E9F2C
:104A3000F0011124E858FD4F83818823A1F2809171
:104A4000B50581110C949C2E0E948F5CE091AD0CF9
:104A50001E9FF0011124E858FD4F278530894189B8
:104A600052890E94DD8D181614F00C94882E0C9437
:104A70009C2EE091AD0CEE2309F4C3CD13E11E9FF3
:104A8000F0011124E858FD4F8381882309F4ABCF4E
:104A90008091B50581110C94B32E0E948F5CE0913A
:104AA000AD0C1E9FF0011124E858FD4F2785308979
:104AB000418952890E94DD8D181614F00C94882EBD
:104AC0000C94B32EE091AD0CEE2309F49ACD13E1D2
:104AD0001E9FF0011124E858FD4F8381882309F4BB
:104AE00082CF8091B50581110C94C52E0E948F5CF8
:104AF000E091AD0C1E9FF0011124E858FD4F278571
:104B00003089418952890E94DD8D181614F00C9469
:104B1000882E0C94C52E1092C3091092B805E0910E
:104B2000AD0CEE2309F46DCDB3E1EB9FF001112440
:104B3000E858FD4F8081882309F455CF0E94675EB5
:104B400081110C94C12D0E940F5E80E090E00E94C4
:104B500041780C94C12D1092C3091092B805809130
:104B6000AD0C882309F44DCD8091B50581110C94CD
:104B7000CA2E0E948F5CE091AD0C23E1E29FF00110
:104B80001124E858FD4F27853089418952890E94B8
:104B9000DD8D181614F00C94882E0C94CA2EE0911A
:104BA000AD0CEE2309F42DCD43E1E49FF001112477
:104BB000E858FD4F8081882309F415CF0E94675E75
:104BC0008111DFC780910002811107C00E940F5E32
:104BD00080E090E00E946A7AD4C70E94285B0E941D
:104BE000CD67882309F4CDC7F1CF8091AD0C882320
:104BF00009F407CD8091B50581110C94D12E0E9446
:104C00008F5CE091AD0C53E1E59FF0011124E85871
:104C1000FD4F27853089418952890E94DD8D181604
:104C200014F00C94882E0C94D12EE091AD0CEE2350
:104C300009F4E7CC83E1E89FF0011124E858FD4F27
:104C40008081882309F4CFCE0E94675E811199C7C5
:104C50008091000281111DC00E94425864E67DE0EF
:104C600083ED9FE00E948764E091AD0C93E1E99FA2
:104C7000F0011124E858FD4F6585768583ED9FE0AE
:104C80000E94876460E57DE083ED9FE00E9402441E
:104C900008C00E94285B0E94CD67882309F471C771
:104CA000DBCF83ED9FE00E94D862892BD1F383EDA7
:104CB0009FE00E94B6628F7D893509F062C70E942D
:104CC0000F5EE091AD0C8E2F90E0FC013197EB3040
:104CD000F105D0F48827E954FF4F8F4F0C94389199
:104CE00080E00E948F7B4DC781E00E948F7B49C787
:104CF00084E00E948F7B45C782E00E948F7B41C782
:104D000083E00E948F7B3DC70E942E5B3AC7809153
:104D1000AD0C882309F475CC8091B50581110C94F4
:104D2000F22E0E948F5CE091AD0CA3E1EA9FF001AE
:104D30001124E858FD4F27853089418952890E9406
:104D4000DD8D18160CF0E4C70C94F22EE091AD0C3A
:104D5000EE2309F456CC23E1E29FF0011124E85838
:104D6000FD4F8081882309F43ECE0E94675E811149
:104D700008C780910002882339F00E94285B0E94B6
:104D8000CD67882309F4FDC60E940F5E80E090E0A5
:104D90000E943979F6C6E091AD0CEE2309F431CCCE
:104DA00013E11E9FF0011124E858FD4F83818823F1
:104DB00009F419CE8091B50581110C94412F0E9400
:104DC0008F5CE091AD0C1E9FF0011124E858FD4F5F
:104DD00027853089418952890E94DD8D18160CF093
:104DE00097C70C94412F1092C3091092B80581E027
:104DF00090E00E94D25AC5C61092C3091092B8051D
:104E00008091AD0C882309F4FCCB81E090E00E94F6
:104E1000D25A0E9442581092C50966EF75E083EDA0
:104E20009FE00E940244AE014F5F5F4F7A01C42EA3
:104E300053E1B52E0E94E4598B3149F465EE75E0DB
:104E400083ED9FE00E9402440E9442589AC69091CE
:104E5000C509992319F00E94425893C68A3351F725
:104E60001092C4090E94BF5AD82E0E94BF5A082F20
:104E700010E0102F00270E94BF5A082B0E94BF5A33
:104E8000A82E50E45D1510F0470115C06BED75E0DC
:104E900083ED9FE00E94876460E470E083ED9FE013
:104EA0000E946C4D64ED75E083ED9FE00E9402442A
:104EB0000E94425866C6882D8E198D1530F40E94C6
:104EC000BF5AD4018D934D01F6CF0E94BF5A8091F5
:104ED000C409882349F067EC75E083ED9FE00E94E8
:104EE00002440E9442584DC6B1E0AB1609F4D9C73E
:104EF000AB1668F0E3E0AE1609F49CCF66E975E006
:104F000083ED9FE00E9402440E9442583AC6E0911D
:104F1000AD0C98012D533A4FD7010E191F09BE9EB3
:104F2000F0011124BF0163587D4FC8018A0F9B1FF8
:104F30004A2F4C194D1508F07DCFFB01408151815E
:104F40008417950738F066EA75E083ED9FE00E94CC
:104F5000024417C69D91F90191939F01E6CF80917C
:104F6000AD0C882309F44DCB60E070E080E090E068
:104F70000E94EF5906C68091000281119ECC80915B
:104F8000C309811107C068E675E083ED9FE00E94C8
:104F90000244F7C56BE575E083ED9FE00E948764EE
:104FA0008091C4050E94D1436091C5057091C605EA
:104FB0008091C7059091C8050E9440916B017C01CA
:104FC000611571058105910509F463C034E6432E2E
:104FD000512C612C712CA30192010E941691C65F85
:104FE000DE4F288339834A835B83CA50D140162F12
:104FF000A62EB72E66E475E083ED9FE00E948764DD
:10500000C701B60120E137E240E050E00E9416916E
:10501000BA01A9012AE083ED9FE00E94986864E448
:1050200075E083ED9FE00E948764C65FDE4F688174
:1050300079818A819B81CA50D140A30192010E944B
:10504000169183ED9FE00E9496406EE375E083ED3C
:105050009FE00E948764F5E1AF16B10420F4C5011A
:105060000E94E24322C02FE2A216B10458F46CE27F
:10507000610F83ED9FE00E940F6383ED9FE00E942C
:10508000CD4313C06AE375E083ED9FE00E940244C4
:105090000CC063E275E083ED9FE00E94876463EFDC
:1050A00076E083ED9FE00E94F1438090C9059090E7
:1050B000CA05A090CB05B090CC05C501B40120E194
:1050C00037E240E050E00E94169169017A0120EF3A
:1050D00038ED2C9DC0012D9D900D3C9D900D11240F
:1050E000880E991E66E175E083ED9FE00E9487645B
:1050F0009F928F9241E4C40ED11CDF92CF928DED2E
:1051000093E09F938F938E010F5F1F4F1F930F9319
:105110000E949D91B80183ED9FE00E941F4567E0CA
:1051200075E083ED9FE00E9487646091CF0570E099
:1051300084E0759567958A95E1F783ED9FE00E947D
:105140006C4D65E075E083ED9FE00E9487644AE066
:1051500050E06091CD0583ED9FE00E948B4063E0BD
:1051600075E083ED9FE00E9487648091CF058F708A
:1051700090E0982F88272091CE05822B0E94E24351
:105180000091D0051091D10510270127102768EF55
:1051900074E083ED9FE00E948764B80183ED9FE097
:1051A0000E9496406BEE74E083ED9FE00E9487645E
:1051B0004AE050E06091D20583ED9FE00E948B4071
:1051C0006CED74E083ED9FE00E9487644AE050E05C
:1051D0006091D30583ED9FE00E948B406DEC74E0FD
:1051E00083ED9FE00E9487644AE050E06091A5064D
:1051F00083ED9FE00E948B406BEC74E083ED9FE0B9
:105200000E9402440FB6F894DEBF0FBECDBFB9C4F2
:1052100080910002811151CB8091B805811107C0A6
:1052200061EB74E083ED9FE00E940244AAC40E94F7
:105230002F51A7C4E091AD0CEE2309F4E2C913E1AC
:105240001E9FF0011124E858FD4F8281882309F444
:10525000CACB8091B50581112FC60E948F5CE09169
:10526000AD0C1E9FF0011124E858FD4F27853089B1
:10527000418952890E94DD8D18160CF049C51CC663
:10528000E091AD0CEE2309F4BCC913E11E9FF001BF
:105290001124E858FD4F8281882309F4A4CB809122
:1052A000B50581110EC60E948F5CE091AD0C1E9F6A
:1052B000F0011124E858FD4F278530894189528932
:1052C0000E94DD8D18160CF023C5FBC5E091AD0CD6
:1052D000EE2309F496C913E11E9FF0011124E8584A
:1052E000FD4F8281882309F47ECB8091B505811121
:1052F000F1C50E948F5CE091AD0C1E9FF00111245E
:10530000E858FD4F27853089418952890E94DD8DFB
:1053100018160CF0FDC4DEC5E091AD0CEE2309F4C7
:1053200070C913E11E9FF0011124E858FD4F8281DE
:10533000882309F458CB8091B5058111DFC50E94FF
:105340008F5CE091AD0C1E9FF0011124E858FD4FD9
:1053500027853089418952890E94DD8D18160CF00D
:10536000D7C4CCC5E091AD0CEE2309F44AC913E1D2
:105370001E9FF0011124E858FD4F8281882309F413
:1053800032CB8091B5058111C8C50E948F5CE09138
:10539000AD0C1E9FF0011124E858FD4F2785308980
:1053A000418952890E94DD8D18160CF0B1C4B5C533
:1053B000E091AD0CEE2309F424C913E11E9FF00126
:1053C0001124E858FD4F8281882309F40CCB809189
:1053D000B5058111ABC50E948F5CE091AD0C1E9F9D
:1053E000F0011124E858FD4F278530894189528901
:1053F0000E94DD8D18160CF08BC498C5E091AD0CA1
:10540000EE2309F4FEC813E11E9FF0011124E858B1
:10541000FD4F8281882309F4E6CA8091B505811188
:10542000C0C50E948F5CE091AD0C1E9FF00111245D
:10543000E858FD4F27853089418952890E94DD8DCA
:1054400018160CF065C4ADC5E091AD0CEE2309F45F
:10545000D8C813E11E9FF0011124E858FD4F828146
:10546000882309F4C0CA8091B50581119FC50E94A7
:105470008F5CE091AD0C1E9FF0011124E858FD4FA8
:1054800027853089418952890E94DD8D18160CF0DC
:105490003FC48CC5E091AD0CEE2309F4B2C813E112
:1054A0001E9FF0011124E858FD4F8281882309F4E2
:1054B0009ACA8091B505811167C60E948F5CE09100
:1054C000AD0C1E9FF0011124E858FD4F278530894F
:1054D000418952890E94DD8D18160CF019C454C6FA
:1054E000E091AD0CEE2309F48CC813E11E9FF0018E
:1054F0001124E858FD4F8281882309F474CA8091F1
:10550000B5058111B9C60E948F5CE091AD0C1E9F5C
:10551000F0011124E858FD4F2785308941895289CF
:105520000E94DD8D18160CF0F3C3A6C6E091AD0CF9
:10553000EE2309F466C813E11E9FF0011124E85818
:10554000FD4F8281882309F44ECA8091B5058111EF
:10555000A0C60E948F5CE091AD0C1E9FF00111244B
:10556000E858FD4F27853089418952890E94DD8D99
:1055700018160CF0CDC38DC61092C3091092B80551
:105580008091AD0C882309F43CC88091B30581114A
:1055900007C06DE473E083ED9FE00E940244F1C216
:1055A000CB57DF4F1882C558D040C957DF4F1882FC
:1055B000C758D040CD57DF4F19821882C358D0400A
:1055C0008EE192E0CF57DF4F99838883C158D04056
:1055D0000E94425864E373E083ED9FE00E9402441E
:1055E00068E173E083ED9FE00E9487648E010951BA
:1055F0001F4FC8010E94C24F81110FC083ED9FE071
:105600000E94CD436EE274E083ED9FE00E94F1437F
:1056100083ED9FE00E94CD43B4C21F930F9387E3B5
:1056200094E09F938F937E0184EBE80EF11CFF9230
:10563000EF920E949D9181E090E00E94D25A0E94D8
:1056400042586091B0057091B10501E810E00C0F6F
:105650001D1F0C5F1F4F21E0A701C8010E941C4ABB
:105660000F900F900F900F900F900F90811107C027
:1056700064E073E083ED9FE00E94024482C21092D6
:10568000C509C02EB12EDE0111967D01B3E1AB2E0E
:10569000BE0165507F4F8C2D9B2D0E94574E019768
:1056A00009F018C68091C509882309F421C612C6DD
:1056B0008091AD0C882311F40C9401238091B305E3
:1056C000882309F466CF8091B205882339F061E719
:1056D00072E083ED9FE00E94024453C260E070E0FC
:1056E00080E090E00E946A584CC28091B305882304
:1056F00009F44FCFC054DF4F1882C05CD040CE5366
:10570000DF4F1882C25CD040CA54DF4F1982188222
:10571000C65BD04048EE53E060E070E0C854DF4F15
:10572000488359836A837B83C85BD0408CE092E0D6
:10573000CC54DF4F99838883C45BD040C357DF4F7D
:105740001882CD58D040C157DF4F1882CF58D04073
:10575000CD57DF4F19821882C358D040CB57DF4F47
:10576000488359836A837B83C558D040CF57DF4F26
:1057700099838883C158D04066E472E083ED9FE04E
:105780000E9402446091B0057091B105E1E82E2EAF
:10579000312C2C0E3D1EFCE02F0E311C21E04EE37F
:1057A00054E0C1010E941C4AF8EE4F2EF3E05F2E38
:1057B000612C712C44EB50E04C0F5D1F4D5C5F4F32
:1057C000C65FDE4F59834883CA50D1408E010951CC
:1057D0001F4F4E015BEF850E911CCE0101965C01BF
:1057E0001D861F861C821B824D825E826F82788698
:1057F000ACE0B2E0BA83A983CF56DF4F88819981AC
:10580000C159D0409A8B898BC956DF4F88819981C5
:10581000AA81BB81C759D04075E0B695A7959795E9
:1058200087957A95D1F7E82FEF70FE2EC157DF4F9D
:105830008881CF58D040823088F1C1010E94204732
:1058400097FD2CC0C956DF4F88819981AA81BB8101
:10585000C759D0404F96A11DB11DC956DF4F88834F
:105860009983AA83BB83C759D04020E2F29EF001FE
:105870001124E45EF24F309789F08081882371F023
:10588000853E11F28E3209F4BFCF838583FDBCCFF4
:1058900041E06F2DCE010D960E94C6478AE1FE01C0
:1058A0003D96A4EBB0E0AC0FBD1F1C9601900D928D
:1058B0008A95E1F78B819C81CA54DF4F9983888355
:1058C000C65BD0408D819E81AF81B885C854DF4FC3
:1058D00088839983AA83BB83C85BD04089859A85D6
:1058E000AB85BC85C454DF4F88839983AA83BB836F
:1058F000CC5BD040DE019796E4EBF0E0EC0FFD1FAF
:10590000B6968D918193C65FDE4F48815981CA500A
:10591000D140E417F507A9F7CE53DF4F8881C25C69
:10592000D040882309F41BC1823008F010C160E028
:1059300084EB90E08C0F9D1F0C960E947C47009793
:10594000E1F0FC0190E080E02EE23081303269F03D
:10595000883029F4D801A90FB11D2C939F5FD8017D
:10596000A90FB11D30813C939F5F8F5F31968B30C3
:1059700061F7F801E90FF11D10821F930F9380E486
:1059800094E09F938F939F928F920E949D91B40178
:1059900083ED9FE00E941F4564EBE62EF12CEC0E98
:1059A000FD1EBCE0EB0EF11CC7010E9494470F9056
:1059B0000F900F900F900F900F90882309F450C014
:1059C00060E0C7010E947C47009709F449C0FC01D0
:1059D000E688F788C08CD18CB601672F772766954B
:1059E0006454784F83ED9FE00E9496406DE283ED12
:1059F0009FE00E940F63C60145E0969587954A9502
:105A0000E1F78F700E949D426DE283ED9FE00E945E
:105A10000F638C2D8F710E949D4260E283ED9FE0A9
:105A20000E940F638F2D8695869586950E949D42D4
:105A30006AE383ED9FE00E940F63C70155E09695EE
:105A400087955A95E1F78F730E949D426AE383ED33
:105A50009FE00E940F638E2D8F71880F0E949D42E0
:105A600060E283ED9FE00E940F63CE52DF4F88819A
:105A70009981AA81BB81C25DD040FE013B96AD01F8
:105A800066277727452B462B472B09F42EC033E397
:105A9000839F8827030E811D202D939F9927800DBA
:105AA000911DA39FAA27900DA11DB39FBB27A00DF9
:105AB000B11D1124280F891F9A1FAB1FB11D290F7B
:105AC0008A1F9B1FA11DB11D2B0F811D911DA11DA3
:105AD000B11DB695A7959795879527953AE0239F91
